{"contracts/GovernanceDAO.sol":{"GovernanceDAO":{"abi":[{"inputs":[{"internalType":"address","name":"_propertyTokenFactory","type":"address"},{"internalType":"address","name":"_owner","type":"address"}],"stateMutability":"nonpayable","type":"constructor"},{"inputs":[],"name":"AlreadyVoted","type":"error"},{"inputs":[],"name":"EmptyTitle","type":"error"},{"inputs":[],"name":"InsufficientTokensToPropose","type":"error"},{"inputs":[],"name":"InvalidAddress","type":"error"},{"inputs":[],"name":"InvalidQuorum","type":"error"},{"inputs":[],"name":"NoVotingPower","type":"error"},{"inputs":[],"name":"NotProposerOrOwner","type":"error"},{"inputs":[{"internalType":"address","name":"owner","type":"address"}],"name":"OwnableInvalidOwner","type":"error"},{"inputs":[{"internalType":"address","name":"account","type":"address"}],"name":"OwnableUnauthorizedAccount","type":"error"},{"inputs":[],"name":"PropertyTokenNotFound","type":"error"},{"inputs":[],"name":"ProposalAlreadyExecuted","type":"error"},{"inputs":[],"name":"ProposalCancelledError","type":"error"},{"inputs":[],"name":"ProposalNotFound","type":"error"},{"inputs":[],"name":"ProposalNotPassed","type":"error"},{"inputs":[],"name":"QuorumNotReached","type":"error"},{"inputs":[],"name":"ReentrancyGuardReentrantCall","type":"error"},{"inputs":[],"name":"VotingNotActive","type":"error"},{"inputs":[],"name":"VotingNotEnded","type":"error"},{"inputs":[],"name":"VotingPeriodOutOfRange","type":"error"},{"anonymous":false,"inputs":[{"indexed":true,"internalType":"address","name":"previousOwner","type":"address"},{"indexed":true,"internalType":"address","name":"newOwner","type":"address"}],"name":"OwnershipTransferred","type":"event"},{"anonymous":false,"inputs":[{"indexed":true,"internalType":"uint256","name":"proposalId","type":"uint256"}],"name":"ProposalCancelled","type":"event"},{"anonymous":false,"inputs":[{"indexed":true,"internalType":"uint256","name":"proposalId","type":"uint256"},{"indexed":true,"internalType":"uint256","name":"propertyId","type":"uint256"},{"indexed":true,"internalType":"address","name":"proposer","type":"address"},{"indexed":false,"internalType":"string","name":"title","type":"string"},{"indexed":false,"internalType":"uint256","name":"startTime","type":"uint256"},{"indexed":false,"internalType":"uint256","name":"endTime","type":"uint256"}],"name":"ProposalCreated","type":"event"},{"anonymous":false,"inputs":[{"indexed":true,"internalType":"uint256","name":"proposalId","type":"uint256"}],"name":"ProposalExecuted","type":"event"},{"anonymous":false,"inputs":[{"indexed":false,"internalType":"uint256","name":"oldThreshold","type":"uint256"},{"indexed":false,"internalType":"uint256","name":"newThreshold","type":"uint256"}],"name":"ProposalThresholdUpdated","type":"event"},{"anonymous":false,"inputs":[{"indexed":false,"internalType":"uint256","name":"oldQuorum","type":"uint256"},{"indexed":false,"internalType":"uint256","name":"newQuorum","type":"uint256"}],"name":"QuorumUpdated","type":"event"},{"anonymous":false,"inputs":[{"indexed":true,"internalType":"uint256","name":"proposalId","type":"uint256"},{"indexed":true,"internalType":"address","name":"voter","type":"address"},{"indexed":false,"internalType":"enum GovernanceDAO.VoteType","name":"voteType","type":"uint8"},{"indexed":false,"internalType":"uint256","name":"weight","type":"uint256"}],"name":"Voted","type":"event"},{"anonymous":false,"inputs":[{"indexed":false,"internalType":"uint256","name":"oldPeriod","type":"uint256"},{"indexed":false,"internalType":"uint256","name":"newPeriod","type":"uint256"}],"name":"VotingPeriodUpdated","type":"event"},{"inputs":[],"name":"MAX_VOTING_PERIOD","outputs":[{"internalType":"uint256","name":"","type":"uint256"}],"stateMutability":"view","type":"function"},{"inputs":[],"name":"MIN_VOTING_PERIOD","outputs":[{"internalType":"uint256","name":"","type":"uint256"}],"stateMutability":"view","type":"function"},{"inputs":[{"internalType":"uint256","name":"proposalId","type":"uint256"}],"name":"cancelProposal","outputs":[],"stateMutability":"nonpayable","type":"function"},{"inputs":[{"internalType":"uint256","name":"propertyId","type":"uint256"},{"internalType":"string","name":"title","type":"string"},{"internalType":"string","name":"description","type":"string"}],"name":"createProposal","outputs":[],"stateMutability":"nonpayable","type":"function"},{"inputs":[{"internalType":"uint256","name":"proposalId","type":"uint256"}],"name":"executeProposal","outputs":[],"stateMutability":"nonpayable","type":"function"},{"inputs":[{"internalType":"uint256","name":"propertyId","type":"uint256"}],"name":"getPropertyProposals","outputs":[{"internalType":"uint256[]","name":"","type":"uint256[]"}],"stateMutability":"view","type":"function"},{"inputs":[{"internalType":"uint256","name":"proposalId","type":"uint256"}],"name":"getProposal","outputs":[{"components":[{"internalType":"uint256","name":"id","type":"uint256"},{"internalType":"uint256","name":"propertyId","type":"uint256"},{"internalType":"address","name":"proposer","type":"address"},{"internalType":"string","name":"title","type":"string"},{"internalType":"string","name":"description","type":"string"},{"internalType":"uint256","name":"forVotes","type":"uint256"},{"internalType":"uint256","name":"againstVotes","type":"uint256"},{"internalType":"uint256","name":"startTime","type":"uint256"},{"internalType":"uint256","name":"endTime","type":"uint256"},{"internalType":"bool","name":"executed","type":"bool"},{"internalType":"bool","name":"cancelled","type":"bool"}],"internalType":"struct GovernanceDAO.Proposal","name":"","type":"tuple"}],"stateMutability":"view","type":"function"},{"inputs":[{"internalType":"uint256","name":"proposalId","type":"uint256"},{"internalType":"address","name":"voter","type":"address"}],"name":"getVoteWeight","outputs":[{"internalType":"uint256","name":"","type":"uint256"}],"stateMutability":"view","type":"function"},{"inputs":[{"internalType":"uint256","name":"","type":"uint256"},{"internalType":"address","name":"","type":"address"}],"name":"hasVoted","outputs":[{"internalType":"bool","name":"","type":"bool"}],"stateMutability":"view","type":"function"},{"inputs":[],"name":"nextProposalId","outputs":[{"internalType":"uint256","name":"","type":"uint256"}],"stateMutability":"view","type":"function"},{"inputs":[],"name":"owner","outputs":[{"internalType":"address","name":"","type":"address"}],"stateMutability":"view","type":"function"},{"inputs":[{"internalType":"uint256","name":"","type":"uint256"},{"internalType":"uint256","name":"","type":"uint256"}],"name":"propertyProposals","outputs":[{"internalType":"uint256","name":"","type":"uint256"}],"stateMutability":"view","type":"function"},{"inputs":[],"name":"propertyTokenFactory","outputs":[{"internalType":"contract IPropertyTokenFactory","name":"","type":"address"}],"stateMutability":"view","type":"function"},{"inputs":[],"name":"proposalThreshold","outputs":[{"internalType":"uint256","name":"","type":"uint256"}],"stateMutability":"view","type":"function"},{"inputs":[{"internalType":"uint256","name":"","type":"uint256"}],"name":"proposals","outputs":[{"internalType":"uint256","name":"id","type":"uint256"},{"internalType":"uint256","name":"propertyId","type":"uint256"},{"internalType":"address","name":"proposer","type":"address"},{"internalType":"string","name":"title","type":"string"},{"internalType":"string","name":"description","type":"string"},{"internalType":"uint256","name":"forVotes","type":"uint256"},{"internalType":"uint256","name":"againstVotes","type":"uint256"},{"internalType":"uint256","name":"startTime","type":"uint256"},{"internalType":"uint256","name":"endTime","type":"uint256"},{"internalType":"bool","name":"executed","type":"bool"},{"internalType":"bool","name":"cancelled","type":"bool"}],"stateMutability":"view","type":"function"},{"inputs":[],"name":"quorum","outputs":[{"internalType":"uint256","name":"","type":"uint256"}],"stateMutability":"view","type":"function"},{"inputs":[],"name":"renounceOwnership","outputs":[],"stateMutability":"nonpayable","type":"function"},{"inputs":[{"internalType":"uint256","name":"newThreshold","type":"uint256"}],"name":"setProposalThreshold","outputs":[],"stateMutability":"nonpayable","type":"function"},{"inputs":[{"internalType":"uint256","name":"newQuorum","type":"uint256"}],"name":"setQuorum","outputs":[],"stateMutability":"nonpayable","type":"function"},{"inputs":[{"internalType":"uint256","name":"newPeriod","type":"uint256"}],"name":"setVotingPeriod","outputs":[],"stateMutability":"nonpayable","type":"function"},{"inputs":[{"internalType":"address","name":"newOwner","type":"address"}],"name":"transferOwnership","outputs":[],"stateMutability":"nonpayable","type":"function"},{"inputs":[{"internalType":"uint256","name":"proposalId","type":"uint256"},{"internalType":"enum GovernanceDAO.VoteType","name":"voteType","type":"uint8"}],"name":"vote","outputs":[],"stateMutability":"nonpayable","type":"function"},{"inputs":[{"internalType":"uint256","name":"","type":"uint256"},{"internalType":"address","name":"","type":"address"}],"name":"voterWeight","outputs":[{"internalType":"uint256","name":"","type":"uint256"}],"stateMutability":"view","type":"function"},{"inputs":[],"name":"votingPeriod","outputs":[{"internalType":"uint256","name":"","type":"uint256"}],"stateMutability":"view","type":"function"}],"evm":{"bytecode":{"linkReferences":{},"object":"60a03461011557601f61169038819003918201601f19168301916001600160401b0383118484101761011a57808492604094855283398101031261011557602061004882610130565b916001600160a01b0391829161005e9101610130565b169182156100fc57600080546001600160a01b03198116851782556040519491908416907f8be0079c531659141344cd1fd0a4f28419497f9722a3daafe3b4186f6b6457e09080a360018055600a60035562093a8060045560c8600555169081156100ed575060805260405161154b90816101458239608051818181610681015281816109210152610e880152f35b63e6c4247b60e01b8152600490fd5b604051631e4fbdf760e01b815260006004820152602490fd5b600080fd5b634e487b7160e01b600052604160045260246000fd5b51906001600160a01b03821682036101155756fe6080604052600436101561001257600080fd5b60003560e01c8063013cf08b146111aa57806302a251a31461118c5780630d61b519146110a45780631703a01814611086578063215809ca146110685780632ab09d141461104a57806333fdceb4146110035780634385963214610fb65780635c4085a114610f105780636b3ce24b1461085c578063715018a614610eb7578063740a03d914610e725780637a5e3a26146108a45780637eba55731461085c5780638da5cb5b14610833578063943e8216146105d7578063a64e024a146105b9578063b58131b01461059b578063c1ba4e591461052e578063c7f758a81461037f578063e0a8f6f514610291578063ea0217cf1461020d578063ece40cc1146101b95763f2fde38b1461012457600080fd5b346101b45760203660031901126101b4576004356001600160a01b03818116918290036101b4576101536114e9565b811561019b57600054826bffffffffffffffffffffffff60a01b821617600055167f8be0079c531659141344cd1fd0a4f28419497f9722a3daafe3b4186f6b6457e0600080a3005b604051631e4fbdf760e01b815260006004820152602490fd5b600080fd5b346101b45760203660031901126101b4577fe92242fc3efcad407a677132b517977331a6e5b65abab69fd757cc02e99c9c4e60406004356101f86114e9565b600354908060035582519182526020820152a1005b346101b45760203660031901126101b4576004356102296114e9565b6201518081108015610285575b6102735760407fffc708f072ca56e3d45ef0cb288b96cb9378f5f63e1646868bfbc9c38f4263a191600454908060045582519182526020820152a1005b60405163332c616d60e21b8152600490fd5b5062278d008111610236565b346101b45760203660031901126101b457600435806000526006602052604060002060078101541561036d57600981019081549060ff821661035b5760ff8260081c166103495760020154336001600160a01b039182161415908161033a575b506103285761ff0019166101001790557f416e669c63d9a3a5e36ee7cc7e2104b8db28ccd286aa18966e98fa230c73b08c600080a2005b6040516304393e9d60e01b8152600490fd5b905060005416331415846102f1565b6040516309497d1960e41b8152600490fd5b6040516351618d5360e01b8152600490fd5b60405163635e873760e01b8152600490fd5b346101b45760203660031901126101b45760006101406040516103a1816112bd565b828152826020820152826040820152606080820152606060808201528260a08201528260c08201528260e0820152826101008201528261012082015201526004356000526006602052604060002060ff600960405192610400846112bd565b805484526001810154602085015260028101546001600160a01b0316604085015261042d600382016112fc565b606085015261043e600482016112fc565b6080850152600581015460a0850152600681015460c0850152600781015460e085015260088101546101008501520154818116151561012084015260081c161515610140820152604051809160208252805160208301526020810151604083015260018060a01b03604082015116606083015260608101516101406104ea6104d4610160938460808801526101808701906113a1565b6080850151868203601f190160a08801526113a1565b9260a081015160c086015260c081015160e086015260e081015161010086015261010081015161012086015261012081015115158286015201511515908301520390f35b346101b45760203660031901126101b45760043561054a6114e9565b80156105895760407f6784e9bcb845caaa98267d7b0918f97d3d17f7cb35a05b52010f7eb587a0acb091600554908060055582519182526020820152a1005b60405163d173577960e01b8152600490fd5b346101b45760003660031901126101b4576020600354604051908152f35b346101b45760003660031901126101b457602060405162278d008152f35b346101b45760403660031901126101b45760243560043560028210156101b4576105ff6114c6565b806000526020600681526040600020906007820154801561036d5760ff600984015460081c166103495742108015610826575b610814578260005260088152604060002033600052815260ff6040600020541661080257600182015460405163a6ff834360e01b815260048101919091526001600160a01b03929082816024817f000000000000000000000000000000000000000000000000000000000000000088165afa80156107c95783916000916107d5575b506024604051809681936370a0823160e01b8352336004840152165afa9283156107c95760009361079a575b50821561078857836000526008825260406000203360005282526040600020600160ff19825416179055836000526009825260406000203360005282528260406000205584156000146107735760050161073b838254611453565b90555b6040519384528301527f2635c84c3a8027a303ca6d6e90b1c4a9604754040372414d244aadfa6471751860403393a360018055005b600601610781838254611453565b905561073e565b604051631f05dadd60e21b8152600490fd5b9092508181813d83116107c2575b6107b281836112da565b810103126101b4575191856106e0565b503d6107a8565b6040513d6000823e3d90fd5b6107f59150823d84116107fb575b6107ed81836112da565b810190611460565b876106b4565b503d6107e3565b604051637c9a1cf960e01b8152600490fd5b604051639b8cc47560e01b8152600490fd5b5060088201544211610632565b346101b45760003660031901126101b4576000546040516001600160a01b039091168152602090f35b346101b45760403660031901126101b45761087561140f565b600435600052600960205260406000209060018060a01b03166000526020526020604060002054604051908152f35b346101b45760603660031901126101b45760243567ffffffffffffffff81116101b4576108d5903690600401611425565b60443567ffffffffffffffff81116101b4576108f5903690600401611425565b906108fe6114c6565b8215610e605760405163a6ff834360e01b815260048035908201526020816024817f00000000000000000000000000000000000000000000000000000000000000006001600160a01b03165afa9081156107c957600091610e41575b506001600160a01b03168015610e2f576020602491604051928380926370a0823160e01b82523360048301525afa9081156107c957600091610dfd575b5060035411610dec57600254916000198314610dd657600183016002556109f96109c360045442611453565b92604051926109d1846112bd565b85845260043560208501523360408501526109ed36888a61147f565b6060850152369161147f565b6080820152600060a0820152600060c08201524260e08201528161010082015260006101208201526000610140820152826000526006602052604060002081518155602082015160018201556002810160018060a01b036040840151166bffffffffffffffffffffffff60a01b825416179055606082015180519067ffffffffffffffff8211610c2b578190610a926003850154611283565b601f8111610d83575b50602090601f8311600114610d1157600092610d06575b50508160011b916000199060031b1c19161760038201555b608082015180519067ffffffffffffffff8211610c2b57610aee6004840154611283565b601f8111610cbf575b50602090601f8311600114610c4c57600993929160009183610c41575b50508160011b916000199060031b1c19161760048201555b60a0830151600582015560c0830151600682015560e083015160078201556101008301516008820155019061012081015115159060ff61ff006101408554930151151560081b1692169061ffff19161717905560043560005260076020526040600020805468010000000000000000811015610c2b57610bb1916001820181556113e1565b81549060031b9084821b91600019901b1916179055826040519460608652816060870152608086013760006080848601015242602085015260408401527f91cd141dc574dfee2c311e9baca814fbcbf5c7fe4daf2819c3224f1fd6be4e63339360808160043595601f80199101168101030190a460018055005b634e487b7160e01b600052604160045260246000fd5b015190508980610b14565b906004840160005260206000209160005b601f1985168110610ca7575091839160019360099695601f19811610610c8e575b505050811b016004820155610b2c565b015160001960f88460031b161c19169055898080610c7e565b91926020600181928685015181550194019201610c5d565b600484016000526020600020601f840160051c810160208510610cff575b601f830160051c82018110610cf3575050610af7565b60008155600101610cdd565b5080610cdd565b015190508880610ab2565b9250600384016000526020600020906000935b601f1984168510610d68576001945083601f19811610610d4f575b505050811b016003820155610aca565b015160001960f88460031b161c19169055888080610d3f565b81810151835560209485019460019093019290910190610d24565b909150600384016000526020600020601f840160051c810160208510610dcf575b90849392915b601f830160051c82018110610dc0575050610a9b565b60008155859450600101610daa565b5080610da4565b634e487b7160e01b600052601160045260246000fd5b604051620d228160e21b8152600490fd5b90506020813d602011610e27575b81610e18602093836112da565b810103126101b4575185610997565b3d9150610e0b565b604051630a39915d60e21b8152600490fd5b610e5a915060203d6020116107fb576107ed81836112da565b8561095a565b6040516352ddcdef60e11b8152600490fd5b346101b45760003660031901126101b4576040517f00000000000000000000000000000000000000000000000000000000000000006001600160a01b03168152602090f35b346101b45760003660031901126101b457610ed06114e9565b600080546001600160a01b0319811682556001600160a01b03167f8be0079c531659141344cd1fd0a4f28419497f9722a3daafe3b4186f6b6457e08280a3005b346101b4576020806003193601126101b45760043560005260078152604060002060405190818382549182815201908192600052846000209060005b86828210610fa2578686610f62828803836112da565b604051928392818401908285525180915260408401929160005b828110610f8b57505050500390f35b835185528695509381019392810192600101610f7c565b835485529093019260019283019201610f4c565b346101b45760403660031901126101b457610fcf61140f565b600435600052600860205260406000209060018060a01b0316600052602052602060ff604060002054166040519015158152f35b346101b45760403660031901126101b4576024356004356000526007602052604060002080548210156101b45760209161103c916113e1565b90546040519160031b1c8152f35b346101b45760003660031901126101b4576020600254604051908152f35b346101b45760003660031901126101b4576020604051620151808152f35b346101b45760003660031901126101b4576020600554604051908152f35b346101b45760203660031901126101b4576004356110c06114c6565b806000526006602052604060002060078101541561036d57600981019081549060ff821661035b5760ff8260081c1661034957600881015442111561117a5760066005820154910154906111148282611453565b600554116111685711156111565760ff191660011790557f712ae1383f79ac853f8d882153778e0260ef8f03b504e2866e0593e04d2b291f600080a260018055005b60405163c8c93ba360e01b8152600490fd5b60405163aa26a69360e01b8152600490fd5b604051633fc30bd160e11b8152600490fd5b346101b45760003660031901126101b4576020600454604051908152f35b346101b45760203660031901126101b457600435600052600660205260406000206020815460ff60018401549360018060a01b03600282015416906111f1600382016112fc565b936111fe600483016112fc565b9461125260058401549661124460068601549360078701549560096008890154980154986040519d8e9d8e610160948152015260408d01528060608d01528b01906113a1565b9089820360808b01526113a1565b9560a088015260c087015260e0860152610100850152818116151561012085015260081c1615156101408301520390f35b90600182811c921680156112b3575b602083101461129d57565b634e487b7160e01b600052602260045260246000fd5b91607f1691611292565b610160810190811067ffffffffffffffff821117610c2b57604052565b90601f8019910116810190811067ffffffffffffffff821117610c2b57604052565b9060405191826000825461130f81611283565b9081845260209460019160018116908160001461137f5750600114611340575b50505061133e925003836112da565b565b600090815285812095935091905b81831061136757505061133e935082010138808061132f565b8554888401850152948501948794509183019161134e565b9250505061133e94925060ff191682840152151560051b82010138808061132f565b919082519283825260005b8481106113cd575050826000602080949584010152601f8019910116010190565b6020818301810151848301820152016113ac565b80548210156113f95760005260206000200190600090565b634e487b7160e01b600052603260045260246000fd5b602435906001600160a01b03821682036101b457565b9181601f840112156101b45782359167ffffffffffffffff83116101b457602083818601950101116101b457565b91908201809211610dd657565b908160209103126101b457516001600160a01b03811681036101b45790565b92919267ffffffffffffffff8211610c2b57604051916114a9601f8201601f1916602001846112da565b8294818452818301116101b4578281602093846000960137010152565b6002600154146114d7576002600155565b604051633ee5aeb560e01b8152600490fd5b6000546001600160a01b031633036114fd57565b60405163118cdaa760e01b8152336004820152602490fdfea2646970667358221220df4f135b665ed737c9a5ec7f2d34dede09b6390665f4ce8378837f0ceb2d55e064736f6c63430008180033","opcodes":"PUSH1 0xA0 CALLVALUE PUSH2 0x115 JUMPI PUSH1 0x1F PUSH2 0x1690 CODESIZE DUP2 SWAP1 SUB SWAP2 DUP3 ADD PUSH1 0x1F NOT AND DUP4 ADD SWAP2 PUSH1 0x1 PUSH1 0x1 PUSH1 0x40 SHL SUB DUP4 GT DUP5 DUP5 LT OR PUSH2 0x11A JUMPI DUP1 DUP5 SWAP3 PUSH1 0x40 SWAP5 DUP6 MSTORE DUP4 CODECOPY DUP2 ADD SUB SLT PUSH2 0x115 JUMPI PUSH1 0x20 PUSH2 0x48 DUP3 PUSH2 0x130 JUMP JUMPDEST SWAP2 PUSH1 0x1 PUSH1 0x1 PUSH1 0xA0 SHL SUB SWAP2 DUP3 SWAP2 PUSH2 0x5E SWAP2 ADD PUSH2 0x130 JUMP JUMPDEST AND SWAP2 DUP3 ISZERO PUSH2 0xFC JUMPI PUSH1 0x0 DUP1 SLOAD PUSH1 0x1 PUSH1 0x1 PUSH1 0xA0 SHL SUB NOT DUP2 AND DUP6 OR DUP3 SSTORE PUSH1 0x40 MLOAD SWAP5 SWAP2 SWAP1 DUP5 AND SWAP1 PUSH32 0x8BE0079C531659141344CD1FD0A4F28419497F9722A3DAAFE3B4186F6B6457E0 SWAP1 DUP1 LOG3 PUSH1 0x1 DUP1 SSTORE PUSH1 0xA PUSH1 0x3 SSTORE PUSH3 0x93A80 PUSH1 0x4 SSTORE PUSH1 0xC8 PUSH1 0x5 SSTORE AND SWAP1 DUP2 ISZERO PUSH2 0xED JUMPI POP PUSH1 0x80 MSTORE PUSH1 0x40 MLOAD PUSH2 0x154B SWAP1 DUP2 PUSH2 0x145 DUP3 CODECOPY PUSH1 0x80 MLOAD DUP2 DUP2 DUP2 PUSH2 0x681 ADD MSTORE DUP2 DUP2 PUSH2 0x921 ADD MSTORE PUSH2 0xE88 ADD MSTORE RETURN JUMPDEST PUSH4 0xE6C4247B PUSH1 0xE0 SHL DUP2 MSTORE PUSH1 0x4 SWAP1 REVERT JUMPDEST PUSH1 0x40 MLOAD PUSH4 0x1E4FBDF7 PUSH1 0xE0 SHL DUP2 MSTORE PUSH1 0x0 PUSH1 0x4 DUP3 ADD MSTORE PUSH1 0x24 SWAP1 REVERT JUMPDEST PUSH1 0x0 DUP1 REVERT JUMPDEST PUSH4 0x4E487B71 PUSH1 0xE0 SHL PUSH1 0x0 MSTORE PUSH1 0x41 PUSH1 0x4 MSTORE PUSH1 0x24 PUSH1 0x0 REVERT JUMPDEST MLOAD SWAP1 PUSH1 0x1 PUSH1 0x1 PUSH1 0xA0 SHL SUB DUP3 AND DUP3 SUB PUSH2 0x115 JUMPI JUMP INVALID PUSH1 0x80 PUSH1 0x40 MSTORE PUSH1 0x4 CALLDATASIZE LT ISZERO PUSH2 0x12 JUMPI PUSH1 0x0 DUP1 REVERT JUMPDEST PUSH1 0x0 CALLDATALOAD PUSH1 0xE0 SHR DUP1 PUSH4 0x13CF08B EQ PUSH2 0x11AA JUMPI DUP1 PUSH4 0x2A251A3 EQ PUSH2 0x118C JUMPI DUP1 PUSH4 0xD61B519 EQ PUSH2 0x10A4 JUMPI DUP1 PUSH4 0x1703A018 EQ PUSH2 0x1086 JUMPI DUP1 PUSH4 0x215809CA EQ PUSH2 0x1068 JUMPI DUP1 PUSH4 0x2AB09D14 EQ PUSH2 0x104A JUMPI DUP1 PUSH4 0x33FDCEB4 EQ PUSH2 0x1003 JUMPI DUP1 PUSH4 0x43859632 EQ PUSH2 0xFB6 JUMPI DUP1 PUSH4 0x5C4085A1 EQ PUSH2 0xF10 JUMPI DUP1 PUSH4 0x6B3CE24B EQ PUSH2 0x85C JUMPI DUP1 PUSH4 0x715018A6 EQ PUSH2 0xEB7 JUMPI DUP1 PUSH4 0x740A03D9 EQ PUSH2 0xE72 JUMPI DUP1 PUSH4 0x7A5E3A26 EQ PUSH2 0x8A4 JUMPI DUP1 PUSH4 0x7EBA5573 EQ PUSH2 0x85C JUMPI DUP1 PUSH4 0x8DA5CB5B EQ PUSH2 0x833 JUMPI DUP1 PUSH4 0x943E8216 EQ PUSH2 0x5D7 JUMPI DUP1 PUSH4 0xA64E024A EQ PUSH2 0x5B9 JUMPI DUP1 PUSH4 0xB58131B0 EQ PUSH2 0x59B JUMPI DUP1 PUSH4 0xC1BA4E59 EQ PUSH2 0x52E JUMPI DUP1 PUSH4 0xC7F758A8 EQ PUSH2 0x37F JUMPI DUP1 PUSH4 0xE0A8F6F5 EQ PUSH2 0x291 JUMPI DUP1 PUSH4 0xEA0217CF EQ PUSH2 0x20D JUMPI DUP1 PUSH4 0xECE40CC1 EQ PUSH2 0x1B9 JUMPI PUSH4 0xF2FDE38B EQ PUSH2 0x124 JUMPI PUSH1 0x0 DUP1 REVERT JUMPDEST CALLVALUE PUSH2 0x1B4 JUMPI PUSH1 0x20 CALLDATASIZE PUSH1 0x3 NOT ADD SLT PUSH2 0x1B4 JUMPI PUSH1 0x4 CALLDATALOAD PUSH1 0x1 PUSH1 0x1 PUSH1 0xA0 SHL SUB DUP2 DUP2 AND SWAP2 DUP3 SWAP1 SUB PUSH2 0x1B4 JUMPI PUSH2 0x153 PUSH2 0x14E9 JUMP JUMPDEST DUP2 ISZERO PUSH2 0x19B JUMPI PUSH1 0x0 SLOAD DUP3 PUSH12 0xFFFFFFFFFFFFFFFFFFFFFFFF PUSH1 0xA0 SHL DUP3 AND OR PUSH1 0x0 SSTORE AND PUSH32 0x8BE0079C531659141344CD1FD0A4F28419497F9722A3DAAFE3B4186F6B6457E0 PUSH1 0x0 DUP1 LOG3 STOP JUMPDEST PUSH1 0x40 MLOAD PUSH4 0x1E4FBDF7 PUSH1 0xE0 SHL DUP2 MSTORE PUSH1 0x0 PUSH1 0x4 DUP3 ADD MSTORE PUSH1 0x24 SWAP1 REVERT JUMPDEST PUSH1 0x0 DUP1 REVERT JUMPDEST CALLVALUE PUSH2 0x1B4 JUMPI PUSH1 0x20 CALLDATASIZE PUSH1 0x3 NOT ADD SLT PUSH2 0x1B4 JUMPI PUSH32 0xE92242FC3EFCAD407A677132B517977331A6E5B65ABAB69FD757CC02E99C9C4E PUSH1 0x40 PUSH1 0x4 CALLDATALOAD PUSH2 0x1F8 PUSH2 0x14E9 JUMP JUMPDEST PUSH1 0x3 SLOAD SWAP1 DUP1 PUSH1 0x3 SSTORE DUP3 MLOAD SWAP2 DUP3 MSTORE PUSH1 0x20 DUP3 ADD MSTORE LOG1 STOP JUMPDEST CALLVALUE PUSH2 0x1B4 JUMPI PUSH1 0x20 CALLDATASIZE PUSH1 0x3 NOT ADD SLT PUSH2 0x1B4 JUMPI PUSH1 0x4 CALLDATALOAD PUSH2 0x229 PUSH2 0x14E9 JUMP JUMPDEST PUSH3 0x15180 DUP2 LT DUP1 ISZERO PUSH2 0x285 JUMPI JUMPDEST PUSH2 0x273 JUMPI PUSH1 0x40 PUSH32 0xFFC708F072CA56E3D45EF0CB288B96CB9378F5F63E1646868BFBC9C38F4263A1 SWAP2 PUSH1 0x4 SLOAD SWAP1 DUP1 PUSH1 0x4 SSTORE DUP3 MLOAD SWAP2 DUP3 MSTORE PUSH1 0x20 DUP3 ADD MSTORE LOG1 STOP JUMPDEST PUSH1 0x40 MLOAD PUSH4 0x332C616D PUSH1 0xE2 SHL DUP2 MSTORE PUSH1 0x4 SWAP1 REVERT JUMPDEST POP PUSH3 0x278D00 DUP2 GT PUSH2 0x236 JUMP JUMPDEST CALLVALUE PUSH2 0x1B4 JUMPI PUSH1 0x20 CALLDATASIZE PUSH1 0x3 NOT ADD SLT PUSH2 0x1B4 JUMPI PUSH1 0x4 CALLDATALOAD DUP1 PUSH1 0x0 MSTORE PUSH1 0x6 PUSH1 0x20 MSTORE PUSH1 0x40 PUSH1 0x0 KECCAK256 PUSH1 0x7 DUP2 ADD SLOAD ISZERO PUSH2 0x36D JUMPI PUSH1 0x9 DUP2 ADD SWAP1 DUP2 SLOAD SWAP1 PUSH1 0xFF DUP3 AND PUSH2 0x35B JUMPI PUSH1 0xFF DUP3 PUSH1 0x8 SHR AND PUSH2 0x349 JUMPI PUSH1 0x2 ADD SLOAD CALLER PUSH1 0x1 PUSH1 0x1 PUSH1 0xA0 SHL SUB SWAP2 DUP3 AND EQ ISZERO SWAP1 DUP2 PUSH2 0x33A JUMPI JUMPDEST POP PUSH2 0x328 JUMPI PUSH2 0xFF00 NOT AND PUSH2 0x100 OR SWAP1 SSTORE PUSH32 0x416E669C63D9A3A5E36EE7CC7E2104B8DB28CCD286AA18966E98FA230C73B08C PUSH1 0x0 DUP1 LOG2 STOP JUMPDEST PUSH1 0x40 MLOAD PUSH4 0x4393E9D PUSH1 0xE0 SHL DUP2 MSTORE PUSH1 0x4 SWAP1 REVERT JUMPDEST SWAP1 POP PUSH1 0x0 SLOAD AND CALLER EQ ISZERO DUP5 PUSH2 0x2F1 JUMP JUMPDEST PUSH1 0x40 MLOAD PUSH4 0x9497D19 PUSH1 0xE4 SHL DUP2 MSTORE PUSH1 0x4 SWAP1 REVERT JUMPDEST PUSH1 0x40 MLOAD PUSH4 0x51618D53 PUSH1 0xE0 SHL DUP2 MSTORE PUSH1 0x4 SWAP1 REVERT JUMPDEST PUSH1 0x40 MLOAD PUSH4 0x635E8737 PUSH1 0xE0 SHL DUP2 MSTORE PUSH1 0x4 SWAP1 REVERT JUMPDEST CALLVALUE PUSH2 0x1B4 JUMPI PUSH1 0x20 CALLDATASIZE PUSH1 0x3 NOT ADD SLT PUSH2 0x1B4 JUMPI PUSH1 0x0 PUSH2 0x140 PUSH1 0x40 MLOAD PUSH2 0x3A1 DUP2 PUSH2 0x12BD JUMP JUMPDEST DUP3 DUP2 MSTORE DUP3 PUSH1 0x20 DUP3 ADD MSTORE DUP3 PUSH1 0x40 DUP3 ADD MSTORE PUSH1 0x60 DUP1 DUP3 ADD MSTORE PUSH1 0x60 PUSH1 0x80 DUP3 ADD MSTORE DUP3 PUSH1 0xA0 DUP3 ADD MSTORE DUP3 PUSH1 0xC0 DUP3 ADD MSTORE DUP3 PUSH1 0xE0 DUP3 ADD MSTORE DUP3 PUSH2 0x100 DUP3 ADD MSTORE DUP3 PUSH2 0x120 DUP3 ADD MSTORE ADD MSTORE PUSH1 0x4 CALLDATALOAD PUSH1 0x0 MSTORE PUSH1 0x6 PUSH1 0x20 MSTORE PUSH1 0x40 PUSH1 0x0 KECCAK256 PUSH1 0xFF PUSH1 0x9 PUSH1 0x40 MLOAD SWAP3 PUSH2 0x400 DUP5 PUSH2 0x12BD JUMP JUMPDEST DUP1 SLOAD DUP5 MSTORE PUSH1 0x1 DUP2 ADD SLOAD PUSH1 0x20 DUP6 ADD MSTORE PUSH1 0x2 DUP2 ADD SLOAD PUSH1 0x1 PUSH1 0x1 PUSH1 0xA0 SHL SUB AND PUSH1 0x40 DUP6 ADD MSTORE PUSH2 0x42D PUSH1 0x3 DUP3 ADD PUSH2 0x12FC JUMP JUMPDEST PUSH1 0x60 DUP6 ADD MSTORE PUSH2 0x43E PUSH1 0x4 DUP3 ADD PUSH2 0x12FC JUMP JUMPDEST PUSH1 0x80 DUP6 ADD MSTORE PUSH1 0x5 DUP2 ADD SLOAD PUSH1 0xA0 DUP6 ADD MSTORE PUSH1 0x6 DUP2 ADD SLOAD PUSH1 0xC0 DUP6 ADD MSTORE PUSH1 0x7 DUP2 ADD SLOAD PUSH1 0xE0 DUP6 ADD MSTORE PUSH1 0x8 DUP2 ADD SLOAD PUSH2 0x100 DUP6 ADD MSTORE ADD SLOAD DUP2 DUP2 AND ISZERO ISZERO PUSH2 0x120 DUP5 ADD MSTORE PUSH1 0x8 SHR AND ISZERO ISZERO PUSH2 0x140 DUP3 ADD MSTORE PUSH1 0x40 MLOAD DUP1 SWAP2 PUSH1 0x20 DUP3 MSTORE DUP1 MLOAD PUSH1 0x20 DUP4 ADD MSTORE PUSH1 0x20 DUP2 ADD MLOAD PUSH1 0x40 DUP4 ADD MSTORE PUSH1 0x1 DUP1 PUSH1 0xA0 SHL SUB PUSH1 0x40 DUP3 ADD MLOAD AND PUSH1 0x60 DUP4 ADD MSTORE PUSH1 0x60 DUP2 ADD MLOAD PUSH2 0x140 PUSH2 0x4EA PUSH2 0x4D4 PUSH2 0x160 SWAP4 DUP5 PUSH1 0x80 DUP9 ADD MSTORE PUSH2 0x180 DUP8 ADD SWAP1 PUSH2 0x13A1 JUMP JUMPDEST PUSH1 0x80 DUP6 ADD MLOAD DUP7 DUP3 SUB PUSH1 0x1F NOT ADD PUSH1 0xA0 DUP9 ADD MSTORE PUSH2 0x13A1 JUMP JUMPDEST SWAP3 PUSH1 0xA0 DUP2 ADD MLOAD PUSH1 0xC0 DUP7 ADD MSTORE PUSH1 0xC0 DUP2 ADD MLOAD PUSH1 0xE0 DUP7 ADD MSTORE PUSH1 0xE0 DUP2 ADD MLOAD PUSH2 0x100 DUP7 ADD MSTORE PUSH2 0x100 DUP2 ADD MLOAD PUSH2 0x120 DUP7 ADD MSTORE PUSH2 0x120 DUP2 ADD MLOAD ISZERO ISZERO DUP3 DUP7 ADD MSTORE ADD MLOAD ISZERO ISZERO SWAP1 DUP4 ADD MSTORE SUB SWAP1 RETURN JUMPDEST CALLVALUE PUSH2 0x1B4 JUMPI PUSH1 0x20 CALLDATASIZE PUSH1 0x3 NOT ADD SLT PUSH2 0x1B4 JUMPI PUSH1 0x4 CALLDATALOAD PUSH2 0x54A PUSH2 0x14E9 JUMP JUMPDEST DUP1 ISZERO PUSH2 0x589 JUMPI PUSH1 0x40 PUSH32 0x6784E9BCB845CAAA98267D7B0918F97D3D17F7CB35A05B52010F7EB587A0ACB0 SWAP2 PUSH1 0x5 SLOAD SWAP1 DUP1 PUSH1 0x5 SSTORE DUP3 MLOAD SWAP2 DUP3 MSTORE PUSH1 0x20 DUP3 ADD MSTORE LOG1 STOP JUMPDEST PUSH1 0x40 MLOAD PUSH4 0xD1735779 PUSH1 0xE0 SHL DUP2 MSTORE PUSH1 0x4 SWAP1 REVERT JUMPDEST CALLVALUE PUSH2 0x1B4 JUMPI PUSH1 0x0 CALLDATASIZE PUSH1 0x3 NOT ADD SLT PUSH2 0x1B4 JUMPI PUSH1 0x20 PUSH1 0x3 SLOAD PUSH1 0x40 MLOAD SWAP1 DUP2 MSTORE RETURN JUMPDEST CALLVALUE PUSH2 0x1B4 JUMPI PUSH1 0x0 CALLDATASIZE PUSH1 0x3 NOT ADD SLT PUSH2 0x1B4 JUMPI PUSH1 0x20 PUSH1 0x40 MLOAD PUSH3 0x278D00 DUP2 MSTORE RETURN JUMPDEST CALLVALUE PUSH2 0x1B4 JUMPI PUSH1 0x40 CALLDATASIZE PUSH1 0x3 NOT ADD SLT PUSH2 0x1B4 JUMPI PUSH1 0x24 CALLDATALOAD PUSH1 0x4 CALLDATALOAD PUSH1 0x2 DUP3 LT ISZERO PUSH2 0x1B4 JUMPI PUSH2 0x5FF PUSH2 0x14C6 JUMP JUMPDEST DUP1 PUSH1 0x0 MSTORE PUSH1 0x20 PUSH1 0x6 DUP2 MSTORE PUSH1 0x40 PUSH1 0x0 KECCAK256 SWAP1 PUSH1 0x7 DUP3 ADD SLOAD DUP1 ISZERO PUSH2 0x36D JUMPI PUSH1 0xFF PUSH1 0x9 DUP5 ADD SLOAD PUSH1 0x8 SHR AND PUSH2 0x349 JUMPI TIMESTAMP LT DUP1 ISZERO PUSH2 0x826 JUMPI JUMPDEST PUSH2 0x814 JUMPI DUP3 PUSH1 0x0 MSTORE PUSH1 0x8 DUP2 MSTORE PUSH1 0x40 PUSH1 0x0 KECCAK256 CALLER PUSH1 0x0 MSTORE DUP2 MSTORE PUSH1 0xFF PUSH1 0x40 PUSH1 0x0 KECCAK256 SLOAD AND PUSH2 0x802 JUMPI PUSH1 0x1 DUP3 ADD SLOAD PUSH1 0x40 MLOAD PUSH4 0xA6FF8343 PUSH1 0xE0 SHL DUP2 MSTORE PUSH1 0x4 DUP2 ADD SWAP2 SWAP1 SWAP2 MSTORE PUSH1 0x1 PUSH1 0x1 PUSH1 0xA0 SHL SUB SWAP3 SWAP1 DUP3 DUP2 PUSH1 0x24 DUP2 PUSH32 0x0 DUP9 AND GAS STATICCALL DUP1 ISZERO PUSH2 0x7C9 JUMPI DUP4 SWAP2 PUSH1 0x0 SWAP2 PUSH2 0x7D5 JUMPI JUMPDEST POP PUSH1 0x24 PUSH1 0x40 MLOAD DUP1 SWAP7 DUP2 SWAP4 PUSH4 0x70A08231 PUSH1 0xE0 SHL DUP4 MSTORE CALLER PUSH1 0x4 DUP5 ADD MSTORE AND GAS STATICCALL SWAP3 DUP4 ISZERO PUSH2 0x7C9 JUMPI PUSH1 0x0 SWAP4 PUSH2 0x79A JUMPI JUMPDEST POP DUP3 ISZERO PUSH2 0x788 JUMPI DUP4 PUSH1 0x0 MSTORE PUSH1 0x8 DUP3 MSTORE PUSH1 0x40 PUSH1 0x0 KECCAK256 CALLER PUSH1 0x0 MSTORE DUP3 MSTORE PUSH1 0x40 PUSH1 0x0 KECCAK256 PUSH1 0x1 PUSH1 0xFF NOT DUP3 SLOAD AND OR SWAP1 SSTORE DUP4 PUSH1 0x0 MSTORE PUSH1 0x9 DUP3 MSTORE PUSH1 0x40 PUSH1 0x0 KECCAK256 CALLER PUSH1 0x0 MSTORE DUP3 MSTORE DUP3 PUSH1 0x40 PUSH1 0x0 KECCAK256 SSTORE DUP5 ISZERO PUSH1 0x0 EQ PUSH2 0x773 JUMPI PUSH1 0x5 ADD PUSH2 0x73B DUP4 DUP3 SLOAD PUSH2 0x1453 JUMP JUMPDEST SWAP1 SSTORE JUMPDEST PUSH1 0x40 MLOAD SWAP4 DUP5 MSTORE DUP4 ADD MSTORE PUSH32 0x2635C84C3A8027A303CA6D6E90B1C4A9604754040372414D244AADFA64717518 PUSH1 0x40 CALLER SWAP4 LOG3 PUSH1 0x1 DUP1 SSTORE STOP JUMPDEST PUSH1 0x6 ADD PUSH2 0x781 DUP4 DUP3 SLOAD PUSH2 0x1453 JUMP JUMPDEST SWAP1 SSTORE PUSH2 0x73E JUMP JUMPDEST PUSH1 0x40 MLOAD PUSH4 0x1F05DADD PUSH1 0xE2 SHL DUP2 MSTORE PUSH1 0x4 SWAP1 REVERT JUMPDEST SWAP1 SWAP3 POP DUP2 DUP2 DUP2 RETURNDATASIZE DUP4 GT PUSH2 0x7C2 JUMPI JUMPDEST PUSH2 0x7B2 DUP2 DUP4 PUSH2 0x12DA JUMP JUMPDEST DUP2 ADD SUB SLT PUSH2 0x1B4 JUMPI MLOAD SWAP2 DUP6 PUSH2 0x6E0 JUMP JUMPDEST POP RETURNDATASIZE PUSH2 0x7A8 JUMP JUMPDEST PUSH1 0x40 MLOAD RETURNDATASIZE PUSH1 0x0 DUP3 RETURNDATACOPY RETURNDATASIZE SWAP1 REVERT JUMPDEST PUSH2 0x7F5 SWAP2 POP DUP3 RETURNDATASIZE DUP5 GT PUSH2 0x7FB JUMPI JUMPDEST PUSH2 0x7ED DUP2 DUP4 PUSH2 0x12DA JUMP JUMPDEST DUP2 ADD SWAP1 PUSH2 0x1460 JUMP JUMPDEST DUP8 PUSH2 0x6B4 JUMP JUMPDEST POP RETURNDATASIZE PUSH2 0x7E3 JUMP JUMPDEST PUSH1 0x40 MLOAD PUSH4 0x7C9A1CF9 PUSH1 0xE0 SHL DUP2 MSTORE PUSH1 0x4 SWAP1 REVERT JUMPDEST PUSH1 0x40 MLOAD PUSH4 0x9B8CC475 PUSH1 0xE0 SHL DUP2 MSTORE PUSH1 0x4 SWAP1 REVERT JUMPDEST POP PUSH1 0x8 DUP3 ADD SLOAD TIMESTAMP GT PUSH2 0x632 JUMP JUMPDEST CALLVALUE PUSH2 0x1B4 JUMPI PUSH1 0x0 CALLDATASIZE PUSH1 0x3 NOT ADD SLT PUSH2 0x1B4 JUMPI PUSH1 0x0 SLOAD PUSH1 0x40 MLOAD PUSH1 0x1 PUSH1 0x1 PUSH1 0xA0 SHL SUB SWAP1 SWAP2 AND DUP2 MSTORE PUSH1 0x20 SWAP1 RETURN JUMPDEST CALLVALUE PUSH2 0x1B4 JUMPI PUSH1 0x40 CALLDATASIZE PUSH1 0x3 NOT ADD SLT PUSH2 0x1B4 JUMPI PUSH2 0x875 PUSH2 0x140F JUMP JUMPDEST PUSH1 0x4 CALLDATALOAD PUSH1 0x0 MSTORE PUSH1 0x9 PUSH1 0x20 MSTORE PUSH1 0x40 PUSH1 0x0 KECCAK256 SWAP1 PUSH1 0x1 DUP1 PUSH1 0xA0 SHL SUB AND PUSH1 0x0 MSTORE PUSH1 0x20 MSTORE PUSH1 0x20 PUSH1 0x40 PUSH1 0x0 KECCAK256 SLOAD PUSH1 0x40 MLOAD SWAP1 DUP2 MSTORE RETURN JUMPDEST CALLVALUE PUSH2 0x1B4 JUMPI PUSH1 0x60 CALLDATASIZE PUSH1 0x3 NOT ADD SLT PUSH2 0x1B4 JUMPI PUSH1 0x24 CALLDATALOAD PUSH8 0xFFFFFFFFFFFFFFFF DUP2 GT PUSH2 0x1B4 JUMPI PUSH2 0x8D5 SWAP1 CALLDATASIZE SWAP1 PUSH1 0x4 ADD PUSH2 0x1425 JUMP JUMPDEST PUSH1 0x44 CALLDATALOAD PUSH8 0xFFFFFFFFFFFFFFFF DUP2 GT PUSH2 0x1B4 JUMPI PUSH2 0x8F5 SWAP1 CALLDATASIZE SWAP1 PUSH1 0x4 ADD PUSH2 0x1425 JUMP JUMPDEST SWAP1 PUSH2 0x8FE PUSH2 0x14C6 JUMP JUMPDEST DUP3 ISZERO PUSH2 0xE60 JUMPI PUSH1 0x40 MLOAD PUSH4 0xA6FF8343 PUSH1 0xE0 SHL DUP2 MSTORE PUSH1 0x4 DUP1 CALLDATALOAD SWAP1 DUP3 ADD MSTORE PUSH1 0x20 DUP2 PUSH1 0x24 DUP2 PUSH32 0x0 PUSH1 0x1 PUSH1 0x1 PUSH1 0xA0 SHL SUB AND GAS STATICCALL SWAP1 DUP2 ISZERO PUSH2 0x7C9 JUMPI PUSH1 0x0 SWAP2 PUSH2 0xE41 JUMPI JUMPDEST POP PUSH1 0x1 PUSH1 0x1 PUSH1 0xA0 SHL SUB AND DUP1 ISZERO PUSH2 0xE2F JUMPI PUSH1 0x20 PUSH1 0x24 SWAP2 PUSH1 0x40 MLOAD SWAP3 DUP4 DUP1 SWAP3 PUSH4 0x70A08231 PUSH1 0xE0 SHL DUP3 MSTORE CALLER PUSH1 0x4 DUP4 ADD MSTORE GAS STATICCALL SWAP1 DUP2 ISZERO PUSH2 0x7C9 JUMPI PUSH1 0x0 SWAP2 PUSH2 0xDFD JUMPI JUMPDEST POP PUSH1 0x3 SLOAD GT PUSH2 0xDEC JUMPI PUSH1 0x2 SLOAD SWAP2 PUSH1 0x0 NOT DUP4 EQ PUSH2 0xDD6 JUMPI PUSH1 0x1 DUP4 ADD PUSH1 0x2 SSTORE PUSH2 0x9F9 PUSH2 0x9C3 PUSH1 0x4 SLOAD TIMESTAMP PUSH2 0x1453 JUMP JUMPDEST SWAP3 PUSH1 0x40 MLOAD SWAP3 PUSH2 0x9D1 DUP5 PUSH2 0x12BD JUMP JUMPDEST DUP6 DUP5 MSTORE PUSH1 0x4 CALLDATALOAD PUSH1 0x20 DUP6 ADD MSTORE CALLER PUSH1 0x40 DUP6 ADD MSTORE PUSH2 0x9ED CALLDATASIZE DUP9 DUP11 PUSH2 0x147F JUMP JUMPDEST PUSH1 0x60 DUP6 ADD MSTORE CALLDATASIZE SWAP2 PUSH2 0x147F JUMP JUMPDEST PUSH1 0x80 DUP3 ADD MSTORE PUSH1 0x0 PUSH1 0xA0 DUP3 ADD MSTORE PUSH1 0x0 PUSH1 0xC0 DUP3 ADD MSTORE TIMESTAMP PUSH1 0xE0 DUP3 ADD MSTORE DUP2 PUSH2 0x100 DUP3 ADD MSTORE PUSH1 0x0 PUSH2 0x120 DUP3 ADD MSTORE PUSH1 0x0 PUSH2 0x140 DUP3 ADD MSTORE DUP3 PUSH1 0x0 MSTORE PUSH1 0x6 PUSH1 0x20 MSTORE PUSH1 0x40 PUSH1 0x0 KECCAK256 DUP2 MLOAD DUP2 SSTORE PUSH1 0x20 DUP3 ADD MLOAD PUSH1 0x1 DUP3 ADD SSTORE PUSH1 0x2 DUP2 ADD PUSH1 0x1 DUP1 PUSH1 0xA0 SHL SUB PUSH1 0x40 DUP5 ADD MLOAD AND PUSH12 0xFFFFFFFFFFFFFFFFFFFFFFFF PUSH1 0xA0 SHL DUP3 SLOAD AND OR SWAP1 SSTORE PUSH1 0x60 DUP3 ADD MLOAD DUP1 MLOAD SWAP1 PUSH8 0xFFFFFFFFFFFFFFFF DUP3 GT PUSH2 0xC2B JUMPI DUP2 SWAP1 PUSH2 0xA92 PUSH1 0x3 DUP6 ADD SLOAD PUSH2 0x1283 JUMP JUMPDEST PUSH1 0x1F DUP2 GT PUSH2 0xD83 JUMPI JUMPDEST POP PUSH1 0x20 SWAP1 PUSH1 0x1F DUP4 GT PUSH1 0x1 EQ PUSH2 0xD11 JUMPI PUSH1 0x0 SWAP3 PUSH2 0xD06 JUMPI JUMPDEST POP POP DUP2 PUSH1 0x1 SHL SWAP2 PUSH1 0x0 NOT SWAP1 PUSH1 0x3 SHL SHR NOT AND OR PUSH1 0x3 DUP3 ADD SSTORE JUMPDEST PUSH1 0x80 DUP3 ADD MLOAD DUP1 MLOAD SWAP1 PUSH8 0xFFFFFFFFFFFFFFFF DUP3 GT PUSH2 0xC2B JUMPI PUSH2 0xAEE PUSH1 0x4 DUP5 ADD SLOAD PUSH2 0x1283 JUMP JUMPDEST PUSH1 0x1F DUP2 GT PUSH2 0xCBF JUMPI JUMPDEST POP PUSH1 0x20 SWAP1 PUSH1 0x1F DUP4 GT PUSH1 0x1 EQ PUSH2 0xC4C JUMPI PUSH1 0x9 SWAP4 SWAP3 SWAP2 PUSH1 0x0 SWAP2 DUP4 PUSH2 0xC41 JUMPI JUMPDEST POP POP DUP2 PUSH1 0x1 SHL SWAP2 PUSH1 0x0 NOT SWAP1 PUSH1 0x3 SHL SHR NOT AND OR PUSH1 0x4 DUP3 ADD SSTORE JUMPDEST PUSH1 0xA0 DUP4 ADD MLOAD PUSH1 0x5 DUP3 ADD SSTORE PUSH1 0xC0 DUP4 ADD MLOAD PUSH1 0x6 DUP3 ADD SSTORE PUSH1 0xE0 DUP4 ADD MLOAD PUSH1 0x7 DUP3 ADD SSTORE PUSH2 0x100 DUP4 ADD MLOAD PUSH1 0x8 DUP3 ADD SSTORE ADD SWAP1 PUSH2 0x120 DUP2 ADD MLOAD ISZERO ISZERO SWAP1 PUSH1 0xFF PUSH2 0xFF00 PUSH2 0x140 DUP6 SLOAD SWAP4 ADD MLOAD ISZERO ISZERO PUSH1 0x8 SHL AND SWAP3 AND SWAP1 PUSH2 0xFFFF NOT AND OR OR SWAP1 SSTORE PUSH1 0x4 CALLDATALOAD PUSH1 0x0 MSTORE PUSH1 0x7 PUSH1 0x20 MSTORE PUSH1 0x40 PUSH1 0x0 KECCAK256 DUP1 SLOAD PUSH9 0x10000000000000000 DUP2 LT ISZERO PUSH2 0xC2B JUMPI PUSH2 0xBB1 SWAP2 PUSH1 0x1 DUP3 ADD DUP2 SSTORE PUSH2 0x13E1 JUMP JUMPDEST DUP2 SLOAD SWAP1 PUSH1 0x3 SHL SWAP1 DUP5 DUP3 SHL SWAP2 PUSH1 0x0 NOT SWAP1 SHL NOT AND OR SWAP1 SSTORE DUP3 PUSH1 0x40 MLOAD SWAP5 PUSH1 0x60 DUP7 MSTORE DUP2 PUSH1 0x60 DUP8 ADD MSTORE PUSH1 0x80 DUP7 ADD CALLDATACOPY PUSH1 0x0 PUSH1 0x80 DUP5 DUP7 ADD ADD MSTORE TIMESTAMP PUSH1 0x20 DUP6 ADD MSTORE PUSH1 0x40 DUP5 ADD MSTORE PUSH32 0x91CD141DC574DFEE2C311E9BACA814FBCBF5C7FE4DAF2819C3224F1FD6BE4E63 CALLER SWAP4 PUSH1 0x80 DUP2 PUSH1 0x4 CALLDATALOAD SWAP6 PUSH1 0x1F DUP1 NOT SWAP2 ADD AND DUP2 ADD SUB ADD SWAP1 LOG4 PUSH1 0x1 DUP1 SSTORE STOP JUMPDEST PUSH4 0x4E487B71 PUSH1 0xE0 SHL PUSH1 0x0 MSTORE PUSH1 0x41 PUSH1 0x4 MSTORE PUSH1 0x24 PUSH1 0x0 REVERT JUMPDEST ADD MLOAD SWAP1 POP DUP10 DUP1 PUSH2 0xB14 JUMP JUMPDEST SWAP1 PUSH1 0x4 DUP5 ADD PUSH1 0x0 MSTORE PUSH1 0x20 PUSH1 0x0 KECCAK256 SWAP2 PUSH1 0x0 JUMPDEST PUSH1 0x1F NOT DUP6 AND DUP2 LT PUSH2 0xCA7 JUMPI POP SWAP2 DUP4 SWAP2 PUSH1 0x1 SWAP4 PUSH1 0x9 SWAP7 SWAP6 PUSH1 0x1F NOT DUP2 AND LT PUSH2 0xC8E JUMPI JUMPDEST POP POP POP DUP2 SHL ADD PUSH1 0x4 DUP3 ADD SSTORE PUSH2 0xB2C JUMP JUMPDEST ADD MLOAD PUSH1 0x0 NOT PUSH1 0xF8 DUP5 PUSH1 0x3 SHL AND SHR NOT AND SWAP1 SSTORE DUP10 DUP1 DUP1 PUSH2 0xC7E JUMP JUMPDEST SWAP2 SWAP3 PUSH1 0x20 PUSH1 0x1 DUP2 SWAP3 DUP7 DUP6 ADD MLOAD DUP2 SSTORE ADD SWAP5 ADD SWAP3 ADD PUSH2 0xC5D JUMP JUMPDEST PUSH1 0x4 DUP5 ADD PUSH1 0x0 MSTORE PUSH1 0x20 PUSH1 0x0 KECCAK256 PUSH1 0x1F DUP5 ADD PUSH1 0x5 SHR DUP2 ADD PUSH1 0x20 DUP6 LT PUSH2 0xCFF JUMPI JUMPDEST PUSH1 0x1F DUP4 ADD PUSH1 0x5 SHR DUP3 ADD DUP2 LT PUSH2 0xCF3 JUMPI POP POP PUSH2 0xAF7 JUMP JUMPDEST PUSH1 0x0 DUP2 SSTORE PUSH1 0x1 ADD PUSH2 0xCDD JUMP JUMPDEST POP DUP1 PUSH2 0xCDD JUMP JUMPDEST ADD MLOAD SWAP1 POP DUP9 DUP1 PUSH2 0xAB2 JUMP JUMPDEST SWAP3 POP PUSH1 0x3 DUP5 ADD PUSH1 0x0 MSTORE PUSH1 0x20 PUSH1 0x0 KECCAK256 SWAP1 PUSH1 0x0 SWAP4 JUMPDEST PUSH1 0x1F NOT DUP5 AND DUP6 LT PUSH2 0xD68 JUMPI PUSH1 0x1 SWAP5 POP DUP4 PUSH1 0x1F NOT DUP2 AND LT PUSH2 0xD4F JUMPI JUMPDEST POP POP POP DUP2 SHL ADD PUSH1 0x3 DUP3 ADD SSTORE PUSH2 0xACA JUMP JUMPDEST ADD MLOAD PUSH1 0x0 NOT PUSH1 0xF8 DUP5 PUSH1 0x3 SHL AND SHR NOT AND SWAP1 SSTORE DUP9 DUP1 DUP1 PUSH2 0xD3F JUMP JUMPDEST DUP2 DUP2 ADD MLOAD DUP4 SSTORE PUSH1 0x20 SWAP5 DUP6 ADD SWAP5 PUSH1 0x1 SWAP1 SWAP4 ADD SWAP3 SWAP1 SWAP2 ADD SWAP1 PUSH2 0xD24 JUMP JUMPDEST SWAP1 SWAP2 POP PUSH1 0x3 DUP5 ADD PUSH1 0x0 MSTORE PUSH1 0x20 PUSH1 0x0 KECCAK256 PUSH1 0x1F DUP5 ADD PUSH1 0x5 SHR DUP2 ADD PUSH1 0x20 DUP6 LT PUSH2 0xDCF JUMPI JUMPDEST SWAP1 DUP5 SWAP4 SWAP3 SWAP2 JUMPDEST PUSH1 0x1F DUP4 ADD PUSH1 0x5 SHR DUP3 ADD DUP2 LT PUSH2 0xDC0 JUMPI POP POP PUSH2 0xA9B JUMP JUMPDEST PUSH1 0x0 DUP2 SSTORE DUP6 SWAP5 POP PUSH1 0x1 ADD PUSH2 0xDAA JUMP JUMPDEST POP DUP1 PUSH2 0xDA4 JUMP JUMPDEST PUSH4 0x4E487B71 PUSH1 0xE0 SHL PUSH1 0x0 MSTORE PUSH1 0x11 PUSH1 0x4 MSTORE PUSH1 0x24 PUSH1 0x0 REVERT JUMPDEST PUSH1 0x40 MLOAD PUSH3 0xD2281 PUSH1 0xE2 SHL DUP2 MSTORE PUSH1 0x4 SWAP1 REVERT JUMPDEST SWAP1 POP PUSH1 0x20 DUP2 RETURNDATASIZE PUSH1 0x20 GT PUSH2 0xE27 JUMPI JUMPDEST DUP2 PUSH2 0xE18 PUSH1 0x20 SWAP4 DUP4 PUSH2 0x12DA JUMP JUMPDEST DUP2 ADD SUB SLT PUSH2 0x1B4 JUMPI MLOAD DUP6 PUSH2 0x997 JUMP JUMPDEST RETURNDATASIZE SWAP2 POP PUSH2 0xE0B JUMP JUMPDEST PUSH1 0x40 MLOAD PUSH4 0xA39915D PUSH1 0xE2 SHL DUP2 MSTORE PUSH1 0x4 SWAP1 REVERT JUMPDEST PUSH2 0xE5A SWAP2 POP PUSH1 0x20 RETURNDATASIZE PUSH1 0x20 GT PUSH2 0x7FB JUMPI PUSH2 0x7ED DUP2 DUP4 PUSH2 0x12DA JUMP JUMPDEST DUP6 PUSH2 0x95A JUMP JUMPDEST PUSH1 0x40 MLOAD PUSH4 0x52DDCDEF PUSH1 0xE1 SHL DUP2 MSTORE PUSH1 0x4 SWAP1 REVERT JUMPDEST CALLVALUE PUSH2 0x1B4 JUMPI PUSH1 0x0 CALLDATASIZE PUSH1 0x3 NOT ADD SLT PUSH2 0x1B4 JUMPI PUSH1 0x40 MLOAD PUSH32 0x0 PUSH1 0x1 PUSH1 0x1 PUSH1 0xA0 SHL SUB AND DUP2 MSTORE PUSH1 0x20 SWAP1 RETURN JUMPDEST CALLVALUE PUSH2 0x1B4 JUMPI PUSH1 0x0 CALLDATASIZE PUSH1 0x3 NOT ADD SLT PUSH2 0x1B4 JUMPI PUSH2 0xED0 PUSH2 0x14E9 JUMP JUMPDEST PUSH1 0x0 DUP1 SLOAD PUSH1 0x1 PUSH1 0x1 PUSH1 0xA0 SHL SUB NOT DUP2 AND DUP3 SSTORE PUSH1 0x1 PUSH1 0x1 PUSH1 0xA0 SHL SUB AND PUSH32 0x8BE0079C531659141344CD1FD0A4F28419497F9722A3DAAFE3B4186F6B6457E0 DUP3 DUP1 LOG3 STOP JUMPDEST CALLVALUE PUSH2 0x1B4 JUMPI PUSH1 0x20 DUP1 PUSH1 0x3 NOT CALLDATASIZE ADD SLT PUSH2 0x1B4 JUMPI PUSH1 0x4 CALLDATALOAD PUSH1 0x0 MSTORE PUSH1 0x7 DUP2 MSTORE PUSH1 0x40 PUSH1 0x0 KECCAK256 PUSH1 0x40 MLOAD SWAP1 DUP2 DUP4 DUP3 SLOAD SWAP2 DUP3 DUP2 MSTORE ADD SWAP1 DUP2 SWAP3 PUSH1 0x0 MSTORE DUP5 PUSH1 0x0 KECCAK256 SWAP1 PUSH1 0x0 JUMPDEST DUP7 DUP3 DUP3 LT PUSH2 0xFA2 JUMPI DUP7 DUP7 PUSH2 0xF62 DUP3 DUP9 SUB DUP4 PUSH2 0x12DA JUMP JUMPDEST PUSH1 0x40 MLOAD SWAP3 DUP4 SWAP3 DUP2 DUP5 ADD SWAP1 DUP3 DUP6 MSTORE MLOAD DUP1 SWAP2 MSTORE PUSH1 0x40 DUP5 ADD SWAP3 SWAP2 PUSH1 0x0 JUMPDEST DUP3 DUP2 LT PUSH2 0xF8B JUMPI POP POP POP POP SUB SWAP1 RETURN JUMPDEST DUP4 MLOAD DUP6 MSTORE DUP7 SWAP6 POP SWAP4 DUP2 ADD SWAP4 SWAP3 DUP2 ADD SWAP3 PUSH1 0x1 ADD PUSH2 0xF7C JUMP JUMPDEST DUP4 SLOAD DUP6 MSTORE SWAP1 SWAP4 ADD SWAP3 PUSH1 0x1 SWAP3 DUP4 ADD SWAP3 ADD PUSH2 0xF4C JUMP JUMPDEST CALLVALUE PUSH2 0x1B4 JUMPI PUSH1 0x40 CALLDATASIZE PUSH1 0x3 NOT ADD SLT PUSH2 0x1B4 JUMPI PUSH2 0xFCF PUSH2 0x140F JUMP JUMPDEST PUSH1 0x4 CALLDATALOAD PUSH1 0x0 MSTORE PUSH1 0x8 PUSH1 0x20 MSTORE PUSH1 0x40 PUSH1 0x0 KECCAK256 SWAP1 PUSH1 0x1 DUP1 PUSH1 0xA0 SHL SUB AND PUSH1 0x0 MSTORE PUSH1 0x20 MSTORE PUSH1 0x20 PUSH1 0xFF PUSH1 0x40 PUSH1 0x0 KECCAK256 SLOAD AND PUSH1 0x40 MLOAD SWAP1 ISZERO ISZERO DUP2 MSTORE RETURN JUMPDEST CALLVALUE PUSH2 0x1B4 JUMPI PUSH1 0x40 CALLDATASIZE PUSH1 0x3 NOT ADD SLT PUSH2 0x1B4 JUMPI PUSH1 0x24 CALLDATALOAD PUSH1 0x4 CALLDATALOAD PUSH1 0x0 MSTORE PUSH1 0x7 PUSH1 0x20 MSTORE PUSH1 0x40 PUSH1 0x0 KECCAK256 DUP1 SLOAD DUP3 LT ISZERO PUSH2 0x1B4 JUMPI PUSH1 0x20 SWAP2 PUSH2 0x103C SWAP2 PUSH2 0x13E1 JUMP JUMPDEST SWAP1 SLOAD PUSH1 0x40 MLOAD SWAP2 PUSH1 0x3 SHL SHR DUP2 MSTORE RETURN JUMPDEST CALLVALUE PUSH2 0x1B4 JUMPI PUSH1 0x0 CALLDATASIZE PUSH1 0x3 NOT ADD SLT PUSH2 0x1B4 JUMPI PUSH1 0x20 PUSH1 0x2 SLOAD PUSH1 0x40 MLOAD SWAP1 DUP2 MSTORE RETURN JUMPDEST CALLVALUE PUSH2 0x1B4 JUMPI PUSH1 0x0 CALLDATASIZE PUSH1 0x3 NOT ADD SLT PUSH2 0x1B4 JUMPI PUSH1 0x20 PUSH1 0x40 MLOAD PUSH3 0x15180 DUP2 MSTORE RETURN JUMPDEST CALLVALUE PUSH2 0x1B4 JUMPI PUSH1 0x0 CALLDATASIZE PUSH1 0x3 NOT ADD SLT PUSH2 0x1B4 JUMPI PUSH1 0x20 PUSH1 0x5 SLOAD PUSH1 0x40 MLOAD SWAP1 DUP2 MSTORE RETURN JUMPDEST CALLVALUE PUSH2 0x1B4 JUMPI PUSH1 0x20 CALLDATASIZE PUSH1 0x3 NOT ADD SLT PUSH2 0x1B4 JUMPI PUSH1 0x4 CALLDATALOAD PUSH2 0x10C0 PUSH2 0x14C6 JUMP JUMPDEST DUP1 PUSH1 0x0 MSTORE PUSH1 0x6 PUSH1 0x20 MSTORE PUSH1 0x40 PUSH1 0x0 KECCAK256 PUSH1 0x7 DUP2 ADD SLOAD ISZERO PUSH2 0x36D JUMPI PUSH1 0x9 DUP2 ADD SWAP1 DUP2 SLOAD SWAP1 PUSH1 0xFF DUP3 AND PUSH2 0x35B JUMPI PUSH1 0xFF DUP3 PUSH1 0x8 SHR AND PUSH2 0x349 JUMPI PUSH1 0x8 DUP2 ADD SLOAD TIMESTAMP GT ISZERO PUSH2 0x117A JUMPI PUSH1 0x6 PUSH1 0x5 DUP3 ADD SLOAD SWAP2 ADD SLOAD SWAP1 PUSH2 0x1114 DUP3 DUP3 PUSH2 0x1453 JUMP JUMPDEST PUSH1 0x5 SLOAD GT PUSH2 0x1168 JUMPI GT ISZERO PUSH2 0x1156 JUMPI PUSH1 0xFF NOT AND PUSH1 0x1 OR SWAP1 SSTORE PUSH32 0x712AE1383F79AC853F8D882153778E0260EF8F03B504E2866E0593E04D2B291F PUSH1 0x0 DUP1 LOG2 PUSH1 0x1 DUP1 SSTORE STOP JUMPDEST PUSH1 0x40 MLOAD PUSH4 0xC8C93BA3 PUSH1 0xE0 SHL DUP2 MSTORE PUSH1 0x4 SWAP1 REVERT JUMPDEST PUSH1 0x40 MLOAD PUSH4 0xAA26A693 PUSH1 0xE0 SHL DUP2 MSTORE PUSH1 0x4 SWAP1 REVERT JUMPDEST PUSH1 0x40 MLOAD PUSH4 0x3FC30BD1 PUSH1 0xE1 SHL DUP2 MSTORE PUSH1 0x4 SWAP1 REVERT JUMPDEST CALLVALUE PUSH2 0x1B4 JUMPI PUSH1 0x0 CALLDATASIZE PUSH1 0x3 NOT ADD SLT PUSH2 0x1B4 JUMPI PUSH1 0x20 PUSH1 0x4 SLOAD PUSH1 0x40 MLOAD SWAP1 DUP2 MSTORE RETURN JUMPDEST CALLVALUE PUSH2 0x1B4 JUMPI PUSH1 0x20 CALLDATASIZE PUSH1 0x3 NOT ADD SLT PUSH2 0x1B4 JUMPI PUSH1 0x4 CALLDATALOAD PUSH1 0x0 MSTORE PUSH1 0x6 PUSH1 0x20 MSTORE PUSH1 0x40 PUSH1 0x0 KECCAK256 PUSH1 0x20 DUP2 SLOAD PUSH1 0xFF PUSH1 0x1 DUP5 ADD SLOAD SWAP4 PUSH1 0x1 DUP1 PUSH1 0xA0 SHL SUB PUSH1 0x2 DUP3 ADD SLOAD AND SWAP1 PUSH2 0x11F1 PUSH1 0x3 DUP3 ADD PUSH2 0x12FC JUMP JUMPDEST SWAP4 PUSH2 0x11FE PUSH1 0x4 DUP4 ADD PUSH2 0x12FC JUMP JUMPDEST SWAP5 PUSH2 0x1252 PUSH1 0x5 DUP5 ADD SLOAD SWAP7 PUSH2 0x1244 PUSH1 0x6 DUP7 ADD SLOAD SWAP4 PUSH1 0x7 DUP8 ADD SLOAD SWAP6 PUSH1 0x9 PUSH1 0x8 DUP10 ADD SLOAD SWAP9 ADD SLOAD SWAP9 PUSH1 0x40 MLOAD SWAP14 DUP15 SWAP14 DUP15 PUSH2 0x160 SWAP5 DUP2 MSTORE ADD MSTORE PUSH1 0x40 DUP14 ADD MSTORE DUP1 PUSH1 0x60 DUP14 ADD MSTORE DUP12 ADD SWAP1 PUSH2 0x13A1 JUMP JUMPDEST SWAP1 DUP10 DUP3 SUB PUSH1 0x80 DUP12 ADD MSTORE PUSH2 0x13A1 JUMP JUMPDEST SWAP6 PUSH1 0xA0 DUP9 ADD MSTORE PUSH1 0xC0 DUP8 ADD MSTORE PUSH1 0xE0 DUP7 ADD MSTORE PUSH2 0x100 DUP6 ADD MSTORE DUP2 DUP2 AND ISZERO ISZERO PUSH2 0x120 DUP6 ADD MSTORE PUSH1 0x8 SHR AND ISZERO ISZERO PUSH2 0x140 DUP4 ADD MSTORE SUB SWAP1 RETURN JUMPDEST SWAP1 PUSH1 0x1 DUP3 DUP2 SHR SWAP3 AND DUP1 ISZERO PUSH2 0x12B3 JUMPI JUMPDEST PUSH1 0x20 DUP4 LT EQ PUSH2 0x129D JUMPI JUMP JUMPDEST PUSH4 0x4E487B71 PUSH1 0xE0 SHL PUSH1 0x0 MSTORE PUSH1 0x22 PUSH1 0x4 MSTORE PUSH1 0x24 PUSH1 0x0 REVERT JUMPDEST SWAP2 PUSH1 0x7F AND SWAP2 PUSH2 0x1292 JUMP JUMPDEST PUSH2 0x160 DUP2 ADD SWAP1 DUP2 LT PUSH8 0xFFFFFFFFFFFFFFFF DUP3 GT OR PUSH2 0xC2B JUMPI PUSH1 0x40 MSTORE JUMP JUMPDEST SWAP1 PUSH1 0x1F DUP1 NOT SWAP2 ADD AND DUP2 ADD SWAP1 DUP2 LT PUSH8 0xFFFFFFFFFFFFFFFF DUP3 GT OR PUSH2 0xC2B JUMPI PUSH1 0x40 MSTORE JUMP JUMPDEST SWAP1 PUSH1 0x40 MLOAD SWAP2 DUP3 PUSH1 0x0 DUP3 SLOAD PUSH2 0x130F DUP2 PUSH2 0x1283 JUMP JUMPDEST SWAP1 DUP2 DUP5 MSTORE PUSH1 0x20 SWAP5 PUSH1 0x1 SWAP2 PUSH1 0x1 DUP2 AND SWAP1 DUP2 PUSH1 0x0 EQ PUSH2 0x137F JUMPI POP PUSH1 0x1 EQ PUSH2 0x1340 JUMPI JUMPDEST POP POP POP PUSH2 0x133E SWAP3 POP SUB DUP4 PUSH2 0x12DA JUMP JUMPDEST JUMP JUMPDEST PUSH1 0x0 SWAP1 DUP2 MSTORE DUP6 DUP2 KECCAK256 SWAP6 SWAP4 POP SWAP2 SWAP1 JUMPDEST DUP2 DUP4 LT PUSH2 0x1367 JUMPI POP POP PUSH2 0x133E SWAP4 POP DUP3 ADD ADD CODESIZE DUP1 DUP1 PUSH2 0x132F JUMP JUMPDEST DUP6 SLOAD DUP9 DUP5 ADD DUP6 ADD MSTORE SWAP5 DUP6 ADD SWAP5 DUP8 SWAP5 POP SWAP2 DUP4 ADD SWAP2 PUSH2 0x134E JUMP JUMPDEST SWAP3 POP POP POP PUSH2 0x133E SWAP5 SWAP3 POP PUSH1 0xFF NOT AND DUP3 DUP5 ADD MSTORE ISZERO ISZERO PUSH1 0x5 SHL DUP3 ADD ADD CODESIZE DUP1 DUP1 PUSH2 0x132F JUMP JUMPDEST SWAP2 SWAP1 DUP3 MLOAD SWAP3 DUP4 DUP3 MSTORE PUSH1 0x0 JUMPDEST DUP5 DUP2 LT PUSH2 0x13CD JUMPI POP POP DUP3 PUSH1 0x0 PUSH1 0x20 DUP1 SWAP5 SWAP6 DUP5 ADD ADD MSTORE PUSH1 0x1F DUP1 NOT SWAP2 ADD AND ADD ADD SWAP1 JUMP JUMPDEST PUSH1 0x20 DUP2 DUP4 ADD DUP2 ADD MLOAD DUP5 DUP4 ADD DUP3 ADD MSTORE ADD PUSH2 0x13AC JUMP JUMPDEST DUP1 SLOAD DUP3 LT ISZERO PUSH2 0x13F9 JUMPI PUSH1 0x0 MSTORE PUSH1 0x20 PUSH1 0x0 KECCAK256 ADD SWAP1 PUSH1 0x0 SWAP1 JUMP JUMPDEST PUSH4 0x4E487B71 PUSH1 0xE0 SHL PUSH1 0x0 MSTORE PUSH1 0x32 PUSH1 0x4 MSTORE PUSH1 0x24 PUSH1 0x0 REVERT JUMPDEST PUSH1 0x24 CALLDATALOAD SWAP1 PUSH1 0x1 PUSH1 0x1 PUSH1 0xA0 SHL SUB DUP3 AND DUP3 SUB PUSH2 0x1B4 JUMPI JUMP JUMPDEST SWAP2 DUP2 PUSH1 0x1F DUP5 ADD SLT ISZERO PUSH2 0x1B4 JUMPI DUP3 CALLDATALOAD SWAP2 PUSH8 0xFFFFFFFFFFFFFFFF DUP4 GT PUSH2 0x1B4 JUMPI PUSH1 0x20 DUP4 DUP2 DUP7 ADD SWAP6 ADD ADD GT PUSH2 0x1B4 JUMPI JUMP JUMPDEST SWAP2 SWAP1 DUP3 ADD DUP1 SWAP3 GT PUSH2 0xDD6 JUMPI JUMP JUMPDEST SWAP1 DUP2 PUSH1 0x20 SWAP2 SUB SLT PUSH2 0x1B4 JUMPI MLOAD PUSH1 0x1 PUSH1 0x1 PUSH1 0xA0 SHL SUB DUP2 AND DUP2 SUB PUSH2 0x1B4 JUMPI SWAP1 JUMP JUMPDEST SWAP3 SWAP2 SWAP3 PUSH8 0xFFFFFFFFFFFFFFFF DUP3 GT PUSH2 0xC2B JUMPI PUSH1 0x40 MLOAD SWAP2 PUSH2 0x14A9 PUSH1 0x1F DUP3 ADD PUSH1 0x1F NOT AND PUSH1 0x20 ADD DUP5 PUSH2 0x12DA JUMP JUMPDEST DUP3 SWAP5 DUP2 DUP5 MSTORE DUP2 DUP4 ADD GT PUSH2 0x1B4 JUMPI DUP3 DUP2 PUSH1 0x20 SWAP4 DUP5 PUSH1 0x0 SWAP7 ADD CALLDATACOPY ADD ADD MSTORE JUMP JUMPDEST PUSH1 0x2 PUSH1 0x1 SLOAD EQ PUSH2 0x14D7 JUMPI PUSH1 0x2 PUSH1 0x1 SSTORE JUMP JUMPDEST PUSH1 0x40 MLOAD PUSH4 0x3EE5AEB5 PUSH1 0xE0 SHL DUP2 MSTORE PUSH1 0x4 SWAP1 REVERT JUMPDEST PUSH1 0x0 SLOAD PUSH1 0x1 PUSH1 0x1 PUSH1 0xA0 SHL SUB AND CALLER SUB PUSH2 0x14FD JUMPI JUMP JUMPDEST PUSH1 0x40 MLOAD PUSH4 0x118CDAA7 PUSH1 0xE0 SHL DUP2 MSTORE CALLER PUSH1 0x4 DUP3 ADD MSTORE PUSH1 0x24 SWAP1 REVERT INVALID LOG2 PUSH5 0x6970667358 0x22 SLT KECCAK256 0xDF 0x4F SGT JUMPDEST PUSH7 0x5ED737C9A5EC7F 0x2D CALLVALUE 0xDE 0xDE MULMOD 0xB6 CODECOPY MOD PUSH6 0xF4CE8378837F 0xC 0xEB 0x2D SSTORE 0xE0 PUSH5 0x736F6C6343 STOP ADDMOD XOR STOP CALLER "},"methodIdentifiers":{"MAX_VOTING_PERIOD()":"a64e024a","MIN_VOTING_PERIOD()":"215809ca","cancelProposal(uint256)":"e0a8f6f5","createProposal(uint256,string,string)":"7a5e3a26","executeProposal(uint256)":"0d61b519","getPropertyProposals(uint256)":"5c4085a1","getProposal(uint256)":"c7f758a8","getVoteWeight(uint256,address)":"7eba5573","hasVoted(uint256,address)":"43859632","nextProposalId()":"2ab09d14","owner()":"8da5cb5b","propertyProposals(uint256,uint256)":"33fdceb4","propertyTokenFactory()":"740a03d9","proposalThreshold()":"b58131b0","proposals(uint256)":"013cf08b","quorum()":"1703a018","renounceOwnership()":"715018a6","setProposalThreshold(uint256)":"ece40cc1","setQuorum(uint256)":"c1ba4e59","setVotingPeriod(uint256)":"ea0217cf","transferOwnership(address)":"f2fde38b","vote(uint256,uint8)":"943e8216","voterWeight(uint256,address)":"6b3ce24b","votingPeriod()":"02a251a3"}}}}}