{"contracts/PropertyNFT.sol":{"PropertyNFT":{"abi":[{"inputs":[{"internalType":"address","name":"initialOwner","type":"address"}],"stateMutability":"nonpayable","type":"constructor"},{"inputs":[],"name":"ERC721EnumerableForbiddenBatchMint","type":"error"},{"inputs":[{"internalType":"address","name":"sender","type":"address"},{"internalType":"uint256","name":"tokenId","type":"uint256"},{"internalType":"address","name":"owner","type":"address"}],"name":"ERC721IncorrectOwner","type":"error"},{"inputs":[{"internalType":"address","name":"operator","type":"address"},{"internalType":"uint256","name":"tokenId","type":"uint256"}],"name":"ERC721InsufficientApproval","type":"error"},{"inputs":[{"internalType":"address","name":"approver","type":"address"}],"name":"ERC721InvalidApprover","type":"error"},{"inputs":[{"internalType":"address","name":"operator","type":"address"}],"name":"ERC721InvalidOperator","type":"error"},{"inputs":[{"internalType":"address","name":"owner","type":"address"}],"name":"ERC721InvalidOwner","type":"error"},{"inputs":[{"internalType":"address","name":"receiver","type":"address"}],"name":"ERC721InvalidReceiver","type":"error"},{"inputs":[{"internalType":"address","name":"sender","type":"address"}],"name":"ERC721InvalidSender","type":"error"},{"inputs":[{"internalType":"uint256","name":"tokenId","type":"uint256"}],"name":"ERC721NonexistentToken","type":"error"},{"inputs":[{"internalType":"address","name":"owner","type":"address"},{"internalType":"uint256","name":"index","type":"uint256"}],"name":"ERC721OutOfBoundsIndex","type":"error"},{"inputs":[{"internalType":"address","name":"owner","type":"address"}],"name":"OwnableInvalidOwner","type":"error"},{"inputs":[{"internalType":"address","name":"account","type":"address"}],"name":"OwnableUnauthorizedAccount","type":"error"},{"inputs":[],"name":"ReentrancyGuardReentrantCall","type":"error"},{"anonymous":false,"inputs":[{"indexed":true,"internalType":"address","name":"owner","type":"address"},{"indexed":true,"internalType":"address","name":"approved","type":"address"},{"indexed":true,"internalType":"uint256","name":"tokenId","type":"uint256"}],"name":"Approval","type":"event"},{"anonymous":false,"inputs":[{"indexed":true,"internalType":"address","name":"owner","type":"address"},{"indexed":true,"internalType":"address","name":"operator","type":"address"},{"indexed":false,"internalType":"bool","name":"approved","type":"bool"}],"name":"ApprovalForAll","type":"event"},{"anonymous":false,"inputs":[{"indexed":true,"internalType":"address","name":"contractAddress","type":"address"}],"name":"AuthorizedContractAdded","type":"event"},{"anonymous":false,"inputs":[{"indexed":true,"internalType":"address","name":"contractAddress","type":"address"}],"name":"AuthorizedContractRemoved","type":"event"},{"anonymous":false,"inputs":[{"indexed":false,"internalType":"uint256","name":"_fromTokenId","type":"uint256"},{"indexed":false,"internalType":"uint256","name":"_toTokenId","type":"uint256"}],"name":"BatchMetadataUpdate","type":"event"},{"anonymous":false,"inputs":[{"indexed":false,"internalType":"uint256","name":"_tokenId","type":"uint256"}],"name":"MetadataUpdate","type":"event"},{"anonymous":false,"inputs":[{"indexed":true,"internalType":"address","name":"previousOwner","type":"address"},{"indexed":true,"internalType":"address","name":"newOwner","type":"address"}],"name":"OwnershipTransferred","type":"event"},{"anonymous":false,"inputs":[{"indexed":true,"internalType":"uint256","name":"tokenId","type":"uint256"},{"indexed":true,"internalType":"address","name":"seller","type":"address"},{"indexed":false,"internalType":"uint256","name":"totalValue","type":"uint256"}],"name":"PropertyMinted","type":"event"},{"anonymous":false,"inputs":[{"indexed":true,"internalType":"uint256","name":"tokenId","type":"uint256"},{"indexed":false,"internalType":"enum PropertyNFT.PropertyStatus","name":"oldStatus","type":"uint8"},{"indexed":false,"internalType":"enum PropertyNFT.PropertyStatus","name":"newStatus","type":"uint8"}],"name":"PropertyStatusUpdated","type":"event"},{"anonymous":false,"inputs":[{"indexed":true,"internalType":"address","name":"from","type":"address"},{"indexed":true,"internalType":"address","name":"to","type":"address"},{"indexed":true,"internalType":"uint256","name":"tokenId","type":"uint256"}],"name":"Transfer","type":"event"},{"inputs":[{"internalType":"address","name":"contractAddress","type":"address"}],"name":"addAuthorizedContract","outputs":[],"stateMutability":"nonpayable","type":"function"},{"inputs":[{"internalType":"address","name":"to","type":"address"},{"internalType":"uint256","name":"tokenId","type":"uint256"}],"name":"approve","outputs":[],"stateMutability":"nonpayable","type":"function"},{"inputs":[{"internalType":"address","name":"","type":"address"}],"name":"authorizedContracts","outputs":[{"internalType":"bool","name":"","type":"bool"}],"stateMutability":"view","type":"function"},{"inputs":[{"internalType":"address","name":"owner","type":"address"}],"name":"balanceOf","outputs":[{"internalType":"uint256","name":"","type":"uint256"}],"stateMutability":"view","type":"function"},{"inputs":[{"internalType":"uint256","name":"tokenId","type":"uint256"}],"name":"getApproved","outputs":[{"internalType":"address","name":"","type":"address"}],"stateMutability":"view","type":"function"},{"inputs":[{"internalType":"uint256","name":"tokenId","type":"uint256"}],"name":"getFundingTarget","outputs":[{"internalType":"uint256","name":"","type":"uint256"}],"stateMutability":"view","type":"function"},{"inputs":[{"internalType":"uint256","name":"tokenId","type":"uint256"}],"name":"getMinInvestment","outputs":[{"internalType":"uint256","name":"","type":"uint256"}],"stateMutability":"view","type":"function"},{"inputs":[{"internalType":"uint256","name":"tokenId","type":"uint256"}],"name":"getPropertyInfo","outputs":[{"components":[{"internalType":"string","name":"title","type":"string"},{"internalType":"string","name":"location","type":"string"},{"internalType":"uint256","name":"totalValue","type":"uint256"},{"internalType":"uint256","name":"fundingTarget","type":"uint256"},{"internalType":"uint256","name":"minInvestment","type":"uint256"},{"internalType":"enum PropertyNFT.PropertyStatus","name":"status","type":"uint8"},{"internalType":"address","name":"seller","type":"address"},{"internalType":"uint256","name":"createdAt","type":"uint256"}],"internalType":"struct PropertyNFT.PropertyInfo","name":"","type":"tuple"}],"stateMutability":"view","type":"function"},{"inputs":[{"internalType":"uint256","name":"tokenId","type":"uint256"}],"name":"getPropertyStatus","outputs":[{"internalType":"uint8","name":"","type":"uint8"}],"stateMutability":"view","type":"function"},{"inputs":[{"internalType":"address","name":"owner","type":"address"},{"internalType":"address","name":"operator","type":"address"}],"name":"isApprovedForAll","outputs":[{"internalType":"bool","name":"","type":"bool"}],"stateMutability":"view","type":"function"},{"inputs":[{"internalType":"address","name":"seller","type":"address"},{"internalType":"string","name":"uri","type":"string"},{"internalType":"string","name":"title","type":"string"},{"internalType":"string","name":"location","type":"string"},{"internalType":"uint256","name":"totalValue","type":"uint256"},{"internalType":"uint256","name":"fundingTarget","type":"uint256"},{"internalType":"uint256","name":"minInvestment","type":"uint256"}],"name":"mintProperty","outputs":[{"internalType":"uint256","name":"","type":"uint256"}],"stateMutability":"nonpayable","type":"function"},{"inputs":[],"name":"name","outputs":[{"internalType":"string","name":"","type":"string"}],"stateMutability":"view","type":"function"},{"inputs":[],"name":"owner","outputs":[{"internalType":"address","name":"","type":"address"}],"stateMutability":"view","type":"function"},{"inputs":[{"internalType":"uint256","name":"tokenId","type":"uint256"}],"name":"ownerOf","outputs":[{"internalType":"address","name":"","type":"address"}],"stateMutability":"view","type":"function"},{"inputs":[{"internalType":"address","name":"contractAddress","type":"address"}],"name":"removeAuthorizedContract","outputs":[],"stateMutability":"nonpayable","type":"function"},{"inputs":[],"name":"renounceOwnership","outputs":[],"stateMutability":"nonpayable","type":"function"},{"inputs":[{"internalType":"address","name":"from","type":"address"},{"internalType":"address","name":"to","type":"address"},{"internalType":"uint256","name":"tokenId","type":"uint256"}],"name":"safeTransferFrom","outputs":[],"stateMutability":"nonpayable","type":"function"},{"inputs":[{"internalType":"address","name":"from","type":"address"},{"internalType":"address","name":"to","type":"address"},{"internalType":"uint256","name":"tokenId","type":"uint256"},{"internalType":"bytes","name":"data","type":"bytes"}],"name":"safeTransferFrom","outputs":[],"stateMutability":"nonpayable","type":"function"},{"inputs":[{"internalType":"address","name":"operator","type":"address"},{"internalType":"bool","name":"approved","type":"bool"}],"name":"setApprovalForAll","outputs":[],"stateMutability":"nonpayable","type":"function"},{"inputs":[{"internalType":"bytes4","name":"interfaceId","type":"bytes4"}],"name":"supportsInterface","outputs":[{"internalType":"bool","name":"","type":"bool"}],"stateMutability":"view","type":"function"},{"inputs":[],"name":"symbol","outputs":[{"internalType":"string","name":"","type":"string"}],"stateMutability":"view","type":"function"},{"inputs":[{"internalType":"uint256","name":"index","type":"uint256"}],"name":"tokenByIndex","outputs":[{"internalType":"uint256","name":"","type":"uint256"}],"stateMutability":"view","type":"function"},{"inputs":[{"internalType":"address","name":"owner","type":"address"},{"internalType":"uint256","name":"index","type":"uint256"}],"name":"tokenOfOwnerByIndex","outputs":[{"internalType":"uint256","name":"","type":"uint256"}],"stateMutability":"view","type":"function"},{"inputs":[{"internalType":"uint256","name":"tokenId","type":"uint256"}],"name":"tokenURI","outputs":[{"internalType":"string","name":"","type":"string"}],"stateMutability":"view","type":"function"},{"inputs":[],"name":"totalSupply","outputs":[{"internalType":"uint256","name":"","type":"uint256"}],"stateMutability":"view","type":"function"},{"inputs":[{"internalType":"address","name":"from","type":"address"},{"internalType":"address","name":"to","type":"address"},{"internalType":"uint256","name":"tokenId","type":"uint256"}],"name":"transferFrom","outputs":[],"stateMutability":"nonpayable","type":"function"},{"inputs":[{"internalType":"address","name":"newOwner","type":"address"}],"name":"transferOwnership","outputs":[],"stateMutability":"nonpayable","type":"function"},{"inputs":[{"internalType":"uint256","name":"tokenId","type":"uint256"},{"internalType":"uint8","name":"newStatus","type":"uint8"}],"name":"updatePropertyStatus","outputs":[],"stateMutability":"nonpayable","type":"function"},{"inputs":[{"internalType":"uint256","name":"tokenId","type":"uint256"},{"internalType":"enum PropertyNFT.PropertyStatus","name":"newStatus","type":"uint8"}],"name":"updateStatus","outputs":[],"stateMutability":"nonpayable","type":"function"}],"evm":{"bytecode":{"linkReferences":{},"object":"608034620003c957601f906001600160401b03601f196200256a388190038581018316850184811186821017620003b357859282916040528339602094859181010312620003c957516001600160a01b03948582169391849003620003c95762000068620003ce565b94601786527f53796e7469616e742041746c61732050726f7065727479000000000000000000818701526200009c620003ce565b90600382526205341560ec1b81830152865194848611620003b3576000958654986001998a81811c91168015620003a8575b85821014620003945790818784931162000341575b508490878311600114620002e0578992620002d4575b5050600019600383901b1c191690891b1786555b8251948511620002c05787548881811c91168015620002b5575b83821014620002a15790818587969594931162000248575b5081938511600114620001e35750508492620001d7575b5050600019600383901b1c191690841b1783555b8115620001bf57600b80546001600160a01b0319811684179091556040519416907f8be0079c531659141344cd1fd0a4f28419497f9722a3daafe3b4186f6b6457e09080a3600c5561217b9081620003ef8239f35b60249060405190631e4fbdf760e01b82526004820152fd5b01519050388062000156565b889593929193168587528387209387905b8282106200022e575050841162000214575b505050811b0183556200016a565b015160001960f88460031b161c1916905538808062000206565b8484015186558a97909501949384019390810190620001f4565b9091929394508887528287208580880160051c82019285891062000297575b9188978c9297969594930160051c01915b828110620002885750506200013f565b8981558897508b910162000278565b9250819262000267565b634e487b7160e01b87526022600452602487fd5b90607f169062000127565b634e487b7160e01b86526041600452602486fd5b015190503880620000f9565b90848c9416918a8052868b20928b5b888282106200032a575050841162000310575b505050811b0186556200010d565b015160001960f88460031b161c1916905538808062000302565b8385015186558f97909501949384019301620002ef565b9091508880528489208780850160051c8201928786106200038a575b918d91869594930160051c01915b8281106200037b575050620000e3565b8b81558594508d91016200036b565b925081926200035d565b634e487b7160e01b89526022600452602489fd5b90607f1690620000ce565b634e487b7160e01b600052604160045260246000fd5b600080fd5b60408051919082016001600160401b03811183821017620003b35760405256fe608080604052600436101561001357600080fd5b60003560e01c90816301ffc9a71461185f5750806306fdde03146117b4578063081812fc14611776578063095ea7b31461168f57806318160ddd1461167157806323b872dd1461165a578063282d7da5146116085780632f745c59146115845780633a1b3d31146114ee57806340f0a0551461138357806342842e0e146113555780634f6ccce7146112ff578063564c0aec146111fb5780636352211e146111cb5780636688d5a21461076c57806370a0823114610741578063715018a6146106e45780638da5cb5b146106bb57806395d89b41146105d857806398eaa4a714610523578063a22cb4651461047e578063b88d4fde14610410578063bb0f3c1d146103be578063c673148614610349578063c87b56dd146102ec578063d5b9221b146102ad578063e6b165ed14610247578063e985e9c5146101f15763f2fde38b1461015e57600080fd5b346101ec5760203660031901126101ec5761017761193e565b61017f611fcb565b6001600160a01b039081169081156101d357600b54826bffffffffffffffffffffffff60a01b821617600b55167f8be0079c531659141344cd1fd0a4f28419497f9722a3daafe3b4186f6b6457e0600080a3005b604051631e4fbdf760e01b815260006004820152602490fd5b600080fd5b346101ec5760403660031901126101ec5761020a61193e565b610212611954565b9060018060a01b03809116600052600560205260406000209116600052602052602060ff604060002054166040519015158152f35b346101ec5760203660031901126101ec5761026061193e565b610268611fcb565b6001600160a01b03166000818152600f60205260408120805460ff191690557f98a35376356c1565159c1b44676fcfa951a2287e2a816e208cf92e7aeb585a4f9080a2005b346101ec5760203660031901126101ec576001600160a01b036102ce61193e565b16600052600f602052602060ff604060002054166040519015158152f35b346101ec5760203660031901126101ec5760043561030981611f90565b50600052600a6020526103456103226040600020611ab2565b6000604051610330816119c9565b526040519182916020835260208301906118fe565b0390f35b346101ec5760203660031901126101ec57600435600081815260026020526040902054610380906001600160a01b03161515611e02565b600052600d60205260ff6005604060002001541660048110156103a857602090604051908152f35b634e487b7160e01b600052602160045260246000fd5b346101ec5760203660031901126101ec576004356000818152600260205260409020546103f5906001600160a01b03161515611e02565b600052600d6020526020600360406000200154604051908152f35b346101ec5760803660031901126101ec5761042961193e565b610431611954565b906044356064359267ffffffffffffffff84116101ec57366023850112156101ec5761046a61047c943690602481600401359101611a23565b92610476838383611b57565b33611ff7565b005b346101ec5760403660031901126101ec5761049761193e565b602435908115158092036101ec576001600160a01b031690811561050a57336000526005602052604060002082600052602052604060002060ff1981541660ff83161790556040519081527f17307eab39ab6107e8899845ad3d59bd9653f200f220920489ca2b5937696c3160203392a3005b604051630b61174360e31b815260048101839052602490fd5b346101ec5760203660031901126101ec5761053c61193e565b610544611fcb565b6001600160a01b031680156105935780600052600f6020526040600020600160ff198254161790557f351e40fe333cede9dd79a1ef4d16228b1702f272eb2c2166ec3c7ee6a9d4ce2c600080a2005b60405162461bcd60e51b815260206004820152601960248201527f50726f70657274794e46543a207a65726f2061646472657373000000000000006044820152606490fd5b346101ec5760003660031901126101ec576040516000600182600154926105fe84611a78565b928383526020948560018216918260001461069b57505060011461063e575b5061062a925003836119e5565b6103456040519282849384528301906118fe565b84915060016000527fb10e2d527612073b26eecdfd717e6a320cf44b4afac2b0732d9fcbe2b7fa0cf6906000915b85831061068357505061062a93508201018561061d565b8054838901850152879450869390920191810161066c565b60ff19168582015261062a95151560051b850101925087915061061d9050565b346101ec5760003660031901126101ec57600b546040516001600160a01b039091168152602090f35b346101ec5760003660031901126101ec576106fd611fcb565b600b80546001600160a01b031981169091556000906001600160a01b03167f8be0079c531659141344cd1fd0a4f28419497f9722a3daafe3b4186f6b6457e08280a3005b346101ec5760203660031901126101ec57602061076461075f61193e565b611f57565b604051908152f35b346101ec5760e03660031901126101ec5761078561193e565b60243567ffffffffffffffff81116101ec576107a5903690600401611a5a565b60443567ffffffffffffffff81116101ec576107c5903690600401611a5a565b9160643567ffffffffffffffff81116101ec576107e6903690600401611a5a565b6107ee611fcb565b6002600c54146111b9576002600c556001600160a01b0382161561117557608435156111305760a435156110ec5760c4351515806110de575b1561108d57600e54926000198414610fb05760018401600e5560405161084c816119c9565b6000808252858152600260205260409020546001600160a01b031680611056575b6001600160a01b0385166000818152600360209081526040808320805460010190558983526002909152812080546001600160a01b0319168317905587919083907fddf252ad1be2c89b69c2b068fc378daa952ba7f163c4a11628f55a4df523b3ef9080a480610fc65760085486600052600960205280604060002055600160401b811015610c58578661090a8260016109239401600855611f0a565b90919082549060031b91821b91600019901b1916179055565b6001600160a01b0385168103610f5c575b610f4357833b610dfc575b5083600052600a60205260406000209080519067ffffffffffffffff8211610c5857819061096d8454611a78565b601f8111610dac575b50602090601f8311600114610d4057600092610d35575b50508160011b916000199060031b1c19161790555b7ff8e1a15aba9398e019f0b49df1a4fde98ee17ae345cb5f6b5e2c27f5033e8ce76020604051858152a1604051936109d9856119ac565b84526020840152608435604084015260a435606084015260c4356080840152600060a084015260018060a01b03811660c08401524260e084015281600052600d6020526040600020835180519067ffffffffffffffff8211610c58578190610a418454611a78565b601f8111610ce5575b50602090601f8311600114610c7957600092610c6e575b50508160011b916000199060031b1c19161781555b602084015180519067ffffffffffffffff8211610c58578190610a9c6001850154611a78565b601f8111610c05575b50602090601f8311600114610b9357600092610b88575b50508160011b916000199060031b1c19161760018201555b6040840151600282015560608401516003820155608084015160048201556005810160a085015160048110156103a85760209582610b1660e093600695611ef2565b60c08201518154610100600160a81b03191660089190911b610100600160a81b0316179055015191015560405160843581526001600160a01b039091169082907f8e2073f25511f47a783a6a4b5407d046a7aeb09d0215f5126465a348c00e3a54908590a36001600c55604051908152f35b015190508680610abc565b9250600184016000526020600020906000935b601f1984168510610bea576001945083601f19811610610bd1575b505050811b016001820155610ad4565b015160001960f88460031b161c19169055868080610bc1565b81810151835560209485019460019093019290910190610ba6565b909150600184016000526020600020601f840160051c810160208510610c51575b90849392915b601f830160051c82018110610c42575050610aa5565b60008155859450600101610c2c565b5080610c26565b634e487b7160e01b600052604160045260246000fd5b015190508680610a61565b9250836000526020600020906000935b601f1984168510610cca576001945083601f19811610610cb1575b505050811b018155610a76565b015160001960f88460031b161c19169055868080610ca4565b81810151835560209485019460019093019290910190610c89565b909150836000526020600020601f840160051c810160208510610d2e575b90849392915b601f830160051c82018110610d1f575050610a4a565b60008155859450600101610d09565b5080610d03565b01519050878061098d565b9250836000526020600020906000935b601f1984168510610d91576001945083601f19811610610d78575b505050811b0190556109a2565b015160001960f88460031b161c19169055878080610d6b565b81810151835560209485019460019093019290910190610d50565b909150836000526020600020601f840160051c810160208510610df5575b90849392915b601f830160051c82018110610de6575050610976565b60008155859450600101610dd0565b5080610dca565b6020610e3b916040979695975180938192630a85bd0160e11b8352336004840152600060248401528860448401526080606484015260848301906118fe565b038160006001600160a01b038b165af160009181610efe575b50610ebc57853d15610eb4573d90610e6b82611a07565b91610e7960405193846119e5565b82523d6000602084013e5b81519182610ead57604051633250574960e11b81526001600160a01b0383166004820152602490fd5b6020915001fd5b606090610e84565b939492936001600160e01b03191663757a42ff60e11b01610edd578561093f565b604051633250574960e11b81526001600160a01b0384166004820152602490fd5b9091506020813d602011610f3b575b81610f1a602093836119e5565b810103126101ec57516001600160e01b0319811681036101ec579087610e54565b3d9150610f0d565b6040516339e3563760e11b815260006004820152602490fd5b610f6585611f57565b80600019810111610fb05760018060a01b0386166000526006602052604060002060001982016000526020528660406000205586600052600760205260001901604060002055610934565b634e487b7160e01b600052601160045260246000fd5b6001600160a01b038516811461092357610fdf81611f57565b86600052600760205260406000205490826000526006602052604060002091818103611029575b508760005260076020526000604081205560005260205260006040812055610923565b81600052826020526040600020548160005280604060002055600052600760205260406000205589611006565b600086815260046020526040902080546001600160a01b03191690558060005260036020526040600020600019815401905561086d565b60405162461bcd60e51b815260206004820152602360248201527f50726f70657274794e46543a20696e76616c6964206d696e20696e766573746d604482015262195b9d60ea1b6064820152608490fd5b5060a43560c4351115610827565b606460405162461bcd60e51b815260206004820152602060248201527f50726f70657274794e46543a207a65726f2066756e64696e67207461726765746044820152fd5b60405162461bcd60e51b815260206004820152601d60248201527f50726f70657274794e46543a207a65726f20746f74616c2076616c75650000006044820152606490fd5b606460405162461bcd60e51b815260206004820152602060248201527f50726f70657274794e46543a207a65726f20616464726573732073656c6c65726044820152fd5b604051633ee5aeb560e01b8152600490fd5b346101ec5760203660031901126101ec5760206111e9600435611f90565b6040516001600160a01b039091168152f35b346101ec5760403660031901126101ec5760043560243560ff81168091036101ec57600b54611258906001600160a01b03908116331480156112e6575b61124190611e4e565b836000526002602052604060002054161515611e02565b60048110156103a85781600052600d60205260ff600560406000200154169060048210156103a857816112e3826112b46040947f8e57a2be23e1738ef2e62e23518544bbb8f12cba85d0f47a4154fd56ef2fbcbc961415611ea6565b85600052600d6020526112cd8160058660002001611ef2565b6112d98451809461199f565b602083019061199f565ba2005b50336000908152600f602052604090205460ff16611238565b346101ec5760203660031901126101ec5760043560085481101561133657611328602091611f0a565b90546040519160031b1c8152f35b6044906040519063295f44f760e21b8252600060048301526024820152fd5b346101ec5761047c6113663661196a565b9060405192611374846119c9565b60008452610476838383611b57565b346101ec576020806003193601126101ec5760043590600060e06040516113a9816119ac565b606081526060848201528260408201528260608201528260808201528260a08201528260c08201520152816000526002815260018060a01b03916113f583604060002054161515611e02565b600052600d81526040600020916040519161140f836119ac565b61141884611ab2565b835261142660018501611ab2565b8184019081526002850154926040850193845260038601546060860190815260048701546080870190815260058801549160ff83169160a089019160048410156103a8576114c060066101209c8860c08e6114de998952019860081c16885201549760e08c019889526114ad604051809e819e8d83525191610100809e82015201906118fe565b90518c8203601f190160408e01526118fe565b985160608b01525160808a01525160a08901525160c088019061199f565b511660e085015251908301520390f35b346101ec5760403660031901126101ec5760043560243560048110156101ec57600b54611531906001600160a01b03908116331480156112e65761124190611e4e565b81600052600d60205260ff600560406000200154169060048210156103a857816112e3826112b46040947f8e57a2be23e1738ef2e62e23518544bbb8f12cba85d0f47a4154fd56ef2fbcbc961415611ea6565b346101ec5760403660031901126101ec5761159d61193e565b602435906115aa81611f57565b8210156115dd5760018060a01b031660005260066020526040600020906000526020526020604060002054604051908152f35b60405163295f44f760e21b81526001600160a01b039190911660048201526024810191909152604490fd5b346101ec5760203660031901126101ec5760043560008181526002602052604090205461163f906001600160a01b03161515611e02565b600052600d6020526020600460406000200154604051908152f35b346101ec5761047c61166b3661196a565b91611b57565b346101ec5760003660031901126101ec576020600854604051908152f35b346101ec5760403660031901126101ec576116a861193e565b6024356116b481611f90565b33151580611763575b80611736575b61171e576001600160a01b039283169282918491167f8c5be1e5ebec7d5bd14f71427d1e84f3dd0314c0f7b2291e5b200ac8c7c3b925600080a4600090815260046020526040902080546001600160a01b0319169091179055005b60405163a9fbf51f60e01b8152336004820152602490fd5b5060018060a01b038116600052600560205260406000203360005260205260ff60406000205416156116c3565b506001600160a01b0381163314156116bd565b346101ec5760203660031901126101ec5760043561179381611f90565b506000526004602052602060018060a01b0360406000205416604051908152f35b346101ec5760003660031901126101ec576040516000805490826117d783611a78565b918282526020936001908560018216918260001461069b575050600114611805575061062a925003836119e5565b6000808052859250907f290decd9548b62a8d60345a988386fc84ba6bc95484008f6362f93160ef3e5635b85831061184757505061062a93508201018561061d565b80548389018501528794508693909201918101611830565b346101ec5760203660031901126101ec576004359063ffffffff60e01b82168092036101ec57602091632483248360e11b81149081156118a1575b5015158152f35b63780e9d6360e01b8114915081156118bb575b508361189a565b6380ac58cd60e01b8114915081156118ed575b81156118dc575b50836118b4565b6301ffc9a760e01b149050836118d5565b635b5e139f60e01b811491506118ce565b919082519283825260005b84811061192a575050826000602080949584010152601f8019910116010190565b602081830181015184830182015201611909565b600435906001600160a01b03821682036101ec57565b602435906001600160a01b03821682036101ec57565b60609060031901126101ec576001600160a01b039060043582811681036101ec579160243590811681036101ec579060443590565b9060048210156103a85752565b610100810190811067ffffffffffffffff821117610c5857604052565b6020810190811067ffffffffffffffff821117610c5857604052565b90601f8019910116810190811067ffffffffffffffff821117610c5857604052565b67ffffffffffffffff8111610c5857601f01601f191660200190565b929192611a2f82611a07565b91611a3d60405193846119e5565b8294818452818301116101ec578281602093846000960137010152565b9080601f830112156101ec57816020611a7593359101611a23565b90565b90600182811c92168015611aa8575b6020831014611a9257565b634e487b7160e01b600052602260045260246000fd5b91607f1691611a87565b90604051918260008254611ac581611a78565b90818452602094600191600181169081600014611b355750600114611af6575b505050611af4925003836119e5565b565b600090815285812095935091905b818310611b1d575050611af49350820101388080611ae5565b85548884018501529485019487945091830191611b04565b92505050611af494925060ff191682840152151560051b820101388080611ae5565b6001600160a01b0382811693918415611de957600094838652602095600287526040968488832054169633151580611d5b575b5087158015611d28575b84845260038352898420805460010190558784526002835289842080546001600160a01b0319168617905587858a7fddf252ad1be2c89b69c2b068fc378daa952ba7f163c4a11628f55a4df523b3ef8780a415611cbc5760085487845260098352808a852055600160401b811015611ca8578761090a826001611c1a9401600855611f0a565b838803611c56575b505050501692838303611c355750505050565b6064945051926364283d7b60e01b8452600484015260248301526044820152fd5b611c5f90611f57565b600019810193908411611c945782916007918a9452600681528383208584528152878484205587835252205538808080611c22565b634e487b7160e01b83526011600452602483fd5b634e487b7160e01b84526041600452602484fd5b878414611c1a57611ccc88611f57565b878452600783528984205490898552600684528a852091818103611d06575b5088855260078452848b812055845282528289812055611c1a565b8186528285528b862054818752808d8820558652600785528b86205538611ceb565b600088815260046020526040902080546001600160a01b0319169055888452600383528984208054600019019055611b94565b80611da8575b15611d6c5738611b8a565b888789611d89576024915190637e27328960e01b82526004820152fd5b905163177e802f60e01b81523360048201526024810191909152604490fd5b503388148015611dcd575b80611d6157508683526004825233868a8520541614611d61565b5087835260058252888320338452825260ff8984205416611db3565b604051633250574960e11b815260006004820152602490fd5b15611e0957565b60405162461bcd60e51b815260206004820152601e60248201527f50726f70657274794e46543a206e6f6e6578697374656e7420746f6b656e00006044820152606490fd5b15611e5557565b60405162461bcd60e51b8152602060048201526024808201527f50726f70657274794e46543a206e6f74206f776e6572206f7220617574686f726044820152631a5e995960e21b6064820152608490fd5b15611ead57565b60405162461bcd60e51b815260206004820152601d60248201527f50726f70657274794e46543a2073746174757320756e6368616e6765640000006044820152606490fd5b9060048110156103a85760ff80198354169116179055565b600854811015611f415760086000527ff3f7a9fe364faab93b216da50a3214154f22a0a2b415b23a84c8169e8b636ee30190600090565b634e487b7160e01b600052603260045260246000fd5b6001600160a01b03168015611f7757600052600360205260406000205490565b6040516322718ad960e21b815260006004820152602490fd5b6000818152600260205260409020546001600160a01b0316908115611fb3575090565b60249060405190637e27328960e01b82526004820152fd5b600b546001600160a01b03163303611fdf57565b60405163118cdaa760e01b8152336004820152602490fd5b90939192833b612009575b5050505050565b604051630a85bd0160e11b8082526001600160a01b0393841660048301529583166024820152604481019190915260806064820152949216926020929185906120569060848301906118fe565b039483816000978189895af1869181612101575b506120cb575050503d6000146120c2573d61208481611a07565b9061209260405192836119e5565b81528093823d92013e5b825192836120bd57604051633250574960e11b815260048101849052602490fd5b019050fd5b6060925061209c565b919450915063ffffffff60e01b16036120e957503880808080612002565b60249060405190633250574960e11b82526004820152fd5b9091508481813d831161213e575b61211981836119e5565b8101031261213a57516001600160e01b03198116810361213a57903861206a565b8680fd5b503d61210f56fea26469706673582212201cdd017a33d0e84c043339167976ca0776d687fb0bce735a93dd69e4f87f887564736f6c63430008180033","opcodes":"PUSH1 0x80 CALLVALUE PUSH3 0x3C9 JUMPI PUSH1 0x1F SWAP1 PUSH1 0x1 PUSH1 0x1 PUSH1 0x40 SHL SUB PUSH1 0x1F NOT PUSH3 0x256A CODESIZE DUP2 SWAP1 SUB DUP6 DUP2 ADD DUP4 AND DUP6 ADD DUP5 DUP2 GT DUP7 DUP3 LT OR PUSH3 0x3B3 JUMPI DUP6 SWAP3 DUP3 SWAP2 PUSH1 0x40 MSTORE DUP4 CODECOPY PUSH1 0x20 SWAP5 DUP6 SWAP2 DUP2 ADD SUB SLT PUSH3 0x3C9 JUMPI MLOAD PUSH1 0x1 PUSH1 0x1 PUSH1 0xA0 SHL SUB SWAP5 DUP6 DUP3 AND SWAP4 SWAP2 DUP5 SWAP1 SUB PUSH3 0x3C9 JUMPI PUSH3 0x68 PUSH3 0x3CE JUMP JUMPDEST SWAP5 PUSH1 0x17 DUP7 MSTORE PUSH32 0x53796E7469616E742041746C61732050726F7065727479000000000000000000 DUP2 DUP8 ADD MSTORE PUSH3 0x9C PUSH3 0x3CE JUMP JUMPDEST SWAP1 PUSH1 0x3 DUP3 MSTORE PUSH3 0x53415 PUSH1 0xEC SHL DUP2 DUP4 ADD MSTORE DUP7 MLOAD SWAP5 DUP5 DUP7 GT PUSH3 0x3B3 JUMPI PUSH1 0x0 SWAP6 DUP7 SLOAD SWAP9 PUSH1 0x1 SWAP10 DUP11 DUP2 DUP2 SHR SWAP2 AND DUP1 ISZERO PUSH3 0x3A8 JUMPI JUMPDEST DUP6 DUP3 LT EQ PUSH3 0x394 JUMPI SWAP1 DUP2 DUP8 DUP5 SWAP4 GT PUSH3 0x341 JUMPI JUMPDEST POP DUP5 SWAP1 DUP8 DUP4 GT PUSH1 0x1 EQ PUSH3 0x2E0 JUMPI DUP10 SWAP3 PUSH3 0x2D4 JUMPI JUMPDEST POP POP PUSH1 0x0 NOT PUSH1 0x3 DUP4 SWAP1 SHL SHR NOT AND SWAP1 DUP10 SHL OR DUP7 SSTORE JUMPDEST DUP3 MLOAD SWAP5 DUP6 GT PUSH3 0x2C0 JUMPI DUP8 SLOAD DUP9 DUP2 DUP2 SHR SWAP2 AND DUP1 ISZERO PUSH3 0x2B5 JUMPI JUMPDEST DUP4 DUP3 LT EQ PUSH3 0x2A1 JUMPI SWAP1 DUP2 DUP6 DUP8 SWAP7 SWAP6 SWAP5 SWAP4 GT PUSH3 0x248 JUMPI JUMPDEST POP DUP2 SWAP4 DUP6 GT PUSH1 0x1 EQ PUSH3 0x1E3 JUMPI POP POP DUP5 SWAP3 PUSH3 0x1D7 JUMPI JUMPDEST POP POP PUSH1 0x0 NOT PUSH1 0x3 DUP4 SWAP1 SHL SHR NOT AND SWAP1 DUP5 SHL OR DUP4 SSTORE JUMPDEST DUP2 ISZERO PUSH3 0x1BF JUMPI PUSH1 0xB DUP1 SLOAD PUSH1 0x1 PUSH1 0x1 PUSH1 0xA0 SHL SUB NOT DUP2 AND DUP5 OR SWAP1 SWAP2 SSTORE PUSH1 0x40 MLOAD SWAP5 AND SWAP1 PUSH32 0x8BE0079C531659141344CD1FD0A4F28419497F9722A3DAAFE3B4186F6B6457E0 SWAP1 DUP1 LOG3 PUSH1 0xC SSTORE PUSH2 0x217B SWAP1 DUP2 PUSH3 0x3EF DUP3 CODECOPY RETURN JUMPDEST PUSH1 0x24 SWAP1 PUSH1 0x40 MLOAD SWAP1 PUSH4 0x1E4FBDF7 PUSH1 0xE0 SHL DUP3 MSTORE PUSH1 0x4 DUP3 ADD MSTORE REVERT JUMPDEST ADD MLOAD SWAP1 POP CODESIZE DUP1 PUSH3 0x156 JUMP JUMPDEST DUP9 SWAP6 SWAP4 SWAP3 SWAP2 SWAP4 AND DUP6 DUP8 MSTORE DUP4 DUP8 KECCAK256 SWAP4 DUP8 SWAP1 JUMPDEST DUP3 DUP3 LT PUSH3 0x22E JUMPI POP POP DUP5 GT PUSH3 0x214 JUMPI JUMPDEST POP POP POP DUP2 SHL ADD DUP4 SSTORE PUSH3 0x16A JUMP JUMPDEST ADD MLOAD PUSH1 0x0 NOT PUSH1 0xF8 DUP5 PUSH1 0x3 SHL AND SHR NOT AND SWAP1 SSTORE CODESIZE DUP1 DUP1 PUSH3 0x206 JUMP JUMPDEST DUP5 DUP5 ADD MLOAD DUP7 SSTORE DUP11 SWAP8 SWAP1 SWAP6 ADD SWAP5 SWAP4 DUP5 ADD SWAP4 SWAP1 DUP2 ADD SWAP1 PUSH3 0x1F4 JUMP JUMPDEST SWAP1 SWAP2 SWAP3 SWAP4 SWAP5 POP DUP9 DUP8 MSTORE DUP3 DUP8 KECCAK256 DUP6 DUP1 DUP9 ADD PUSH1 0x5 SHR DUP3 ADD SWAP3 DUP6 DUP10 LT PUSH3 0x297 JUMPI JUMPDEST SWAP2 DUP9 SWAP8 DUP13 SWAP3 SWAP8 SWAP7 SWAP6 SWAP5 SWAP4 ADD PUSH1 0x5 SHR ADD SWAP2 JUMPDEST DUP3 DUP2 LT PUSH3 0x288 JUMPI POP POP PUSH3 0x13F JUMP JUMPDEST DUP10 DUP2 SSTORE DUP9 SWAP8 POP DUP12 SWAP2 ADD PUSH3 0x278 JUMP JUMPDEST SWAP3 POP DUP2 SWAP3 PUSH3 0x267 JUMP JUMPDEST PUSH4 0x4E487B71 PUSH1 0xE0 SHL DUP8 MSTORE PUSH1 0x22 PUSH1 0x4 MSTORE PUSH1 0x24 DUP8 REVERT JUMPDEST SWAP1 PUSH1 0x7F AND SWAP1 PUSH3 0x127 JUMP JUMPDEST PUSH4 0x4E487B71 PUSH1 0xE0 SHL DUP7 MSTORE PUSH1 0x41 PUSH1 0x4 MSTORE PUSH1 0x24 DUP7 REVERT JUMPDEST ADD MLOAD SWAP1 POP CODESIZE DUP1 PUSH3 0xF9 JUMP JUMPDEST SWAP1 DUP5 DUP13 SWAP5 AND SWAP2 DUP11 DUP1 MSTORE DUP7 DUP12 KECCAK256 SWAP3 DUP12 JUMPDEST DUP9 DUP3 DUP3 LT PUSH3 0x32A JUMPI POP POP DUP5 GT PUSH3 0x310 JUMPI JUMPDEST POP POP POP DUP2 SHL ADD DUP7 SSTORE PUSH3 0x10D JUMP JUMPDEST ADD MLOAD PUSH1 0x0 NOT PUSH1 0xF8 DUP5 PUSH1 0x3 SHL AND SHR NOT AND SWAP1 SSTORE CODESIZE DUP1 DUP1 PUSH3 0x302 JUMP JUMPDEST DUP4 DUP6 ADD MLOAD DUP7 SSTORE DUP16 SWAP8 SWAP1 SWAP6 ADD SWAP5 SWAP4 DUP5 ADD SWAP4 ADD PUSH3 0x2EF JUMP JUMPDEST SWAP1 SWAP2 POP DUP9 DUP1 MSTORE DUP5 DUP10 KECCAK256 DUP8 DUP1 DUP6 ADD PUSH1 0x5 SHR DUP3 ADD SWAP3 DUP8 DUP7 LT PUSH3 0x38A JUMPI JUMPDEST SWAP2 DUP14 SWAP2 DUP7 SWAP6 SWAP5 SWAP4 ADD PUSH1 0x5 SHR ADD SWAP2 JUMPDEST DUP3 DUP2 LT PUSH3 0x37B JUMPI POP POP PUSH3 0xE3 JUMP JUMPDEST DUP12 DUP2 SSTORE DUP6 SWAP5 POP DUP14 SWAP2 ADD PUSH3 0x36B JUMP JUMPDEST SWAP3 POP DUP2 SWAP3 PUSH3 0x35D JUMP JUMPDEST PUSH4 0x4E487B71 PUSH1 0xE0 SHL DUP10 MSTORE PUSH1 0x22 PUSH1 0x4 MSTORE PUSH1 0x24 DUP10 REVERT JUMPDEST SWAP1 PUSH1 0x7F AND SWAP1 PUSH3 0xCE JUMP JUMPDEST PUSH4 0x4E487B71 PUSH1 0xE0 SHL PUSH1 0x0 MSTORE PUSH1 0x41 PUSH1 0x4 MSTORE PUSH1 0x24 PUSH1 0x0 REVERT JUMPDEST PUSH1 0x0 DUP1 REVERT JUMPDEST PUSH1 0x40 DUP1 MLOAD SWAP2 SWAP1 DUP3 ADD PUSH1 0x1 PUSH1 0x1 PUSH1 0x40 SHL SUB DUP2 GT DUP4 DUP3 LT OR PUSH3 0x3B3 JUMPI PUSH1 0x40 MSTORE JUMP INVALID PUSH1 0x80 DUP1 PUSH1 0x40 MSTORE PUSH1 0x4 CALLDATASIZE LT ISZERO PUSH2 0x13 JUMPI PUSH1 0x0 DUP1 REVERT JUMPDEST PUSH1 0x0 CALLDATALOAD PUSH1 0xE0 SHR SWAP1 DUP2 PUSH4 0x1FFC9A7 EQ PUSH2 0x185F JUMPI POP DUP1 PUSH4 0x6FDDE03 EQ PUSH2 0x17B4 JUMPI DUP1 PUSH4 0x81812FC EQ PUSH2 0x1776 JUMPI DUP1 PUSH4 0x95EA7B3 EQ PUSH2 0x168F JUMPI DUP1 PUSH4 0x18160DDD EQ PUSH2 0x1671 JUMPI DUP1 PUSH4 0x23B872DD EQ PUSH2 0x165A JUMPI DUP1 PUSH4 0x282D7DA5 EQ PUSH2 0x1608 JUMPI DUP1 PUSH4 0x2F745C59 EQ PUSH2 0x1584 JUMPI DUP1 PUSH4 0x3A1B3D31 EQ PUSH2 0x14EE JUMPI DUP1 PUSH4 0x40F0A055 EQ PUSH2 0x1383 JUMPI DUP1 PUSH4 0x42842E0E EQ PUSH2 0x1355 JUMPI DUP1 PUSH4 0x4F6CCCE7 EQ PUSH2 0x12FF JUMPI DUP1 PUSH4 0x564C0AEC EQ PUSH2 0x11FB JUMPI DUP1 PUSH4 0x6352211E EQ PUSH2 0x11CB JUMPI DUP1 PUSH4 0x6688D5A2 EQ PUSH2 0x76C JUMPI DUP1 PUSH4 0x70A08231 EQ PUSH2 0x741 JUMPI DUP1 PUSH4 0x715018A6 EQ PUSH2 0x6E4 JUMPI DUP1 PUSH4 0x8DA5CB5B EQ PUSH2 0x6BB JUMPI DUP1 PUSH4 0x95D89B41 EQ PUSH2 0x5D8 JUMPI DUP1 PUSH4 0x98EAA4A7 EQ PUSH2 0x523 JUMPI DUP1 PUSH4 0xA22CB465 EQ PUSH2 0x47E JUMPI DUP1 PUSH4 0xB88D4FDE EQ PUSH2 0x410 JUMPI DUP1 PUSH4 0xBB0F3C1D EQ PUSH2 0x3BE JUMPI DUP1 PUSH4 0xC6731486 EQ PUSH2 0x349 JUMPI DUP1 PUSH4 0xC87B56DD EQ PUSH2 0x2EC JUMPI DUP1 PUSH4 0xD5B9221B EQ PUSH2 0x2AD JUMPI DUP1 PUSH4 0xE6B165ED EQ PUSH2 0x247 JUMPI DUP1 PUSH4 0xE985E9C5 EQ PUSH2 0x1F1 JUMPI PUSH4 0xF2FDE38B EQ PUSH2 0x15E JUMPI PUSH1 0x0 DUP1 REVERT JUMPDEST CALLVALUE PUSH2 0x1EC JUMPI PUSH1 0x20 CALLDATASIZE PUSH1 0x3 NOT ADD SLT PUSH2 0x1EC JUMPI PUSH2 0x177 PUSH2 0x193E JUMP JUMPDEST PUSH2 0x17F PUSH2 0x1FCB JUMP JUMPDEST PUSH1 0x1 PUSH1 0x1 PUSH1 0xA0 SHL SUB SWAP1 DUP2 AND SWAP1 DUP2 ISZERO PUSH2 0x1D3 JUMPI PUSH1 0xB SLOAD DUP3 PUSH12 0xFFFFFFFFFFFFFFFFFFFFFFFF PUSH1 0xA0 SHL DUP3 AND OR PUSH1 0xB SSTORE AND PUSH32 0x8BE0079C531659141344CD1FD0A4F28419497F9722A3DAAFE3B4186F6B6457E0 PUSH1 0x0 DUP1 LOG3 STOP JUMPDEST PUSH1 0x40 MLOAD PUSH4 0x1E4FBDF7 PUSH1 0xE0 SHL DUP2 MSTORE PUSH1 0x0 PUSH1 0x4 DUP3 ADD MSTORE PUSH1 0x24 SWAP1 REVERT JUMPDEST PUSH1 0x0 DUP1 REVERT JUMPDEST CALLVALUE PUSH2 0x1EC JUMPI PUSH1 0x40 CALLDATASIZE PUSH1 0x3 NOT ADD SLT PUSH2 0x1EC JUMPI PUSH2 0x20A PUSH2 0x193E JUMP JUMPDEST PUSH2 0x212 PUSH2 0x1954 JUMP JUMPDEST SWAP1 PUSH1 0x1 DUP1 PUSH1 0xA0 SHL SUB DUP1 SWAP2 AND PUSH1 0x0 MSTORE PUSH1 0x5 PUSH1 0x20 MSTORE PUSH1 0x40 PUSH1 0x0 KECCAK256 SWAP2 AND PUSH1 0x0 MSTORE PUSH1 0x20 MSTORE PUSH1 0x20 PUSH1 0xFF PUSH1 0x40 PUSH1 0x0 KECCAK256 SLOAD AND PUSH1 0x40 MLOAD SWAP1 ISZERO ISZERO DUP2 MSTORE RETURN JUMPDEST CALLVALUE PUSH2 0x1EC JUMPI PUSH1 0x20 CALLDATASIZE PUSH1 0x3 NOT ADD SLT PUSH2 0x1EC JUMPI PUSH2 0x260 PUSH2 0x193E JUMP JUMPDEST PUSH2 0x268 PUSH2 0x1FCB JUMP JUMPDEST PUSH1 0x1 PUSH1 0x1 PUSH1 0xA0 SHL SUB AND PUSH1 0x0 DUP2 DUP2 MSTORE PUSH1 0xF PUSH1 0x20 MSTORE PUSH1 0x40 DUP2 KECCAK256 DUP1 SLOAD PUSH1 0xFF NOT AND SWAP1 SSTORE PUSH32 0x98A35376356C1565159C1B44676FCFA951A2287E2A816E208CF92E7AEB585A4F SWAP1 DUP1 LOG2 STOP JUMPDEST CALLVALUE PUSH2 0x1EC JUMPI PUSH1 0x20 CALLDATASIZE PUSH1 0x3 NOT ADD SLT PUSH2 0x1EC JUMPI PUSH1 0x1 PUSH1 0x1 PUSH1 0xA0 SHL SUB PUSH2 0x2CE PUSH2 0x193E JUMP JUMPDEST AND PUSH1 0x0 MSTORE PUSH1 0xF PUSH1 0x20 MSTORE PUSH1 0x20 PUSH1 0xFF PUSH1 0x40 PUSH1 0x0 KECCAK256 SLOAD AND PUSH1 0x40 MLOAD SWAP1 ISZERO ISZERO DUP2 MSTORE RETURN JUMPDEST CALLVALUE PUSH2 0x1EC JUMPI PUSH1 0x20 CALLDATASIZE PUSH1 0x3 NOT ADD SLT PUSH2 0x1EC JUMPI PUSH1 0x4 CALLDATALOAD PUSH2 0x309 DUP2 PUSH2 0x1F90 JUMP JUMPDEST POP PUSH1 0x0 MSTORE PUSH1 0xA PUSH1 0x20 MSTORE PUSH2 0x345 PUSH2 0x322 PUSH1 0x40 PUSH1 0x0 KECCAK256 PUSH2 0x1AB2 JUMP JUMPDEST PUSH1 0x0 PUSH1 0x40 MLOAD PUSH2 0x330 DUP2 PUSH2 0x19C9 JUMP JUMPDEST MSTORE PUSH1 0x40 MLOAD SWAP2 DUP3 SWAP2 PUSH1 0x20 DUP4 MSTORE PUSH1 0x20 DUP4 ADD SWAP1 PUSH2 0x18FE JUMP JUMPDEST SUB SWAP1 RETURN JUMPDEST CALLVALUE PUSH2 0x1EC JUMPI PUSH1 0x20 CALLDATASIZE PUSH1 0x3 NOT ADD SLT PUSH2 0x1EC JUMPI PUSH1 0x4 CALLDATALOAD PUSH1 0x0 DUP2 DUP2 MSTORE PUSH1 0x2 PUSH1 0x20 MSTORE PUSH1 0x40 SWAP1 KECCAK256 SLOAD PUSH2 0x380 SWAP1 PUSH1 0x1 PUSH1 0x1 PUSH1 0xA0 SHL SUB AND ISZERO ISZERO PUSH2 0x1E02 JUMP JUMPDEST PUSH1 0x0 MSTORE PUSH1 0xD PUSH1 0x20 MSTORE PUSH1 0xFF PUSH1 0x5 PUSH1 0x40 PUSH1 0x0 KECCAK256 ADD SLOAD AND PUSH1 0x4 DUP2 LT ISZERO PUSH2 0x3A8 JUMPI PUSH1 0x20 SWAP1 PUSH1 0x40 MLOAD SWAP1 DUP2 MSTORE RETURN JUMPDEST PUSH4 0x4E487B71 PUSH1 0xE0 SHL PUSH1 0x0 MSTORE PUSH1 0x21 PUSH1 0x4 MSTORE PUSH1 0x24 PUSH1 0x0 REVERT JUMPDEST CALLVALUE PUSH2 0x1EC JUMPI PUSH1 0x20 CALLDATASIZE PUSH1 0x3 NOT ADD SLT PUSH2 0x1EC JUMPI PUSH1 0x4 CALLDATALOAD PUSH1 0x0 DUP2 DUP2 MSTORE PUSH1 0x2 PUSH1 0x20 MSTORE PUSH1 0x40 SWAP1 KECCAK256 SLOAD PUSH2 0x3F5 SWAP1 PUSH1 0x1 PUSH1 0x1 PUSH1 0xA0 SHL SUB AND ISZERO ISZERO PUSH2 0x1E02 JUMP JUMPDEST PUSH1 0x0 MSTORE PUSH1 0xD PUSH1 0x20 MSTORE PUSH1 0x20 PUSH1 0x3 PUSH1 0x40 PUSH1 0x0 KECCAK256 ADD SLOAD PUSH1 0x40 MLOAD SWAP1 DUP2 MSTORE RETURN JUMPDEST CALLVALUE PUSH2 0x1EC JUMPI PUSH1 0x80 CALLDATASIZE PUSH1 0x3 NOT ADD SLT PUSH2 0x1EC JUMPI PUSH2 0x429 PUSH2 0x193E JUMP JUMPDEST PUSH2 0x431 PUSH2 0x1954 JUMP JUMPDEST SWAP1 PUSH1 0x44 CALLDATALOAD PUSH1 0x64 CALLDATALOAD SWAP3 PUSH8 0xFFFFFFFFFFFFFFFF DUP5 GT PUSH2 0x1EC JUMPI CALLDATASIZE PUSH1 0x23 DUP6 ADD SLT ISZERO PUSH2 0x1EC JUMPI PUSH2 0x46A PUSH2 0x47C SWAP5 CALLDATASIZE SWAP1 PUSH1 0x24 DUP2 PUSH1 0x4 ADD CALLDATALOAD SWAP2 ADD PUSH2 0x1A23 JUMP JUMPDEST SWAP3 PUSH2 0x476 DUP4 DUP4 DUP4 PUSH2 0x1B57 JUMP JUMPDEST CALLER PUSH2 0x1FF7 JUMP JUMPDEST STOP JUMPDEST CALLVALUE PUSH2 0x1EC JUMPI PUSH1 0x40 CALLDATASIZE PUSH1 0x3 NOT ADD SLT PUSH2 0x1EC JUMPI PUSH2 0x497 PUSH2 0x193E JUMP JUMPDEST PUSH1 0x24 CALLDATALOAD SWAP1 DUP2 ISZERO ISZERO DUP1 SWAP3 SUB PUSH2 0x1EC JUMPI PUSH1 0x1 PUSH1 0x1 PUSH1 0xA0 SHL SUB AND SWAP1 DUP2 ISZERO PUSH2 0x50A JUMPI CALLER PUSH1 0x0 MSTORE PUSH1 0x5 PUSH1 0x20 MSTORE PUSH1 0x40 PUSH1 0x0 KECCAK256 DUP3 PUSH1 0x0 MSTORE PUSH1 0x20 MSTORE PUSH1 0x40 PUSH1 0x0 KECCAK256 PUSH1 0xFF NOT DUP2 SLOAD AND PUSH1 0xFF DUP4 AND OR SWAP1 SSTORE PUSH1 0x40 MLOAD SWAP1 DUP2 MSTORE PUSH32 0x17307EAB39AB6107E8899845AD3D59BD9653F200F220920489CA2B5937696C31 PUSH1 0x20 CALLER SWAP3 LOG3 STOP JUMPDEST PUSH1 0x40 MLOAD PUSH4 0xB611743 PUSH1 0xE3 SHL DUP2 MSTORE PUSH1 0x4 DUP2 ADD DUP4 SWAP1 MSTORE PUSH1 0x24 SWAP1 REVERT JUMPDEST CALLVALUE PUSH2 0x1EC JUMPI PUSH1 0x20 CALLDATASIZE PUSH1 0x3 NOT ADD SLT PUSH2 0x1EC JUMPI PUSH2 0x53C PUSH2 0x193E JUMP JUMPDEST PUSH2 0x544 PUSH2 0x1FCB JUMP JUMPDEST PUSH1 0x1 PUSH1 0x1 PUSH1 0xA0 SHL SUB AND DUP1 ISZERO PUSH2 0x593 JUMPI DUP1 PUSH1 0x0 MSTORE PUSH1 0xF PUSH1 0x20 MSTORE PUSH1 0x40 PUSH1 0x0 KECCAK256 PUSH1 0x1 PUSH1 0xFF NOT DUP3 SLOAD AND OR SWAP1 SSTORE PUSH32 0x351E40FE333CEDE9DD79A1EF4D16228B1702F272EB2C2166EC3C7EE6A9D4CE2C PUSH1 0x0 DUP1 LOG2 STOP JUMPDEST PUSH1 0x40 MLOAD PUSH3 0x461BCD PUSH1 0xE5 SHL DUP2 MSTORE PUSH1 0x20 PUSH1 0x4 DUP3 ADD MSTORE PUSH1 0x19 PUSH1 0x24 DUP3 ADD MSTORE PUSH32 0x50726F70657274794E46543A207A65726F206164647265737300000000000000 PUSH1 0x44 DUP3 ADD MSTORE PUSH1 0x64 SWAP1 REVERT JUMPDEST CALLVALUE PUSH2 0x1EC JUMPI PUSH1 0x0 CALLDATASIZE PUSH1 0x3 NOT ADD SLT PUSH2 0x1EC JUMPI PUSH1 0x40 MLOAD PUSH1 0x0 PUSH1 0x1 DUP3 PUSH1 0x1 SLOAD SWAP3 PUSH2 0x5FE DUP5 PUSH2 0x1A78 JUMP JUMPDEST SWAP3 DUP4 DUP4 MSTORE PUSH1 0x20 SWAP5 DUP6 PUSH1 0x1 DUP3 AND SWAP2 DUP3 PUSH1 0x0 EQ PUSH2 0x69B JUMPI POP POP PUSH1 0x1 EQ PUSH2 0x63E JUMPI JUMPDEST POP PUSH2 0x62A SWAP3 POP SUB DUP4 PUSH2 0x19E5 JUMP JUMPDEST PUSH2 0x345 PUSH1 0x40 MLOAD SWAP3 DUP3 DUP5 SWAP4 DUP5 MSTORE DUP4 ADD SWAP1 PUSH2 0x18FE JUMP JUMPDEST DUP5 SWAP2 POP PUSH1 0x1 PUSH1 0x0 MSTORE PUSH32 0xB10E2D527612073B26EECDFD717E6A320CF44B4AFAC2B0732D9FCBE2B7FA0CF6 SWAP1 PUSH1 0x0 SWAP2 JUMPDEST DUP6 DUP4 LT PUSH2 0x683 JUMPI POP POP PUSH2 0x62A SWAP4 POP DUP3 ADD ADD DUP6 PUSH2 0x61D JUMP JUMPDEST DUP1 SLOAD DUP4 DUP10 ADD DUP6 ADD MSTORE DUP8 SWAP5 POP DUP7 SWAP4 SWAP1 SWAP3 ADD SWAP2 DUP2 ADD PUSH2 0x66C JUMP JUMPDEST PUSH1 0xFF NOT AND DUP6 DUP3 ADD MSTORE PUSH2 0x62A SWAP6 ISZERO ISZERO PUSH1 0x5 SHL DUP6 ADD ADD SWAP3 POP DUP8 SWAP2 POP PUSH2 0x61D SWAP1 POP JUMP JUMPDEST CALLVALUE PUSH2 0x1EC JUMPI PUSH1 0x0 CALLDATASIZE PUSH1 0x3 NOT ADD SLT PUSH2 0x1EC JUMPI PUSH1 0xB SLOAD PUSH1 0x40 MLOAD PUSH1 0x1 PUSH1 0x1 PUSH1 0xA0 SHL SUB SWAP1 SWAP2 AND DUP2 MSTORE PUSH1 0x20 SWAP1 RETURN JUMPDEST CALLVALUE PUSH2 0x1EC JUMPI PUSH1 0x0 CALLDATASIZE PUSH1 0x3 NOT ADD SLT PUSH2 0x1EC JUMPI PUSH2 0x6FD PUSH2 0x1FCB JUMP JUMPDEST PUSH1 0xB DUP1 SLOAD PUSH1 0x1 PUSH1 0x1 PUSH1 0xA0 SHL SUB NOT DUP2 AND SWAP1 SWAP2 SSTORE PUSH1 0x0 SWAP1 PUSH1 0x1 PUSH1 0x1 PUSH1 0xA0 SHL SUB AND PUSH32 0x8BE0079C531659141344CD1FD0A4F28419497F9722A3DAAFE3B4186F6B6457E0 DUP3 DUP1 LOG3 STOP JUMPDEST CALLVALUE PUSH2 0x1EC JUMPI PUSH1 0x20 CALLDATASIZE PUSH1 0x3 NOT ADD SLT PUSH2 0x1EC JUMPI PUSH1 0x20 PUSH2 0x764 PUSH2 0x75F PUSH2 0x193E JUMP JUMPDEST PUSH2 0x1F57 JUMP JUMPDEST PUSH1 0x40 MLOAD SWAP1 DUP2 MSTORE RETURN JUMPDEST CALLVALUE PUSH2 0x1EC JUMPI PUSH1 0xE0 CALLDATASIZE PUSH1 0x3 NOT ADD SLT PUSH2 0x1EC JUMPI PUSH2 0x785 PUSH2 0x193E JUMP JUMPDEST PUSH1 0x24 CALLDATALOAD PUSH8 0xFFFFFFFFFFFFFFFF DUP2 GT PUSH2 0x1EC JUMPI PUSH2 0x7A5 SWAP1 CALLDATASIZE SWAP1 PUSH1 0x4 ADD PUSH2 0x1A5A JUMP JUMPDEST PUSH1 0x44 CALLDATALOAD PUSH8 0xFFFFFFFFFFFFFFFF DUP2 GT PUSH2 0x1EC JUMPI PUSH2 0x7C5 SWAP1 CALLDATASIZE SWAP1 PUSH1 0x4 ADD PUSH2 0x1A5A JUMP JUMPDEST SWAP2 PUSH1 0x64 CALLDATALOAD PUSH8 0xFFFFFFFFFFFFFFFF DUP2 GT PUSH2 0x1EC JUMPI PUSH2 0x7E6 SWAP1 CALLDATASIZE SWAP1 PUSH1 0x4 ADD PUSH2 0x1A5A JUMP JUMPDEST PUSH2 0x7EE PUSH2 0x1FCB JUMP JUMPDEST PUSH1 0x2 PUSH1 0xC SLOAD EQ PUSH2 0x11B9 JUMPI PUSH1 0x2 PUSH1 0xC SSTORE PUSH1 0x1 PUSH1 0x1 PUSH1 0xA0 SHL SUB DUP3 AND ISZERO PUSH2 0x1175 JUMPI PUSH1 0x84 CALLDATALOAD ISZERO PUSH2 0x1130 JUMPI PUSH1 0xA4 CALLDATALOAD ISZERO PUSH2 0x10EC JUMPI PUSH1 0xC4 CALLDATALOAD ISZERO ISZERO DUP1 PUSH2 0x10DE JUMPI JUMPDEST ISZERO PUSH2 0x108D JUMPI PUSH1 0xE SLOAD SWAP3 PUSH1 0x0 NOT DUP5 EQ PUSH2 0xFB0 JUMPI PUSH1 0x1 DUP5 ADD PUSH1 0xE SSTORE PUSH1 0x40 MLOAD PUSH2 0x84C DUP2 PUSH2 0x19C9 JUMP JUMPDEST PUSH1 0x0 DUP1 DUP3 MSTORE DUP6 DUP2 MSTORE PUSH1 0x2 PUSH1 0x20 MSTORE PUSH1 0x40 SWAP1 KECCAK256 SLOAD PUSH1 0x1 PUSH1 0x1 PUSH1 0xA0 SHL SUB AND DUP1 PUSH2 0x1056 JUMPI JUMPDEST PUSH1 0x1 PUSH1 0x1 PUSH1 0xA0 SHL SUB DUP6 AND PUSH1 0x0 DUP2 DUP2 MSTORE PUSH1 0x3 PUSH1 0x20 SWAP1 DUP2 MSTORE PUSH1 0x40 DUP1 DUP4 KECCAK256 DUP1 SLOAD PUSH1 0x1 ADD SWAP1 SSTORE DUP10 DUP4 MSTORE PUSH1 0x2 SWAP1 SWAP2 MSTORE DUP2 KECCAK256 DUP1 SLOAD PUSH1 0x1 PUSH1 0x1 PUSH1 0xA0 SHL SUB NOT AND DUP4 OR SWAP1 SSTORE DUP8 SWAP2 SWAP1 DUP4 SWAP1 PUSH32 0xDDF252AD1BE2C89B69C2B068FC378DAA952BA7F163C4A11628F55A4DF523B3EF SWAP1 DUP1 LOG4 DUP1 PUSH2 0xFC6 JUMPI PUSH1 0x8 SLOAD DUP7 PUSH1 0x0 MSTORE PUSH1 0x9 PUSH1 0x20 MSTORE DUP1 PUSH1 0x40 PUSH1 0x0 KECCAK256 SSTORE PUSH1 0x1 PUSH1 0x40 SHL DUP2 LT ISZERO PUSH2 0xC58 JUMPI DUP7 PUSH2 0x90A DUP3 PUSH1 0x1 PUSH2 0x923 SWAP5 ADD PUSH1 0x8 SSTORE PUSH2 0x1F0A JUMP JUMPDEST SWAP1 SWAP2 SWAP1 DUP3 SLOAD SWAP1 PUSH1 0x3 SHL SWAP2 DUP3 SHL SWAP2 PUSH1 0x0 NOT SWAP1 SHL NOT AND OR SWAP1 SSTORE JUMP JUMPDEST PUSH1 0x1 PUSH1 0x1 PUSH1 0xA0 SHL SUB DUP6 AND DUP2 SUB PUSH2 0xF5C JUMPI JUMPDEST PUSH2 0xF43 JUMPI DUP4 EXTCODESIZE PUSH2 0xDFC JUMPI JUMPDEST POP DUP4 PUSH1 0x0 MSTORE PUSH1 0xA PUSH1 0x20 MSTORE PUSH1 0x40 PUSH1 0x0 KECCAK256 SWAP1 DUP1 MLOAD SWAP1 PUSH8 0xFFFFFFFFFFFFFFFF DUP3 GT PUSH2 0xC58 JUMPI DUP2 SWAP1 PUSH2 0x96D DUP5 SLOAD PUSH2 0x1A78 JUMP JUMPDEST PUSH1 0x1F DUP2 GT PUSH2 0xDAC JUMPI JUMPDEST POP PUSH1 0x20 SWAP1 PUSH1 0x1F DUP4 GT PUSH1 0x1 EQ PUSH2 0xD40 JUMPI PUSH1 0x0 SWAP3 PUSH2 0xD35 JUMPI JUMPDEST POP POP DUP2 PUSH1 0x1 SHL SWAP2 PUSH1 0x0 NOT SWAP1 PUSH1 0x3 SHL SHR NOT AND OR SWAP1 SSTORE JUMPDEST PUSH32 0xF8E1A15ABA9398E019F0B49DF1A4FDE98EE17AE345CB5F6B5E2C27F5033E8CE7 PUSH1 0x20 PUSH1 0x40 MLOAD DUP6 DUP2 MSTORE LOG1 PUSH1 0x40 MLOAD SWAP4 PUSH2 0x9D9 DUP6 PUSH2 0x19AC JUMP JUMPDEST DUP5 MSTORE PUSH1 0x20 DUP5 ADD MSTORE PUSH1 0x84 CALLDATALOAD PUSH1 0x40 DUP5 ADD MSTORE PUSH1 0xA4 CALLDATALOAD PUSH1 0x60 DUP5 ADD MSTORE PUSH1 0xC4 CALLDATALOAD PUSH1 0x80 DUP5 ADD MSTORE PUSH1 0x0 PUSH1 0xA0 DUP5 ADD MSTORE PUSH1 0x1 DUP1 PUSH1 0xA0 SHL SUB DUP2 AND PUSH1 0xC0 DUP5 ADD MSTORE TIMESTAMP PUSH1 0xE0 DUP5 ADD MSTORE DUP2 PUSH1 0x0 MSTORE PUSH1 0xD PUSH1 0x20 MSTORE PUSH1 0x40 PUSH1 0x0 KECCAK256 DUP4 MLOAD DUP1 MLOAD SWAP1 PUSH8 0xFFFFFFFFFFFFFFFF DUP3 GT PUSH2 0xC58 JUMPI DUP2 SWAP1 PUSH2 0xA41 DUP5 SLOAD PUSH2 0x1A78 JUMP JUMPDEST PUSH1 0x1F DUP2 GT PUSH2 0xCE5 JUMPI JUMPDEST POP PUSH1 0x20 SWAP1 PUSH1 0x1F DUP4 GT PUSH1 0x1 EQ PUSH2 0xC79 JUMPI PUSH1 0x0 SWAP3 PUSH2 0xC6E JUMPI JUMPDEST POP POP DUP2 PUSH1 0x1 SHL SWAP2 PUSH1 0x0 NOT SWAP1 PUSH1 0x3 SHL SHR NOT AND OR DUP2 SSTORE JUMPDEST PUSH1 0x20 DUP5 ADD MLOAD DUP1 MLOAD SWAP1 PUSH8 0xFFFFFFFFFFFFFFFF DUP3 GT PUSH2 0xC58 JUMPI DUP2 SWAP1 PUSH2 0xA9C PUSH1 0x1 DUP6 ADD SLOAD PUSH2 0x1A78 JUMP JUMPDEST PUSH1 0x1F DUP2 GT PUSH2 0xC05 JUMPI JUMPDEST POP PUSH1 0x20 SWAP1 PUSH1 0x1F DUP4 GT PUSH1 0x1 EQ PUSH2 0xB93 JUMPI PUSH1 0x0 SWAP3 PUSH2 0xB88 JUMPI JUMPDEST POP POP DUP2 PUSH1 0x1 SHL SWAP2 PUSH1 0x0 NOT SWAP1 PUSH1 0x3 SHL SHR NOT AND OR PUSH1 0x1 DUP3 ADD SSTORE JUMPDEST PUSH1 0x40 DUP5 ADD MLOAD PUSH1 0x2 DUP3 ADD SSTORE PUSH1 0x60 DUP5 ADD MLOAD PUSH1 0x3 DUP3 ADD SSTORE PUSH1 0x80 DUP5 ADD MLOAD PUSH1 0x4 DUP3 ADD SSTORE PUSH1 0x5 DUP2 ADD PUSH1 0xA0 DUP6 ADD MLOAD PUSH1 0x4 DUP2 LT ISZERO PUSH2 0x3A8 JUMPI PUSH1 0x20 SWAP6 DUP3 PUSH2 0xB16 PUSH1 0xE0 SWAP4 PUSH1 0x6 SWAP6 PUSH2 0x1EF2 JUMP JUMPDEST PUSH1 0xC0 DUP3 ADD MLOAD DUP2 SLOAD PUSH2 0x100 PUSH1 0x1 PUSH1 0xA8 SHL SUB NOT AND PUSH1 0x8 SWAP2 SWAP1 SWAP2 SHL PUSH2 0x100 PUSH1 0x1 PUSH1 0xA8 SHL SUB AND OR SWAP1 SSTORE ADD MLOAD SWAP2 ADD SSTORE PUSH1 0x40 MLOAD PUSH1 0x84 CALLDATALOAD DUP2 MSTORE PUSH1 0x1 PUSH1 0x1 PUSH1 0xA0 SHL SUB SWAP1 SWAP2 AND SWAP1 DUP3 SWAP1 PUSH32 0x8E2073F25511F47A783A6A4B5407D046A7AEB09D0215F5126465A348C00E3A54 SWAP1 DUP6 SWAP1 LOG3 PUSH1 0x1 PUSH1 0xC SSTORE PUSH1 0x40 MLOAD SWAP1 DUP2 MSTORE RETURN JUMPDEST ADD MLOAD SWAP1 POP DUP7 DUP1 PUSH2 0xABC JUMP JUMPDEST SWAP3 POP PUSH1 0x1 DUP5 ADD PUSH1 0x0 MSTORE PUSH1 0x20 PUSH1 0x0 KECCAK256 SWAP1 PUSH1 0x0 SWAP4 JUMPDEST PUSH1 0x1F NOT DUP5 AND DUP6 LT PUSH2 0xBEA JUMPI PUSH1 0x1 SWAP5 POP DUP4 PUSH1 0x1F NOT DUP2 AND LT PUSH2 0xBD1 JUMPI JUMPDEST POP POP POP DUP2 SHL ADD PUSH1 0x1 DUP3 ADD SSTORE PUSH2 0xAD4 JUMP JUMPDEST ADD MLOAD PUSH1 0x0 NOT PUSH1 0xF8 DUP5 PUSH1 0x3 SHL AND SHR NOT AND SWAP1 SSTORE DUP7 DUP1 DUP1 PUSH2 0xBC1 JUMP JUMPDEST DUP2 DUP2 ADD MLOAD DUP4 SSTORE PUSH1 0x20 SWAP5 DUP6 ADD SWAP5 PUSH1 0x1 SWAP1 SWAP4 ADD SWAP3 SWAP1 SWAP2 ADD SWAP1 PUSH2 0xBA6 JUMP JUMPDEST SWAP1 SWAP2 POP PUSH1 0x1 DUP5 ADD PUSH1 0x0 MSTORE PUSH1 0x20 PUSH1 0x0 KECCAK256 PUSH1 0x1F DUP5 ADD PUSH1 0x5 SHR DUP2 ADD PUSH1 0x20 DUP6 LT PUSH2 0xC51 JUMPI JUMPDEST SWAP1 DUP5 SWAP4 SWAP3 SWAP2 JUMPDEST PUSH1 0x1F DUP4 ADD PUSH1 0x5 SHR DUP3 ADD DUP2 LT PUSH2 0xC42 JUMPI POP POP PUSH2 0xAA5 JUMP JUMPDEST PUSH1 0x0 DUP2 SSTORE DUP6 SWAP5 POP PUSH1 0x1 ADD PUSH2 0xC2C JUMP JUMPDEST POP DUP1 PUSH2 0xC26 JUMP JUMPDEST PUSH4 0x4E487B71 PUSH1 0xE0 SHL PUSH1 0x0 MSTORE PUSH1 0x41 PUSH1 0x4 MSTORE PUSH1 0x24 PUSH1 0x0 REVERT JUMPDEST ADD MLOAD SWAP1 POP DUP7 DUP1 PUSH2 0xA61 JUMP JUMPDEST SWAP3 POP DUP4 PUSH1 0x0 MSTORE PUSH1 0x20 PUSH1 0x0 KECCAK256 SWAP1 PUSH1 0x0 SWAP4 JUMPDEST PUSH1 0x1F NOT DUP5 AND DUP6 LT PUSH2 0xCCA JUMPI PUSH1 0x1 SWAP5 POP DUP4 PUSH1 0x1F NOT DUP2 AND LT PUSH2 0xCB1 JUMPI JUMPDEST POP POP POP DUP2 SHL ADD DUP2 SSTORE PUSH2 0xA76 JUMP JUMPDEST ADD MLOAD PUSH1 0x0 NOT PUSH1 0xF8 DUP5 PUSH1 0x3 SHL AND SHR NOT AND SWAP1 SSTORE DUP7 DUP1 DUP1 PUSH2 0xCA4 JUMP JUMPDEST DUP2 DUP2 ADD MLOAD DUP4 SSTORE PUSH1 0x20 SWAP5 DUP6 ADD SWAP5 PUSH1 0x1 SWAP1 SWAP4 ADD SWAP3 SWAP1 SWAP2 ADD SWAP1 PUSH2 0xC89 JUMP JUMPDEST SWAP1 SWAP2 POP DUP4 PUSH1 0x0 MSTORE PUSH1 0x20 PUSH1 0x0 KECCAK256 PUSH1 0x1F DUP5 ADD PUSH1 0x5 SHR DUP2 ADD PUSH1 0x20 DUP6 LT PUSH2 0xD2E JUMPI JUMPDEST SWAP1 DUP5 SWAP4 SWAP3 SWAP2 JUMPDEST PUSH1 0x1F DUP4 ADD PUSH1 0x5 SHR DUP3 ADD DUP2 LT PUSH2 0xD1F JUMPI POP POP PUSH2 0xA4A JUMP JUMPDEST PUSH1 0x0 DUP2 SSTORE DUP6 SWAP5 POP PUSH1 0x1 ADD PUSH2 0xD09 JUMP JUMPDEST POP DUP1 PUSH2 0xD03 JUMP JUMPDEST ADD MLOAD SWAP1 POP DUP8 DUP1 PUSH2 0x98D JUMP JUMPDEST SWAP3 POP DUP4 PUSH1 0x0 MSTORE PUSH1 0x20 PUSH1 0x0 KECCAK256 SWAP1 PUSH1 0x0 SWAP4 JUMPDEST PUSH1 0x1F NOT DUP5 AND DUP6 LT PUSH2 0xD91 JUMPI PUSH1 0x1 SWAP5 POP DUP4 PUSH1 0x1F NOT DUP2 AND LT PUSH2 0xD78 JUMPI JUMPDEST POP POP POP DUP2 SHL ADD SWAP1 SSTORE PUSH2 0x9A2 JUMP JUMPDEST ADD MLOAD PUSH1 0x0 NOT PUSH1 0xF8 DUP5 PUSH1 0x3 SHL AND SHR NOT AND SWAP1 SSTORE DUP8 DUP1 DUP1 PUSH2 0xD6B JUMP JUMPDEST DUP2 DUP2 ADD MLOAD DUP4 SSTORE PUSH1 0x20 SWAP5 DUP6 ADD SWAP5 PUSH1 0x1 SWAP1 SWAP4 ADD SWAP3 SWAP1 SWAP2 ADD SWAP1 PUSH2 0xD50 JUMP JUMPDEST SWAP1 SWAP2 POP DUP4 PUSH1 0x0 MSTORE PUSH1 0x20 PUSH1 0x0 KECCAK256 PUSH1 0x1F DUP5 ADD PUSH1 0x5 SHR DUP2 ADD PUSH1 0x20 DUP6 LT PUSH2 0xDF5 JUMPI JUMPDEST SWAP1 DUP5 SWAP4 SWAP3 SWAP2 JUMPDEST PUSH1 0x1F DUP4 ADD PUSH1 0x5 SHR DUP3 ADD DUP2 LT PUSH2 0xDE6 JUMPI POP POP PUSH2 0x976 JUMP JUMPDEST PUSH1 0x0 DUP2 SSTORE DUP6 SWAP5 POP PUSH1 0x1 ADD PUSH2 0xDD0 JUMP JUMPDEST POP DUP1 PUSH2 0xDCA JUMP JUMPDEST PUSH1 0x20 PUSH2 0xE3B SWAP2 PUSH1 0x40 SWAP8 SWAP7 SWAP6 SWAP8 MLOAD DUP1 SWAP4 DUP2 SWAP3 PUSH4 0xA85BD01 PUSH1 0xE1 SHL DUP4 MSTORE CALLER PUSH1 0x4 DUP5 ADD MSTORE PUSH1 0x0 PUSH1 0x24 DUP5 ADD MSTORE DUP9 PUSH1 0x44 DUP5 ADD MSTORE PUSH1 0x80 PUSH1 0x64 DUP5 ADD MSTORE PUSH1 0x84 DUP4 ADD SWAP1 PUSH2 0x18FE JUMP JUMPDEST SUB DUP2 PUSH1 0x0 PUSH1 0x1 PUSH1 0x1 PUSH1 0xA0 SHL SUB DUP12 AND GAS CALL PUSH1 0x0 SWAP2 DUP2 PUSH2 0xEFE JUMPI JUMPDEST POP PUSH2 0xEBC JUMPI DUP6 RETURNDATASIZE ISZERO PUSH2 0xEB4 JUMPI RETURNDATASIZE SWAP1 PUSH2 0xE6B DUP3 PUSH2 0x1A07 JUMP JUMPDEST SWAP2 PUSH2 0xE79 PUSH1 0x40 MLOAD SWAP4 DUP5 PUSH2 0x19E5 JUMP JUMPDEST DUP3 MSTORE RETURNDATASIZE PUSH1 0x0 PUSH1 0x20 DUP5 ADD RETURNDATACOPY JUMPDEST DUP2 MLOAD SWAP2 DUP3 PUSH2 0xEAD JUMPI PUSH1 0x40 MLOAD PUSH4 0x32505749 PUSH1 0xE1 SHL DUP2 MSTORE PUSH1 0x1 PUSH1 0x1 PUSH1 0xA0 SHL SUB DUP4 AND PUSH1 0x4 DUP3 ADD MSTORE PUSH1 0x24 SWAP1 REVERT JUMPDEST PUSH1 0x20 SWAP2 POP ADD REVERT JUMPDEST PUSH1 0x60 SWAP1 PUSH2 0xE84 JUMP JUMPDEST SWAP4 SWAP5 SWAP3 SWAP4 PUSH1 0x1 PUSH1 0x1 PUSH1 0xE0 SHL SUB NOT AND PUSH4 0x757A42FF PUSH1 0xE1 SHL ADD PUSH2 0xEDD JUMPI DUP6 PUSH2 0x93F JUMP JUMPDEST PUSH1 0x40 MLOAD PUSH4 0x32505749 PUSH1 0xE1 SHL DUP2 MSTORE PUSH1 0x1 PUSH1 0x1 PUSH1 0xA0 SHL SUB DUP5 AND PUSH1 0x4 DUP3 ADD MSTORE PUSH1 0x24 SWAP1 REVERT JUMPDEST SWAP1 SWAP2 POP PUSH1 0x20 DUP2 RETURNDATASIZE PUSH1 0x20 GT PUSH2 0xF3B JUMPI JUMPDEST DUP2 PUSH2 0xF1A PUSH1 0x20 SWAP4 DUP4 PUSH2 0x19E5 JUMP JUMPDEST DUP2 ADD SUB SLT PUSH2 0x1EC JUMPI MLOAD PUSH1 0x1 PUSH1 0x1 PUSH1 0xE0 SHL SUB NOT DUP2 AND DUP2 SUB PUSH2 0x1EC JUMPI SWAP1 DUP8 PUSH2 0xE54 JUMP JUMPDEST RETURNDATASIZE SWAP2 POP PUSH2 0xF0D JUMP JUMPDEST PUSH1 0x40 MLOAD PUSH4 0x39E35637 PUSH1 0xE1 SHL DUP2 MSTORE PUSH1 0x0 PUSH1 0x4 DUP3 ADD MSTORE PUSH1 0x24 SWAP1 REVERT JUMPDEST PUSH2 0xF65 DUP6 PUSH2 0x1F57 JUMP JUMPDEST DUP1 PUSH1 0x0 NOT DUP2 ADD GT PUSH2 0xFB0 JUMPI PUSH1 0x1 DUP1 PUSH1 0xA0 SHL SUB DUP7 AND PUSH1 0x0 MSTORE PUSH1 0x6 PUSH1 0x20 MSTORE PUSH1 0x40 PUSH1 0x0 KECCAK256 PUSH1 0x0 NOT DUP3 ADD PUSH1 0x0 MSTORE PUSH1 0x20 MSTORE DUP7 PUSH1 0x40 PUSH1 0x0 KECCAK256 SSTORE DUP7 PUSH1 0x0 MSTORE PUSH1 0x7 PUSH1 0x20 MSTORE PUSH1 0x0 NOT ADD PUSH1 0x40 PUSH1 0x0 KECCAK256 SSTORE PUSH2 0x934 JUMP JUMPDEST PUSH4 0x4E487B71 PUSH1 0xE0 SHL PUSH1 0x0 MSTORE PUSH1 0x11 PUSH1 0x4 MSTORE PUSH1 0x24 PUSH1 0x0 REVERT JUMPDEST PUSH1 0x1 PUSH1 0x1 PUSH1 0xA0 SHL SUB DUP6 AND DUP2 EQ PUSH2 0x923 JUMPI PUSH2 0xFDF DUP2 PUSH2 0x1F57 JUMP JUMPDEST DUP7 PUSH1 0x0 MSTORE PUSH1 0x7 PUSH1 0x20 MSTORE PUSH1 0x40 PUSH1 0x0 KECCAK256 SLOAD SWAP1 DUP3 PUSH1 0x0 MSTORE PUSH1 0x6 PUSH1 0x20 MSTORE PUSH1 0x40 PUSH1 0x0 KECCAK256 SWAP2 DUP2 DUP2 SUB PUSH2 0x1029 JUMPI JUMPDEST POP DUP8 PUSH1 0x0 MSTORE PUSH1 0x7 PUSH1 0x20 MSTORE PUSH1 0x0 PUSH1 0x40 DUP2 KECCAK256 SSTORE PUSH1 0x0 MSTORE PUSH1 0x20 MSTORE PUSH1 0x0 PUSH1 0x40 DUP2 KECCAK256 SSTORE PUSH2 0x923 JUMP JUMPDEST DUP2 PUSH1 0x0 MSTORE DUP3 PUSH1 0x20 MSTORE PUSH1 0x40 PUSH1 0x0 KECCAK256 SLOAD DUP2 PUSH1 0x0 MSTORE DUP1 PUSH1 0x40 PUSH1 0x0 KECCAK256 SSTORE PUSH1 0x0 MSTORE PUSH1 0x7 PUSH1 0x20 MSTORE PUSH1 0x40 PUSH1 0x0 KECCAK256 SSTORE DUP10 PUSH2 0x1006 JUMP JUMPDEST PUSH1 0x0 DUP7 DUP2 MSTORE PUSH1 0x4 PUSH1 0x20 MSTORE PUSH1 0x40 SWAP1 KECCAK256 DUP1 SLOAD PUSH1 0x1 PUSH1 0x1 PUSH1 0xA0 SHL SUB NOT AND SWAP1 SSTORE DUP1 PUSH1 0x0 MSTORE PUSH1 0x3 PUSH1 0x20 MSTORE PUSH1 0x40 PUSH1 0x0 KECCAK256 PUSH1 0x0 NOT DUP2 SLOAD ADD SWAP1 SSTORE PUSH2 0x86D JUMP JUMPDEST PUSH1 0x40 MLOAD PUSH3 0x461BCD PUSH1 0xE5 SHL DUP2 MSTORE PUSH1 0x20 PUSH1 0x4 DUP3 ADD MSTORE PUSH1 0x23 PUSH1 0x24 DUP3 ADD MSTORE PUSH32 0x50726F70657274794E46543A20696E76616C6964206D696E20696E766573746D PUSH1 0x44 DUP3 ADD MSTORE PUSH3 0x195B9D PUSH1 0xEA SHL PUSH1 0x64 DUP3 ADD MSTORE PUSH1 0x84 SWAP1 REVERT JUMPDEST POP PUSH1 0xA4 CALLDATALOAD PUSH1 0xC4 CALLDATALOAD GT ISZERO PUSH2 0x827 JUMP JUMPDEST PUSH1 0x64 PUSH1 0x40 MLOAD PUSH3 0x461BCD PUSH1 0xE5 SHL DUP2 MSTORE PUSH1 0x20 PUSH1 0x4 DUP3 ADD MSTORE PUSH1 0x20 PUSH1 0x24 DUP3 ADD MSTORE PUSH32 0x50726F70657274794E46543A207A65726F2066756E64696E6720746172676574 PUSH1 0x44 DUP3 ADD MSTORE REVERT JUMPDEST PUSH1 0x40 MLOAD PUSH3 0x461BCD PUSH1 0xE5 SHL DUP2 MSTORE PUSH1 0x20 PUSH1 0x4 DUP3 ADD MSTORE PUSH1 0x1D PUSH1 0x24 DUP3 ADD MSTORE PUSH32 0x50726F70657274794E46543A207A65726F20746F74616C2076616C7565000000 PUSH1 0x44 DUP3 ADD MSTORE PUSH1 0x64 SWAP1 REVERT JUMPDEST PUSH1 0x64 PUSH1 0x40 MLOAD PUSH3 0x461BCD PUSH1 0xE5 SHL DUP2 MSTORE PUSH1 0x20 PUSH1 0x4 DUP3 ADD MSTORE PUSH1 0x20 PUSH1 0x24 DUP3 ADD MSTORE PUSH32 0x50726F70657274794E46543A207A65726F20616464726573732073656C6C6572 PUSH1 0x44 DUP3 ADD MSTORE REVERT JUMPDEST PUSH1 0x40 MLOAD PUSH4 0x3EE5AEB5 PUSH1 0xE0 SHL DUP2 MSTORE PUSH1 0x4 SWAP1 REVERT JUMPDEST CALLVALUE PUSH2 0x1EC JUMPI PUSH1 0x20 CALLDATASIZE PUSH1 0x3 NOT ADD SLT PUSH2 0x1EC JUMPI PUSH1 0x20 PUSH2 0x11E9 PUSH1 0x4 CALLDATALOAD PUSH2 0x1F90 JUMP JUMPDEST PUSH1 0x40 MLOAD PUSH1 0x1 PUSH1 0x1 PUSH1 0xA0 SHL SUB SWAP1 SWAP2 AND DUP2 MSTORE RETURN JUMPDEST CALLVALUE PUSH2 0x1EC JUMPI PUSH1 0x40 CALLDATASIZE PUSH1 0x3 NOT ADD SLT PUSH2 0x1EC JUMPI PUSH1 0x4 CALLDATALOAD PUSH1 0x24 CALLDATALOAD PUSH1 0xFF DUP2 AND DUP1 SWAP2 SUB PUSH2 0x1EC JUMPI PUSH1 0xB SLOAD PUSH2 0x1258 SWAP1 PUSH1 0x1 PUSH1 0x1 PUSH1 0xA0 SHL SUB SWAP1 DUP2 AND CALLER EQ DUP1 ISZERO PUSH2 0x12E6 JUMPI JUMPDEST PUSH2 0x1241 SWAP1 PUSH2 0x1E4E JUMP JUMPDEST DUP4 PUSH1 0x0 MSTORE PUSH1 0x2 PUSH1 0x20 MSTORE PUSH1 0x40 PUSH1 0x0 KECCAK256 SLOAD AND ISZERO ISZERO PUSH2 0x1E02 JUMP JUMPDEST PUSH1 0x4 DUP2 LT ISZERO PUSH2 0x3A8 JUMPI DUP2 PUSH1 0x0 MSTORE PUSH1 0xD PUSH1 0x20 MSTORE PUSH1 0xFF PUSH1 0x5 PUSH1 0x40 PUSH1 0x0 KECCAK256 ADD SLOAD AND SWAP1 PUSH1 0x4 DUP3 LT ISZERO PUSH2 0x3A8 JUMPI DUP2 PUSH2 0x12E3 DUP3 PUSH2 0x12B4 PUSH1 0x40 SWAP5 PUSH32 0x8E57A2BE23E1738EF2E62E23518544BBB8F12CBA85D0F47A4154FD56EF2FBCBC SWAP7 EQ ISZERO PUSH2 0x1EA6 JUMP JUMPDEST DUP6 PUSH1 0x0 MSTORE PUSH1 0xD PUSH1 0x20 MSTORE PUSH2 0x12CD DUP2 PUSH1 0x5 DUP7 PUSH1 0x0 KECCAK256 ADD PUSH2 0x1EF2 JUMP JUMPDEST PUSH2 0x12D9 DUP5 MLOAD DUP1 SWAP5 PUSH2 0x199F JUMP JUMPDEST PUSH1 0x20 DUP4 ADD SWAP1 PUSH2 0x199F JUMP JUMPDEST LOG2 STOP JUMPDEST POP CALLER PUSH1 0x0 SWAP1 DUP2 MSTORE PUSH1 0xF PUSH1 0x20 MSTORE PUSH1 0x40 SWAP1 KECCAK256 SLOAD PUSH1 0xFF AND PUSH2 0x1238 JUMP JUMPDEST CALLVALUE PUSH2 0x1EC JUMPI PUSH1 0x20 CALLDATASIZE PUSH1 0x3 NOT ADD SLT PUSH2 0x1EC JUMPI PUSH1 0x4 CALLDATALOAD PUSH1 0x8 SLOAD DUP2 LT ISZERO PUSH2 0x1336 JUMPI PUSH2 0x1328 PUSH1 0x20 SWAP2 PUSH2 0x1F0A JUMP JUMPDEST SWAP1 SLOAD PUSH1 0x40 MLOAD SWAP2 PUSH1 0x3 SHL SHR DUP2 MSTORE RETURN JUMPDEST PUSH1 0x44 SWAP1 PUSH1 0x40 MLOAD SWAP1 PUSH4 0x295F44F7 PUSH1 0xE2 SHL DUP3 MSTORE PUSH1 0x0 PUSH1 0x4 DUP4 ADD MSTORE PUSH1 0x24 DUP3 ADD MSTORE REVERT JUMPDEST CALLVALUE PUSH2 0x1EC JUMPI PUSH2 0x47C PUSH2 0x1366 CALLDATASIZE PUSH2 0x196A JUMP JUMPDEST SWAP1 PUSH1 0x40 MLOAD SWAP3 PUSH2 0x1374 DUP5 PUSH2 0x19C9 JUMP JUMPDEST PUSH1 0x0 DUP5 MSTORE PUSH2 0x476 DUP4 DUP4 DUP4 PUSH2 0x1B57 JUMP JUMPDEST CALLVALUE PUSH2 0x1EC JUMPI PUSH1 0x20 DUP1 PUSH1 0x3 NOT CALLDATASIZE ADD SLT PUSH2 0x1EC JUMPI PUSH1 0x4 CALLDATALOAD SWAP1 PUSH1 0x0 PUSH1 0xE0 PUSH1 0x40 MLOAD PUSH2 0x13A9 DUP2 PUSH2 0x19AC JUMP JUMPDEST PUSH1 0x60 DUP2 MSTORE PUSH1 0x60 DUP5 DUP3 ADD MSTORE DUP3 PUSH1 0x40 DUP3 ADD MSTORE DUP3 PUSH1 0x60 DUP3 ADD MSTORE DUP3 PUSH1 0x80 DUP3 ADD MSTORE DUP3 PUSH1 0xA0 DUP3 ADD MSTORE DUP3 PUSH1 0xC0 DUP3 ADD MSTORE ADD MSTORE DUP2 PUSH1 0x0 MSTORE PUSH1 0x2 DUP2 MSTORE PUSH1 0x1 DUP1 PUSH1 0xA0 SHL SUB SWAP2 PUSH2 0x13F5 DUP4 PUSH1 0x40 PUSH1 0x0 KECCAK256 SLOAD AND ISZERO ISZERO PUSH2 0x1E02 JUMP JUMPDEST PUSH1 0x0 MSTORE PUSH1 0xD DUP2 MSTORE PUSH1 0x40 PUSH1 0x0 KECCAK256 SWAP2 PUSH1 0x40 MLOAD SWAP2 PUSH2 0x140F DUP4 PUSH2 0x19AC JUMP JUMPDEST PUSH2 0x1418 DUP5 PUSH2 0x1AB2 JUMP JUMPDEST DUP4 MSTORE PUSH2 0x1426 PUSH1 0x1 DUP6 ADD PUSH2 0x1AB2 JUMP JUMPDEST DUP2 DUP5 ADD SWAP1 DUP2 MSTORE PUSH1 0x2 DUP6 ADD SLOAD SWAP3 PUSH1 0x40 DUP6 ADD SWAP4 DUP5 MSTORE PUSH1 0x3 DUP7 ADD SLOAD PUSH1 0x60 DUP7 ADD SWAP1 DUP2 MSTORE PUSH1 0x4 DUP8 ADD SLOAD PUSH1 0x80 DUP8 ADD SWAP1 DUP2 MSTORE PUSH1 0x5 DUP9 ADD SLOAD SWAP2 PUSH1 0xFF DUP4 AND SWAP2 PUSH1 0xA0 DUP10 ADD SWAP2 PUSH1 0x4 DUP5 LT ISZERO PUSH2 0x3A8 JUMPI PUSH2 0x14C0 PUSH1 0x6 PUSH2 0x120 SWAP13 DUP9 PUSH1 0xC0 DUP15 PUSH2 0x14DE SWAP10 DUP10 MSTORE ADD SWAP9 PUSH1 0x8 SHR AND DUP9 MSTORE ADD SLOAD SWAP8 PUSH1 0xE0 DUP13 ADD SWAP9 DUP10 MSTORE PUSH2 0x14AD PUSH1 0x40 MLOAD DUP1 SWAP15 DUP2 SWAP15 DUP14 DUP4 MSTORE MLOAD SWAP2 PUSH2 0x100 DUP1 SWAP15 DUP3 ADD MSTORE ADD SWAP1 PUSH2 0x18FE JUMP JUMPDEST SWAP1 MLOAD DUP13 DUP3 SUB PUSH1 0x1F NOT ADD PUSH1 0x40 DUP15 ADD MSTORE PUSH2 0x18FE JUMP JUMPDEST SWAP9 MLOAD PUSH1 0x60 DUP12 ADD MSTORE MLOAD PUSH1 0x80 DUP11 ADD MSTORE MLOAD PUSH1 0xA0 DUP10 ADD MSTORE MLOAD PUSH1 0xC0 DUP9 ADD SWAP1 PUSH2 0x199F JUMP JUMPDEST MLOAD AND PUSH1 0xE0 DUP6 ADD MSTORE MLOAD SWAP1 DUP4 ADD MSTORE SUB SWAP1 RETURN JUMPDEST CALLVALUE PUSH2 0x1EC JUMPI PUSH1 0x40 CALLDATASIZE PUSH1 0x3 NOT ADD SLT PUSH2 0x1EC JUMPI PUSH1 0x4 CALLDATALOAD PUSH1 0x24 CALLDATALOAD PUSH1 0x4 DUP2 LT ISZERO PUSH2 0x1EC JUMPI PUSH1 0xB SLOAD PUSH2 0x1531 SWAP1 PUSH1 0x1 PUSH1 0x1 PUSH1 0xA0 SHL SUB SWAP1 DUP2 AND CALLER EQ DUP1 ISZERO PUSH2 0x12E6 JUMPI PUSH2 0x1241 SWAP1 PUSH2 0x1E4E JUMP JUMPDEST DUP2 PUSH1 0x0 MSTORE PUSH1 0xD PUSH1 0x20 MSTORE PUSH1 0xFF PUSH1 0x5 PUSH1 0x40 PUSH1 0x0 KECCAK256 ADD SLOAD AND SWAP1 PUSH1 0x4 DUP3 LT ISZERO PUSH2 0x3A8 JUMPI DUP2 PUSH2 0x12E3 DUP3 PUSH2 0x12B4 PUSH1 0x40 SWAP5 PUSH32 0x8E57A2BE23E1738EF2E62E23518544BBB8F12CBA85D0F47A4154FD56EF2FBCBC SWAP7 EQ ISZERO PUSH2 0x1EA6 JUMP JUMPDEST CALLVALUE PUSH2 0x1EC JUMPI PUSH1 0x40 CALLDATASIZE PUSH1 0x3 NOT ADD SLT PUSH2 0x1EC JUMPI PUSH2 0x159D PUSH2 0x193E JUMP JUMPDEST PUSH1 0x24 CALLDATALOAD SWAP1 PUSH2 0x15AA DUP2 PUSH2 0x1F57 JUMP JUMPDEST DUP3 LT ISZERO PUSH2 0x15DD JUMPI PUSH1 0x1 DUP1 PUSH1 0xA0 SHL SUB AND PUSH1 0x0 MSTORE PUSH1 0x6 PUSH1 0x20 MSTORE PUSH1 0x40 PUSH1 0x0 KECCAK256 SWAP1 PUSH1 0x0 MSTORE PUSH1 0x20 MSTORE PUSH1 0x20 PUSH1 0x40 PUSH1 0x0 KECCAK256 SLOAD PUSH1 0x40 MLOAD SWAP1 DUP2 MSTORE RETURN JUMPDEST PUSH1 0x40 MLOAD PUSH4 0x295F44F7 PUSH1 0xE2 SHL DUP2 MSTORE PUSH1 0x1 PUSH1 0x1 PUSH1 0xA0 SHL SUB SWAP2 SWAP1 SWAP2 AND PUSH1 0x4 DUP3 ADD MSTORE PUSH1 0x24 DUP2 ADD SWAP2 SWAP1 SWAP2 MSTORE PUSH1 0x44 SWAP1 REVERT JUMPDEST CALLVALUE PUSH2 0x1EC JUMPI PUSH1 0x20 CALLDATASIZE PUSH1 0x3 NOT ADD SLT PUSH2 0x1EC JUMPI PUSH1 0x4 CALLDATALOAD PUSH1 0x0 DUP2 DUP2 MSTORE PUSH1 0x2 PUSH1 0x20 MSTORE PUSH1 0x40 SWAP1 KECCAK256 SLOAD PUSH2 0x163F SWAP1 PUSH1 0x1 PUSH1 0x1 PUSH1 0xA0 SHL SUB AND ISZERO ISZERO PUSH2 0x1E02 JUMP JUMPDEST PUSH1 0x0 MSTORE PUSH1 0xD PUSH1 0x20 MSTORE PUSH1 0x20 PUSH1 0x4 PUSH1 0x40 PUSH1 0x0 KECCAK256 ADD SLOAD PUSH1 0x40 MLOAD SWAP1 DUP2 MSTORE RETURN JUMPDEST CALLVALUE PUSH2 0x1EC JUMPI PUSH2 0x47C PUSH2 0x166B CALLDATASIZE PUSH2 0x196A JUMP JUMPDEST SWAP2 PUSH2 0x1B57 JUMP JUMPDEST CALLVALUE PUSH2 0x1EC JUMPI PUSH1 0x0 CALLDATASIZE PUSH1 0x3 NOT ADD SLT PUSH2 0x1EC JUMPI PUSH1 0x20 PUSH1 0x8 SLOAD PUSH1 0x40 MLOAD SWAP1 DUP2 MSTORE RETURN JUMPDEST CALLVALUE PUSH2 0x1EC JUMPI PUSH1 0x40 CALLDATASIZE PUSH1 0x3 NOT ADD SLT PUSH2 0x1EC JUMPI PUSH2 0x16A8 PUSH2 0x193E JUMP JUMPDEST PUSH1 0x24 CALLDATALOAD PUSH2 0x16B4 DUP2 PUSH2 0x1F90 JUMP JUMPDEST CALLER ISZERO ISZERO DUP1 PUSH2 0x1763 JUMPI JUMPDEST DUP1 PUSH2 0x1736 JUMPI JUMPDEST PUSH2 0x171E JUMPI PUSH1 0x1 PUSH1 0x1 PUSH1 0xA0 SHL SUB SWAP3 DUP4 AND SWAP3 DUP3 SWAP2 DUP5 SWAP2 AND PUSH32 0x8C5BE1E5EBEC7D5BD14F71427D1E84F3DD0314C0F7B2291E5B200AC8C7C3B925 PUSH1 0x0 DUP1 LOG4 PUSH1 0x0 SWAP1 DUP2 MSTORE PUSH1 0x4 PUSH1 0x20 MSTORE PUSH1 0x40 SWAP1 KECCAK256 DUP1 SLOAD PUSH1 0x1 PUSH1 0x1 PUSH1 0xA0 SHL SUB NOT AND SWAP1 SWAP2 OR SWAP1 SSTORE STOP JUMPDEST PUSH1 0x40 MLOAD PUSH4 0xA9FBF51F PUSH1 0xE0 SHL DUP2 MSTORE CALLER PUSH1 0x4 DUP3 ADD MSTORE PUSH1 0x24 SWAP1 REVERT JUMPDEST POP PUSH1 0x1 DUP1 PUSH1 0xA0 SHL SUB DUP2 AND PUSH1 0x0 MSTORE PUSH1 0x5 PUSH1 0x20 MSTORE PUSH1 0x40 PUSH1 0x0 KECCAK256 CALLER PUSH1 0x0 MSTORE PUSH1 0x20 MSTORE PUSH1 0xFF PUSH1 0x40 PUSH1 0x0 KECCAK256 SLOAD AND ISZERO PUSH2 0x16C3 JUMP JUMPDEST POP PUSH1 0x1 PUSH1 0x1 PUSH1 0xA0 SHL SUB DUP2 AND CALLER EQ ISZERO PUSH2 0x16BD JUMP JUMPDEST CALLVALUE PUSH2 0x1EC JUMPI PUSH1 0x20 CALLDATASIZE PUSH1 0x3 NOT ADD SLT PUSH2 0x1EC JUMPI PUSH1 0x4 CALLDATALOAD PUSH2 0x1793 DUP2 PUSH2 0x1F90 JUMP JUMPDEST POP PUSH1 0x0 MSTORE PUSH1 0x4 PUSH1 0x20 MSTORE PUSH1 0x20 PUSH1 0x1 DUP1 PUSH1 0xA0 SHL SUB PUSH1 0x40 PUSH1 0x0 KECCAK256 SLOAD AND PUSH1 0x40 MLOAD SWAP1 DUP2 MSTORE RETURN JUMPDEST CALLVALUE PUSH2 0x1EC JUMPI PUSH1 0x0 CALLDATASIZE PUSH1 0x3 NOT ADD SLT PUSH2 0x1EC JUMPI PUSH1 0x40 MLOAD PUSH1 0x0 DUP1 SLOAD SWAP1 DUP3 PUSH2 0x17D7 DUP4 PUSH2 0x1A78 JUMP JUMPDEST SWAP2 DUP3 DUP3 MSTORE PUSH1 0x20 SWAP4 PUSH1 0x1 SWAP1 DUP6 PUSH1 0x1 DUP3 AND SWAP2 DUP3 PUSH1 0x0 EQ PUSH2 0x69B JUMPI POP POP PUSH1 0x1 EQ PUSH2 0x1805 JUMPI POP PUSH2 0x62A SWAP3 POP SUB DUP4 PUSH2 0x19E5 JUMP JUMPDEST PUSH1 0x0 DUP1 DUP1 MSTORE DUP6 SWAP3 POP SWAP1 PUSH32 0x290DECD9548B62A8D60345A988386FC84BA6BC95484008F6362F93160EF3E563 JUMPDEST DUP6 DUP4 LT PUSH2 0x1847 JUMPI POP POP PUSH2 0x62A SWAP4 POP DUP3 ADD ADD DUP6 PUSH2 0x61D JUMP JUMPDEST DUP1 SLOAD DUP4 DUP10 ADD DUP6 ADD MSTORE DUP8 SWAP5 POP DUP7 SWAP4 SWAP1 SWAP3 ADD SWAP2 DUP2 ADD PUSH2 0x1830 JUMP JUMPDEST CALLVALUE PUSH2 0x1EC JUMPI PUSH1 0x20 CALLDATASIZE PUSH1 0x3 NOT ADD SLT PUSH2 0x1EC JUMPI PUSH1 0x4 CALLDATALOAD SWAP1 PUSH4 0xFFFFFFFF PUSH1 0xE0 SHL DUP3 AND DUP1 SWAP3 SUB PUSH2 0x1EC JUMPI PUSH1 0x20 SWAP2 PUSH4 0x24832483 PUSH1 0xE1 SHL DUP2 EQ SWAP1 DUP2 ISZERO PUSH2 0x18A1 JUMPI JUMPDEST POP ISZERO ISZERO DUP2 MSTORE RETURN JUMPDEST PUSH4 0x780E9D63 PUSH1 0xE0 SHL DUP2 EQ SWAP2 POP DUP2 ISZERO PUSH2 0x18BB JUMPI JUMPDEST POP DUP4 PUSH2 0x189A JUMP JUMPDEST PUSH4 0x80AC58CD PUSH1 0xE0 SHL DUP2 EQ SWAP2 POP DUP2 ISZERO PUSH2 0x18ED JUMPI JUMPDEST DUP2 ISZERO PUSH2 0x18DC JUMPI JUMPDEST POP DUP4 PUSH2 0x18B4 JUMP JUMPDEST PUSH4 0x1FFC9A7 PUSH1 0xE0 SHL EQ SWAP1 POP DUP4 PUSH2 0x18D5 JUMP JUMPDEST PUSH4 0x5B5E139F PUSH1 0xE0 SHL DUP2 EQ SWAP2 POP PUSH2 0x18CE JUMP JUMPDEST SWAP2 SWAP1 DUP3 MLOAD SWAP3 DUP4 DUP3 MSTORE PUSH1 0x0 JUMPDEST DUP5 DUP2 LT PUSH2 0x192A JUMPI POP POP DUP3 PUSH1 0x0 PUSH1 0x20 DUP1 SWAP5 SWAP6 DUP5 ADD ADD MSTORE PUSH1 0x1F DUP1 NOT SWAP2 ADD AND ADD ADD SWAP1 JUMP JUMPDEST PUSH1 0x20 DUP2 DUP4 ADD DUP2 ADD MLOAD DUP5 DUP4 ADD DUP3 ADD MSTORE ADD PUSH2 0x1909 JUMP JUMPDEST PUSH1 0x4 CALLDATALOAD SWAP1 PUSH1 0x1 PUSH1 0x1 PUSH1 0xA0 SHL SUB DUP3 AND DUP3 SUB PUSH2 0x1EC JUMPI JUMP JUMPDEST PUSH1 0x24 CALLDATALOAD SWAP1 PUSH1 0x1 PUSH1 0x1 PUSH1 0xA0 SHL SUB DUP3 AND DUP3 SUB PUSH2 0x1EC JUMPI JUMP JUMPDEST PUSH1 0x60 SWAP1 PUSH1 0x3 NOT ADD SLT PUSH2 0x1EC JUMPI PUSH1 0x1 PUSH1 0x1 PUSH1 0xA0 SHL SUB SWAP1 PUSH1 0x4 CALLDATALOAD DUP3 DUP2 AND DUP2 SUB PUSH2 0x1EC JUMPI SWAP2 PUSH1 0x24 CALLDATALOAD SWAP1 DUP2 AND DUP2 SUB PUSH2 0x1EC JUMPI SWAP1 PUSH1 0x44 CALLDATALOAD SWAP1 JUMP JUMPDEST SWAP1 PUSH1 0x4 DUP3 LT ISZERO PUSH2 0x3A8 JUMPI MSTORE JUMP JUMPDEST PUSH2 0x100 DUP2 ADD SWAP1 DUP2 LT PUSH8 0xFFFFFFFFFFFFFFFF DUP3 GT OR PUSH2 0xC58 JUMPI PUSH1 0x40 MSTORE JUMP JUMPDEST PUSH1 0x20 DUP2 ADD SWAP1 DUP2 LT PUSH8 0xFFFFFFFFFFFFFFFF DUP3 GT OR PUSH2 0xC58 JUMPI PUSH1 0x40 MSTORE JUMP JUMPDEST SWAP1 PUSH1 0x1F DUP1 NOT SWAP2 ADD AND DUP2 ADD SWAP1 DUP2 LT PUSH8 0xFFFFFFFFFFFFFFFF DUP3 GT OR PUSH2 0xC58 JUMPI PUSH1 0x40 MSTORE JUMP JUMPDEST PUSH8 0xFFFFFFFFFFFFFFFF DUP2 GT PUSH2 0xC58 JUMPI PUSH1 0x1F ADD PUSH1 0x1F NOT AND PUSH1 0x20 ADD SWAP1 JUMP JUMPDEST SWAP3 SWAP2 SWAP3 PUSH2 0x1A2F DUP3 PUSH2 0x1A07 JUMP JUMPDEST SWAP2 PUSH2 0x1A3D PUSH1 0x40 MLOAD SWAP4 DUP5 PUSH2 0x19E5 JUMP JUMPDEST DUP3 SWAP5 DUP2 DUP5 MSTORE DUP2 DUP4 ADD GT PUSH2 0x1EC JUMPI DUP3 DUP2 PUSH1 0x20 SWAP4 DUP5 PUSH1 0x0 SWAP7 ADD CALLDATACOPY ADD ADD MSTORE JUMP JUMPDEST SWAP1 DUP1 PUSH1 0x1F DUP4 ADD SLT ISZERO PUSH2 0x1EC JUMPI DUP2 PUSH1 0x20 PUSH2 0x1A75 SWAP4 CALLDATALOAD SWAP2 ADD PUSH2 0x1A23 JUMP JUMPDEST SWAP1 JUMP JUMPDEST SWAP1 PUSH1 0x1 DUP3 DUP2 SHR SWAP3 AND DUP1 ISZERO PUSH2 0x1AA8 JUMPI JUMPDEST PUSH1 0x20 DUP4 LT EQ PUSH2 0x1A92 JUMPI JUMP JUMPDEST PUSH4 0x4E487B71 PUSH1 0xE0 SHL PUSH1 0x0 MSTORE PUSH1 0x22 PUSH1 0x4 MSTORE PUSH1 0x24 PUSH1 0x0 REVERT JUMPDEST SWAP2 PUSH1 0x7F AND SWAP2 PUSH2 0x1A87 JUMP JUMPDEST SWAP1 PUSH1 0x40 MLOAD SWAP2 DUP3 PUSH1 0x0 DUP3 SLOAD PUSH2 0x1AC5 DUP2 PUSH2 0x1A78 JUMP JUMPDEST SWAP1 DUP2 DUP5 MSTORE PUSH1 0x20 SWAP5 PUSH1 0x1 SWAP2 PUSH1 0x1 DUP2 AND SWAP1 DUP2 PUSH1 0x0 EQ PUSH2 0x1B35 JUMPI POP PUSH1 0x1 EQ PUSH2 0x1AF6 JUMPI JUMPDEST POP POP POP PUSH2 0x1AF4 SWAP3 POP SUB DUP4 PUSH2 0x19E5 JUMP JUMPDEST JUMP JUMPDEST PUSH1 0x0 SWAP1 DUP2 MSTORE DUP6 DUP2 KECCAK256 SWAP6 SWAP4 POP SWAP2 SWAP1 JUMPDEST DUP2 DUP4 LT PUSH2 0x1B1D JUMPI POP POP PUSH2 0x1AF4 SWAP4 POP DUP3 ADD ADD CODESIZE DUP1 DUP1 PUSH2 0x1AE5 JUMP JUMPDEST DUP6 SLOAD DUP9 DUP5 ADD DUP6 ADD MSTORE SWAP5 DUP6 ADD SWAP5 DUP8 SWAP5 POP SWAP2 DUP4 ADD SWAP2 PUSH2 0x1B04 JUMP JUMPDEST SWAP3 POP POP POP PUSH2 0x1AF4 SWAP5 SWAP3 POP PUSH1 0xFF NOT AND DUP3 DUP5 ADD MSTORE ISZERO ISZERO PUSH1 0x5 SHL DUP3 ADD ADD CODESIZE DUP1 DUP1 PUSH2 0x1AE5 JUMP JUMPDEST PUSH1 0x1 PUSH1 0x1 PUSH1 0xA0 SHL SUB DUP3 DUP2 AND SWAP4 SWAP2 DUP5 ISZERO PUSH2 0x1DE9 JUMPI PUSH1 0x0 SWAP5 DUP4 DUP7 MSTORE PUSH1 0x20 SWAP6 PUSH1 0x2 DUP8 MSTORE PUSH1 0x40 SWAP7 DUP5 DUP9 DUP4 KECCAK256 SLOAD AND SWAP7 CALLER ISZERO ISZERO DUP1 PUSH2 0x1D5B JUMPI JUMPDEST POP DUP8 ISZERO DUP1 ISZERO PUSH2 0x1D28 JUMPI JUMPDEST DUP5 DUP5 MSTORE PUSH1 0x3 DUP4 MSTORE DUP10 DUP5 KECCAK256 DUP1 SLOAD PUSH1 0x1 ADD SWAP1 SSTORE DUP8 DUP5 MSTORE PUSH1 0x2 DUP4 MSTORE DUP10 DUP5 KECCAK256 DUP1 SLOAD PUSH1 0x1 PUSH1 0x1 PUSH1 0xA0 SHL SUB NOT AND DUP7 OR SWAP1 SSTORE DUP8 DUP6 DUP11 PUSH32 0xDDF252AD1BE2C89B69C2B068FC378DAA952BA7F163C4A11628F55A4DF523B3EF DUP8 DUP1 LOG4 ISZERO PUSH2 0x1CBC JUMPI PUSH1 0x8 SLOAD DUP8 DUP5 MSTORE PUSH1 0x9 DUP4 MSTORE DUP1 DUP11 DUP6 KECCAK256 SSTORE PUSH1 0x1 PUSH1 0x40 SHL DUP2 LT ISZERO PUSH2 0x1CA8 JUMPI DUP8 PUSH2 0x90A DUP3 PUSH1 0x1 PUSH2 0x1C1A SWAP5 ADD PUSH1 0x8 SSTORE PUSH2 0x1F0A JUMP JUMPDEST DUP4 DUP9 SUB PUSH2 0x1C56 JUMPI JUMPDEST POP POP POP POP AND SWAP3 DUP4 DUP4 SUB PUSH2 0x1C35 JUMPI POP POP POP POP JUMP JUMPDEST PUSH1 0x64 SWAP5 POP MLOAD SWAP3 PUSH4 0x64283D7B PUSH1 0xE0 SHL DUP5 MSTORE PUSH1 0x4 DUP5 ADD MSTORE PUSH1 0x24 DUP4 ADD MSTORE PUSH1 0x44 DUP3 ADD MSTORE REVERT JUMPDEST PUSH2 0x1C5F SWAP1 PUSH2 0x1F57 JUMP JUMPDEST PUSH1 0x0 NOT DUP2 ADD SWAP4 SWAP1 DUP5 GT PUSH2 0x1C94 JUMPI DUP3 SWAP2 PUSH1 0x7 SWAP2 DUP11 SWAP5 MSTORE PUSH1 0x6 DUP2 MSTORE DUP4 DUP4 KECCAK256 DUP6 DUP5 MSTORE DUP2 MSTORE DUP8 DUP5 DUP5 KECCAK256 SSTORE DUP8 DUP4 MSTORE MSTORE KECCAK256 SSTORE CODESIZE DUP1 DUP1 DUP1 PUSH2 0x1C22 JUMP JUMPDEST PUSH4 0x4E487B71 PUSH1 0xE0 SHL DUP4 MSTORE PUSH1 0x11 PUSH1 0x4 MSTORE PUSH1 0x24 DUP4 REVERT JUMPDEST PUSH4 0x4E487B71 PUSH1 0xE0 SHL DUP5 MSTORE PUSH1 0x41 PUSH1 0x4 MSTORE PUSH1 0x24 DUP5 REVERT JUMPDEST DUP8 DUP5 EQ PUSH2 0x1C1A JUMPI PUSH2 0x1CCC DUP9 PUSH2 0x1F57 JUMP JUMPDEST DUP8 DUP5 MSTORE PUSH1 0x7 DUP4 MSTORE DUP10 DUP5 KECCAK256 SLOAD SWAP1 DUP10 DUP6 MSTORE PUSH1 0x6 DUP5 MSTORE DUP11 DUP6 KECCAK256 SWAP2 DUP2 DUP2 SUB PUSH2 0x1D06 JUMPI JUMPDEST POP DUP9 DUP6 MSTORE PUSH1 0x7 DUP5 MSTORE DUP5 DUP12 DUP2 KECCAK256 SSTORE DUP5 MSTORE DUP3 MSTORE DUP3 DUP10 DUP2 KECCAK256 SSTORE PUSH2 0x1C1A JUMP JUMPDEST DUP2 DUP7 MSTORE DUP3 DUP6 MSTORE DUP12 DUP7 KECCAK256 SLOAD DUP2 DUP8 MSTORE DUP1 DUP14 DUP9 KECCAK256 SSTORE DUP7 MSTORE PUSH1 0x7 DUP6 MSTORE DUP12 DUP7 KECCAK256 SSTORE CODESIZE PUSH2 0x1CEB JUMP JUMPDEST PUSH1 0x0 DUP9 DUP2 MSTORE PUSH1 0x4 PUSH1 0x20 MSTORE PUSH1 0x40 SWAP1 KECCAK256 DUP1 SLOAD PUSH1 0x1 PUSH1 0x1 PUSH1 0xA0 SHL SUB NOT AND SWAP1 SSTORE DUP9 DUP5 MSTORE PUSH1 0x3 DUP4 MSTORE DUP10 DUP5 KECCAK256 DUP1 SLOAD PUSH1 0x0 NOT ADD SWAP1 SSTORE PUSH2 0x1B94 JUMP JUMPDEST DUP1 PUSH2 0x1DA8 JUMPI JUMPDEST ISZERO PUSH2 0x1D6C JUMPI CODESIZE PUSH2 0x1B8A JUMP JUMPDEST DUP9 DUP8 DUP10 PUSH2 0x1D89 JUMPI PUSH1 0x24 SWAP2 MLOAD SWAP1 PUSH4 0x7E273289 PUSH1 0xE0 SHL DUP3 MSTORE PUSH1 0x4 DUP3 ADD MSTORE REVERT JUMPDEST SWAP1 MLOAD PUSH4 0x177E802F PUSH1 0xE0 SHL DUP2 MSTORE CALLER PUSH1 0x4 DUP3 ADD MSTORE PUSH1 0x24 DUP2 ADD SWAP2 SWAP1 SWAP2 MSTORE PUSH1 0x44 SWAP1 REVERT JUMPDEST POP CALLER DUP9 EQ DUP1 ISZERO PUSH2 0x1DCD JUMPI JUMPDEST DUP1 PUSH2 0x1D61 JUMPI POP DUP7 DUP4 MSTORE PUSH1 0x4 DUP3 MSTORE CALLER DUP7 DUP11 DUP6 KECCAK256 SLOAD AND EQ PUSH2 0x1D61 JUMP JUMPDEST POP DUP8 DUP4 MSTORE PUSH1 0x5 DUP3 MSTORE DUP9 DUP4 KECCAK256 CALLER DUP5 MSTORE DUP3 MSTORE PUSH1 0xFF DUP10 DUP5 KECCAK256 SLOAD AND PUSH2 0x1DB3 JUMP JUMPDEST PUSH1 0x40 MLOAD PUSH4 0x32505749 PUSH1 0xE1 SHL DUP2 MSTORE PUSH1 0x0 PUSH1 0x4 DUP3 ADD MSTORE PUSH1 0x24 SWAP1 REVERT JUMPDEST ISZERO PUSH2 0x1E09 JUMPI JUMP JUMPDEST PUSH1 0x40 MLOAD PUSH3 0x461BCD PUSH1 0xE5 SHL DUP2 MSTORE PUSH1 0x20 PUSH1 0x4 DUP3 ADD MSTORE PUSH1 0x1E PUSH1 0x24 DUP3 ADD MSTORE PUSH32 0x50726F70657274794E46543A206E6F6E6578697374656E7420746F6B656E0000 PUSH1 0x44 DUP3 ADD MSTORE PUSH1 0x64 SWAP1 REVERT JUMPDEST ISZERO PUSH2 0x1E55 JUMPI JUMP JUMPDEST PUSH1 0x40 MLOAD PUSH3 0x461BCD PUSH1 0xE5 SHL DUP2 MSTORE PUSH1 0x20 PUSH1 0x4 DUP3 ADD MSTORE PUSH1 0x24 DUP1 DUP3 ADD MSTORE PUSH32 0x50726F70657274794E46543A206E6F74206F776E6572206F7220617574686F72 PUSH1 0x44 DUP3 ADD MSTORE PUSH4 0x1A5E9959 PUSH1 0xE2 SHL PUSH1 0x64 DUP3 ADD MSTORE PUSH1 0x84 SWAP1 REVERT JUMPDEST ISZERO PUSH2 0x1EAD JUMPI JUMP JUMPDEST PUSH1 0x40 MLOAD PUSH3 0x461BCD PUSH1 0xE5 SHL DUP2 MSTORE PUSH1 0x20 PUSH1 0x4 DUP3 ADD MSTORE PUSH1 0x1D PUSH1 0x24 DUP3 ADD MSTORE PUSH32 0x50726F70657274794E46543A2073746174757320756E6368616E676564000000 PUSH1 0x44 DUP3 ADD MSTORE PUSH1 0x64 SWAP1 REVERT JUMPDEST SWAP1 PUSH1 0x4 DUP2 LT ISZERO PUSH2 0x3A8 JUMPI PUSH1 0xFF DUP1 NOT DUP4 SLOAD AND SWAP2 AND OR SWAP1 SSTORE JUMP JUMPDEST PUSH1 0x8 SLOAD DUP2 LT ISZERO PUSH2 0x1F41 JUMPI PUSH1 0x8 PUSH1 0x0 MSTORE PUSH32 0xF3F7A9FE364FAAB93B216DA50A3214154F22A0A2B415B23A84C8169E8B636EE3 ADD SWAP1 PUSH1 0x0 SWAP1 JUMP JUMPDEST PUSH4 0x4E487B71 PUSH1 0xE0 SHL PUSH1 0x0 MSTORE PUSH1 0x32 PUSH1 0x4 MSTORE PUSH1 0x24 PUSH1 0x0 REVERT JUMPDEST PUSH1 0x1 PUSH1 0x1 PUSH1 0xA0 SHL SUB AND DUP1 ISZERO PUSH2 0x1F77 JUMPI PUSH1 0x0 MSTORE PUSH1 0x3 PUSH1 0x20 MSTORE PUSH1 0x40 PUSH1 0x0 KECCAK256 SLOAD SWAP1 JUMP JUMPDEST PUSH1 0x40 MLOAD PUSH4 0x22718AD9 PUSH1 0xE2 SHL DUP2 MSTORE PUSH1 0x0 PUSH1 0x4 DUP3 ADD MSTORE PUSH1 0x24 SWAP1 REVERT JUMPDEST PUSH1 0x0 DUP2 DUP2 MSTORE PUSH1 0x2 PUSH1 0x20 MSTORE PUSH1 0x40 SWAP1 KECCAK256 SLOAD PUSH1 0x1 PUSH1 0x1 PUSH1 0xA0 SHL SUB AND SWAP1 DUP2 ISZERO PUSH2 0x1FB3 JUMPI POP SWAP1 JUMP JUMPDEST PUSH1 0x24 SWAP1 PUSH1 0x40 MLOAD SWAP1 PUSH4 0x7E273289 PUSH1 0xE0 SHL DUP3 MSTORE PUSH1 0x4 DUP3 ADD MSTORE REVERT JUMPDEST PUSH1 0xB SLOAD PUSH1 0x1 PUSH1 0x1 PUSH1 0xA0 SHL SUB AND CALLER SUB PUSH2 0x1FDF JUMPI JUMP JUMPDEST PUSH1 0x40 MLOAD PUSH4 0x118CDAA7 PUSH1 0xE0 SHL DUP2 MSTORE CALLER PUSH1 0x4 DUP3 ADD MSTORE PUSH1 0x24 SWAP1 REVERT JUMPDEST SWAP1 SWAP4 SWAP2 SWAP3 DUP4 EXTCODESIZE PUSH2 0x2009 JUMPI JUMPDEST POP POP POP POP POP JUMP JUMPDEST PUSH1 0x40 MLOAD PUSH4 0xA85BD01 PUSH1 0xE1 SHL DUP1 DUP3 MSTORE PUSH1 0x1 PUSH1 0x1 PUSH1 0xA0 SHL SUB SWAP4 DUP5 AND PUSH1 0x4 DUP4 ADD MSTORE SWAP6 DUP4 AND PUSH1 0x24 DUP3 ADD MSTORE PUSH1 0x44 DUP2 ADD SWAP2 SWAP1 SWAP2 MSTORE PUSH1 0x80 PUSH1 0x64 DUP3 ADD MSTORE SWAP5 SWAP3 AND SWAP3 PUSH1 0x20 SWAP3 SWAP2 DUP6 SWAP1 PUSH2 0x2056 SWAP1 PUSH1 0x84 DUP4 ADD SWAP1 PUSH2 0x18FE JUMP JUMPDEST SUB SWAP5 DUP4 DUP2 PUSH1 0x0 SWAP8 DUP2 DUP10 DUP10 GAS CALL DUP7 SWAP2 DUP2 PUSH2 0x2101 JUMPI JUMPDEST POP PUSH2 0x20CB JUMPI POP POP POP RETURNDATASIZE PUSH1 0x0 EQ PUSH2 0x20C2 JUMPI RETURNDATASIZE PUSH2 0x2084 DUP2 PUSH2 0x1A07 JUMP JUMPDEST SWAP1 PUSH2 0x2092 PUSH1 0x40 MLOAD SWAP3 DUP4 PUSH2 0x19E5 JUMP JUMPDEST DUP2 MSTORE DUP1 SWAP4 DUP3 RETURNDATASIZE SWAP3 ADD RETURNDATACOPY JUMPDEST DUP3 MLOAD SWAP3 DUP4 PUSH2 0x20BD JUMPI PUSH1 0x40 MLOAD PUSH4 0x32505749 PUSH1 0xE1 SHL DUP2 MSTORE PUSH1 0x4 DUP2 ADD DUP5 SWAP1 MSTORE PUSH1 0x24 SWAP1 REVERT JUMPDEST ADD SWAP1 POP REVERT JUMPDEST PUSH1 0x60 SWAP3 POP PUSH2 0x209C JUMP JUMPDEST SWAP2 SWAP5 POP SWAP2 POP PUSH4 0xFFFFFFFF PUSH1 0xE0 SHL AND SUB PUSH2 0x20E9 JUMPI POP CODESIZE DUP1 DUP1 DUP1 DUP1 PUSH2 0x2002 JUMP JUMPDEST PUSH1 0x24 SWAP1 PUSH1 0x40 MLOAD SWAP1 PUSH4 0x32505749 PUSH1 0xE1 SHL DUP3 MSTORE PUSH1 0x4 DUP3 ADD MSTORE REVERT JUMPDEST SWAP1 SWAP2 POP DUP5 DUP2 DUP2 RETURNDATASIZE DUP4 GT PUSH2 0x213E JUMPI JUMPDEST PUSH2 0x2119 DUP2 DUP4 PUSH2 0x19E5 JUMP JUMPDEST DUP2 ADD SUB SLT PUSH2 0x213A JUMPI MLOAD PUSH1 0x1 PUSH1 0x1 PUSH1 0xE0 SHL SUB NOT DUP2 AND DUP2 SUB PUSH2 0x213A JUMPI SWAP1 CODESIZE PUSH2 0x206A JUMP JUMPDEST DUP7 DUP1 REVERT JUMPDEST POP RETURNDATASIZE PUSH2 0x210F JUMP INVALID LOG2 PUSH5 0x6970667358 0x22 SLT KECCAK256 SHR 0xDD ADD PUSH27 0x33D0E84C043339167976CA0776D687FB0BCE735A93DD69E4F87F88 PUSH22 0x64736F6C634300081800330000000000000000000000 "},"methodIdentifiers":{"addAuthorizedContract(address)":"98eaa4a7","approve(address,uint256)":"095ea7b3","authorizedContracts(address)":"d5b9221b","balanceOf(address)":"70a08231","getApproved(uint256)":"081812fc","getFundingTarget(uint256)":"bb0f3c1d","getMinInvestment(uint256)":"282d7da5","getPropertyInfo(uint256)":"40f0a055","getPropertyStatus(uint256)":"c6731486","isApprovedForAll(address,address)":"e985e9c5","mintProperty(address,string,string,string,uint256,uint256,uint256)":"6688d5a2","name()":"06fdde03","owner()":"8da5cb5b","ownerOf(uint256)":"6352211e","removeAuthorizedContract(address)":"e6b165ed","renounceOwnership()":"715018a6","safeTransferFrom(address,address,uint256)":"42842e0e","safeTransferFrom(address,address,uint256,bytes)":"b88d4fde","setApprovalForAll(address,bool)":"a22cb465","supportsInterface(bytes4)":"01ffc9a7","symbol()":"95d89b41","tokenByIndex(uint256)":"4f6ccce7","tokenOfOwnerByIndex(address,uint256)":"2f745c59","tokenURI(uint256)":"c87b56dd","totalSupply()":"18160ddd","transferFrom(address,address,uint256)":"23b872dd","transferOwnership(address)":"f2fde38b","updatePropertyStatus(uint256,uint8)":"564c0aec","updateStatus(uint256,uint8)":"3a1b3d31"}}}}}