{
  "_format": "hh-sol-artifact-1",
  "contractName": "PropertyTokenFactory",
  "sourceName": "contracts/PropertyTokenFactory.sol",
  "abi": [
    {
      "inputs": [
        {
          "internalType": "address",
          "name": "_syntiantToken",
          "type": "address"
        },
        {
          "internalType": "address",
          "name": "_propertyNFT",
          "type": "address"
        },
        {
          "internalType": "address",
          "name": "_owner",
          "type": "address"
        }
      ],
      "stateMutability": "nonpayable",
      "type": "constructor"
    },
    {
      "inputs": [
        {
          "internalType": "uint256",
          "name": "amount",
          "type": "uint256"
        },
        {
          "internalType": "uint256",
          "name": "minInvestment",
          "type": "uint256"
        }
      ],
      "name": "BelowMinInvestment",
      "type": "error"
    },
    {
      "inputs": [
        {
          "internalType": "uint256",
          "name": "amount",
          "type": "uint256"
        },
        {
          "internalType": "uint256",
          "name": "remaining",
          "type": "uint256"
        }
      ],
      "name": "ExceedsFundingTarget",
      "type": "error"
    },
    {
      "inputs": [
        {
          "internalType": "address",
          "name": "owner",
          "type": "address"
        }
      ],
      "name": "OwnableInvalidOwner",
      "type": "error"
    },
    {
      "inputs": [
        {
          "internalType": "address",
          "name": "account",
          "type": "address"
        }
      ],
      "name": "OwnableUnauthorizedAccount",
      "type": "error"
    },
    {
      "inputs": [
        {
          "internalType": "uint256",
          "name": "propertyId",
          "type": "uint256"
        },
        {
          "internalType": "uint8",
          "name": "currentStatus",
          "type": "uint8"
        }
      ],
      "name": "PropertyNotActive",
      "type": "error"
    },
    {
      "inputs": [
        {
          "internalType": "uint256",
          "name": "propertyId",
          "type": "uint256"
        }
      ],
      "name": "PropertyTokenAlreadyExists",
      "type": "error"
    },
    {
      "inputs": [
        {
          "internalType": "uint256",
          "name": "propertyId",
          "type": "uint256"
        }
      ],
      "name": "PropertyTokenNotFound",
      "type": "error"
    },
    {
      "inputs": [],
      "name": "ReentrancyGuardReentrantCall",
      "type": "error"
    },
    {
      "inputs": [
        {
          "internalType": "address",
          "name": "token",
          "type": "address"
        }
      ],
      "name": "SafeERC20FailedOperation",
      "type": "error"
    },
    {
      "anonymous": false,
      "inputs": [
        {
          "indexed": true,
          "internalType": "uint256",
          "name": "propertyId",
          "type": "uint256"
        },
        {
          "indexed": true,
          "internalType": "address",
          "name": "investor",
          "type": "address"
        },
        {
          "indexed": false,
          "internalType": "uint256",
          "name": "amount",
          "type": "uint256"
        },
        {
          "indexed": false,
          "internalType": "uint256",
          "name": "shares",
          "type": "uint256"
        }
      ],
      "name": "InvestmentMade",
      "type": "event"
    },
    {
      "anonymous": false,
      "inputs": [
        {
          "indexed": true,
          "internalType": "address",
          "name": "previousOwner",
          "type": "address"
        },
        {
          "indexed": true,
          "internalType": "address",
          "name": "newOwner",
          "type": "address"
        }
      ],
      "name": "OwnershipTransferred",
      "type": "event"
    },
    {
      "anonymous": false,
      "inputs": [
        {
          "indexed": true,
          "internalType": "uint256",
          "name": "propertyId",
          "type": "uint256"
        },
        {
          "indexed": true,
          "internalType": "address",
          "name": "tokenAddress",
          "type": "address"
        }
      ],
      "name": "PropertyTokenCreated",
      "type": "event"
    },
    {
      "inputs": [],
      "name": "TOTAL_SHARES_PER_PROPERTY",
      "outputs": [
        {
          "internalType": "uint256",
          "name": "",
          "type": "uint256"
        }
      ],
      "stateMutability": "view",
      "type": "function"
    },
    {
      "inputs": [
        {
          "internalType": "uint256",
          "name": "propertyId",
          "type": "uint256"
        },
        {
          "internalType": "string",
          "name": "name",
          "type": "string"
        },
        {
          "internalType": "string",
          "name": "symbol",
          "type": "string"
        }
      ],
      "name": "createPropertyToken",
      "outputs": [],
      "stateMutability": "nonpayable",
      "type": "function"
    },
    {
      "inputs": [
        {
          "internalType": "uint256",
          "name": "propertyId",
          "type": "uint256"
        },
        {
          "internalType": "address",
          "name": "investor",
          "type": "address"
        }
      ],
      "name": "getInvestorShares",
      "outputs": [
        {
          "internalType": "uint256",
          "name": "",
          "type": "uint256"
        }
      ],
      "stateMutability": "view",
      "type": "function"
    },
    {
      "inputs": [
        {
          "internalType": "uint256",
          "name": "propertyId",
          "type": "uint256"
        }
      ],
      "name": "getPropertyInvestments",
      "outputs": [
        {
          "components": [
            {
              "internalType": "address",
              "name": "investor",
              "type": "address"
            },
            {
              "internalType": "uint256",
              "name": "amount",
              "type": "uint256"
            },
            {
              "internalType": "uint256",
              "name": "shares",
              "type": "uint256"
            },
            {
              "internalType": "uint256",
              "name": "timestamp",
              "type": "uint256"
            }
          ],
          "internalType": "struct PropertyTokenFactory.InvestmentRecord[]",
          "name": "",
          "type": "tuple[]"
        }
      ],
      "stateMutability": "view",
      "type": "function"
    },
    {
      "inputs": [
        {
          "internalType": "uint256",
          "name": "propertyId",
          "type": "uint256"
        }
      ],
      "name": "getPropertyToken",
      "outputs": [
        {
          "internalType": "address",
          "name": "",
          "type": "address"
        }
      ],
      "stateMutability": "view",
      "type": "function"
    },
    {
      "inputs": [
        {
          "internalType": "uint256",
          "name": "propertyId",
          "type": "uint256"
        },
        {
          "internalType": "uint256",
          "name": "amount",
          "type": "uint256"
        }
      ],
      "name": "invest",
      "outputs": [],
      "stateMutability": "nonpayable",
      "type": "function"
    },
    {
      "inputs": [
        {
          "internalType": "uint256",
          "name": "",
          "type": "uint256"
        },
        {
          "internalType": "address",
          "name": "",
          "type": "address"
        }
      ],
      "name": "investorShares",
      "outputs": [
        {
          "internalType": "uint256",
          "name": "",
          "type": "uint256"
        }
      ],
      "stateMutability": "view",
      "type": "function"
    },
    {
      "inputs": [],
      "name": "owner",
      "outputs": [
        {
          "internalType": "address",
          "name": "",
          "type": "address"
        }
      ],
      "stateMutability": "view",
      "type": "function"
    },
    {
      "inputs": [
        {
          "internalType": "uint256",
          "name": "",
          "type": "uint256"
        }
      ],
      "name": "propertyInvestments",
      "outputs": [
        {
          "internalType": "uint256",
          "name": "",
          "type": "uint256"
        }
      ],
      "stateMutability": "view",
      "type": "function"
    },
    {
      "inputs": [],
      "name": "propertyNFT",
      "outputs": [
        {
          "internalType": "contract IPropertyNFT",
          "name": "",
          "type": "address"
        }
      ],
      "stateMutability": "view",
      "type": "function"
    },
    {
      "inputs": [
        {
          "internalType": "uint256",
          "name": "",
          "type": "uint256"
        }
      ],
      "name": "propertyTokens",
      "outputs": [
        {
          "internalType": "address",
          "name": "",
          "type": "address"
        }
      ],
      "stateMutability": "view",
      "type": "function"
    },
    {
      "inputs": [],
      "name": "renounceOwnership",
      "outputs": [],
      "stateMutability": "nonpayable",
      "type": "function"
    },
    {
      "inputs": [],
      "name": "syntiantToken",
      "outputs": [
        {
          "internalType": "contract IERC20",
          "name": "",
          "type": "address"
        }
      ],
      "stateMutability": "view",
      "type": "function"
    },
    {
      "inputs": [
        {
          "internalType": "address",
          "name": "newOwner",
          "type": "address"
        }
      ],
      "name": "transferOwnership",
      "outputs": [],
      "stateMutability": "nonpayable",
      "type": "function"
    }
  ],
  "bytecode": "0x60c03461012557601f611e9538819003918201601f19168301916001600160401b0383118484101761012a5780849260609460405283398101031261012557604061004982610140565b9161005660208201610140565b6001600160a01b03929091839161006d9101610140565b1692831561010c57600080546001600160a01b03198116861782556040519585939290918416907f8be0079c531659141344cd1fd0a4f28419497f9722a3daafe3b4186f6b6457e09080a360018055166080521660a052611d40908161015582396080518181816102ee0152610bbd015260a0518181816101c4015281816102290152818161028d01528181610522015281816105770152610c210152f35b604051631e4fbdf760e01b815260006004820152602490fd5b600080fd5b634e487b7160e01b600052604160045260246000fd5b51906001600160a01b03821682036101255756fe60808060405260043610156200001457600080fd5b600090813560e01c90816337f768381462000c0b575080633fdfe18d1462000bec578063436c126b1462000aa1578063684da4131462000aff5780636cd4ac4d1462000ba5578063715018a61462000b475780637bf69ca91462000aff5780638da5cb5b1462000ad6578063a6ff83431462000aa1578063bc420e30146200093f578063bf1f01941462000913578063d56f18fe14620007de578063d87aa64314620001645763f2fde38b14620000ca57600080fd5b346200016157602036600319011262000161576004356001600160a01b03818116918290036200015c57620000fe62000d94565b81156200014357600054826001600160601b0360a01b821617600055167f8be0079c531659141344cd1fd0a4f28419497f9722a3daafe3b4186f6b6457e0600080a380f35b604051631e4fbdf760e01b815260048101849052602490fd5b600080fd5b80fd5b5034620001615760403660031901126200016157600260015414620007cc5760026001819055600435825260205260408120546001600160a01b03168015620007b3576040516363398a4360e11b815260048035908201526020816024817f00000000000000000000000000000000000000000000000000000000000000006001600160a01b03165afa80156200067a5783906200076f575b60ff915016600181036200074f575060405163282d7da560e01b815260048035908201526020816024817f00000000000000000000000000000000000000000000000000000000000000006001600160a01b03165afa9081156200067a57839162000717575b508060243510620006f7575060405163bb0f3c1d60e01b81526004803590820152906020826024817f00000000000000000000000000000000000000000000000000000000000000006001600160a01b03165afa9182156200067a578392620006b9575b5060043583526003602052604083205482038281116200063a5780602435116200069957507f000000000000000000000000000000000000000000000000000000000000000060405160208101906323b872dd60e01b825233602482015230604482015260243560648201526064815260a0810181811067ffffffffffffffff82111762000685576040525160209186919082855af1156200067a5783513d6200067057506001600160a01b0381163b155b6200064e57506103e8908160243502916024358304146024351517156200063a57821562000626578084913b15620006225781906044604051809481936340c10f1960e01b835233600484015288880460248401525af18015620006175762000601575b506004358352600360205260408320620003fb602435825462000d70565b9055600435835260056020526040832033600052602052604060002062000426838304825462000d70565b9055600435835260046020526040832060405190620004458262000c67565b3382526024356020830152838304604083015242606083015280549068010000000000000000821015620005ed5760018201808255821015620005d9576003916060918752602087209060021b019260018060a01b038151166001600160601b0360a01b855416178455602081015160018501556040810151600285015501519101558160405191602435835204602082015233907ff31343540affa723d26848192c2f28ab76925951531440b6f2e082030394314f604060043592a3600435825260036020526040822054101562000520575b6001805580f35b7f00000000000000000000000000000000000000000000000000000000000000006001600160a01b03163b15620001615760405163159302bb60e21b815260048035908201526002602482015281908181604481837f00000000000000000000000000000000000000000000000000000000000000006001600160a01b03165af18015620005ce57620005b6575b505062000519565b620005c19062000c9a565b62000161578038620005ae565b6040513d84823e3d90fd5b634e487b7160e01b86526032600452602486fd5b634e487b7160e01b86526041600452602486fd5b6200060f9093919362000c9a565b9138620003dd565b6040513d86823e3d90fd5b5080fd5b634e487b7160e01b84526012600452602484fd5b634e487b7160e01b84526011600452602484fd5b604051635274afe760e01b81526001600160a01b039091166004820152602490fd5b6001141562000379565b6040513d85823e3d90fd5b634e487b7160e01b87526041600452602487fd5b60449060405190630f9bc4e960e31b825260243560048301526024820152fd5b9091506020813d602011620006ee575b81620006d86020938362000caf565b81010312620006ea57519038620002c7565b8280fd5b3d9150620006c9565b6044906040519063768d09bd60e01b825260243560048301526024820152fd5b90506020813d60201162000746575b81620007356020938362000caf565b81010312620006ea57513862000263565b3d915062000726565b604490604051906360bdec8b60e11b825260043560048301526024820152fd5b506020813d602011620007aa575b816200078c6020938362000caf565b81010312620006ea575160ff81168103620006ea5760ff90620001fd565b3d91506200077d565b6024604051630f26223360e11b81526004356004820152fd5b604051633ee5aeb560e01b8152600490fd5b50346200016157602090816003193601126200016157600435815260048252604081209182549067ffffffffffffffff8211620008ff57919290604051906200082d848260051b018362000caf565b8082528382018093865284862086915b838310620008ab57505050506040519280840191818552518092526040840192945b8281106200086d5784840385f35b855180516001600160a01b0316855280830151858401526040808201519086015260609081015190850152948101946080909301926001016200085f565b60048760019260409a9997989a51620008c48162000c67565b848060a01b0386541681528486015483820152600286015460408201526003860154606082015281520192019201919096949395966200083d565b634e487b7160e01b83526041600452602483fd5b503462000161576020366003190112620001615760406020916004358152600383522054604051908152f35b503462000161576060366003190112620001615760043567ffffffffffffffff60243581811162000a9d576200097a90369060040162000cd2565b60443582811162000a99576200099590369060040162000cd2565b91620009a062000d94565b838552600260205260408520546001600160a01b039390841662000a805760405192610f498085019384118585101762000a6c5791620009f662000a059286959462000dc2873960a0855260a085019062000d2e565b90838203602085015262000d2e565b908560408201526103e86060820152608030910152039084f080156200067a571690808352600260205260408320826001600160601b0360a01b8254161790557f859691b33a0a8f563029a221c9021d1948ab6013a7e2ff6e0701162385ba24d78380a380f35b634e487b7160e01b88526041600452602488fd5b6040516303dd044960e11b815260048101869052602490fd5b8480fd5b8380fd5b5034620001615760203660031901126200016157602090600435815260028252604060018060a01b0391205416604051908152f35b50346200016157806003193601126200016157546040516001600160a01b039091168152602090f35b5034620001615760403660031901126200016157604060209162000b2262000c50565b6004358252600584528282206001600160a01b03909116825283522054604051908152f35b5034620001615780600319360112620001615762000b6462000d94565b80546001600160a01b03198116825581906001600160a01b03167f8be0079c531659141344cd1fd0a4f28419497f9722a3daafe3b4186f6b6457e08280a380f35b503462000161578060031936011262000161576040517f00000000000000000000000000000000000000000000000000000000000000006001600160a01b03168152602090f35b5034620001615780600319360112620001615760206040516103e88152f35b90503462000622578160031936011262000622577f00000000000000000000000000000000000000000000000000000000000000006001600160a01b03168152602090f35b602435906001600160a01b03821682036200015c57565b6080810190811067ffffffffffffffff82111762000c8457604052565b634e487b7160e01b600052604160045260246000fd5b67ffffffffffffffff811162000c8457604052565b90601f8019910116810190811067ffffffffffffffff82111762000c8457604052565b81601f820112156200015c5780359067ffffffffffffffff821162000c84576040519262000d0b601f8401601f19166020018562000caf565b828452602083830101116200015c57816000926020809301838601378301015290565b919082519283825260005b84811062000d5b575050826000602080949584010152601f8019910116010190565b60208183018101518483018201520162000d39565b9190820180921162000d7e57565b634e487b7160e01b600052601160045260246000fd5b6000546001600160a01b0316330362000da957565b60405163118cdaa760e01b8152336004820152602490fdfe60c060405234620003be5762000f49803803806200001d81620003c3565b92833981019060a081830312620003be5780516001600160401b0390818111620003be57836200004f918401620003e9565b906020938484015190828211620003be576200006d918501620003e9565b93604084015192608060608601519501519260018060a01b0396878516809503620003be578251828111620002be576003918254916001958684811c94168015620003b3575b888510146200039d578190601f9485811162000347575b508890858311600114620002e057600092620002d4575b505060001982861b1c191690861b1783555b8051938411620002be5760049586548681811c91168015620002b3575b828210146200029e5783811162000253575b5080928511600114620001e55750938394918492600095620001d9575b50501b92600019911b1c19161781555b8115620001c15750600580546001600160a01b03198116831790915560405194167f8be0079c531659141344cd1fd0a4f28419497f9722a3daafe3b4186f6b6457e0600080a360805260a052610aed90816200045c823960805181610188015260a05181818161048901526105870152f35b602490600060405191631e4fbdf760e01b8352820152fd5b0151935038806200013f565b92919084601f1981168860005285600020956000905b898383106200023857505050106200021d575b50505050811b0181556200014f565b01519060f884600019921b161c19169055388080806200020e565b858701518955909701969485019488935090810190620001fb565b87600052816000208480880160051c82019284891062000294575b0160051c019087905b8281106200028757505062000122565b6000815501879062000277565b925081926200026e565b602288634e487b7160e01b6000525260246000fd5b90607f169062000110565b634e487b7160e01b600052604160045260246000fd5b015190503880620000e1565b90889350601f19831691876000528a6000209260005b8c82821062000330575050841162000317575b505050811b018355620000f3565b015160001983881b60f8161c1916905538808062000309565b8385015186558c97909501949384019301620002f6565b90915085600052886000208580850160051c8201928b861062000393575b918a91869594930160051c01915b82811062000383575050620000ca565b600081558594508a910162000373565b9250819262000365565b634e487b7160e01b600052602260045260246000fd5b93607f1693620000b3565b600080fd5b6040519190601f01601f191682016001600160401b03811183821017620002be57604052565b919080601f84011215620003be5782516001600160401b038111620002be576020906200041f601f8201601f19168301620003c3565b92818452828287010111620003be5760005b8181106200044757508260009394955001015290565b85810183015184820184015282016200043156fe6080604081815260048036101561001557600080fd5b600092833560e01c90816306fdde03146106ca57508063095ea7b31461062157806318160ddd1461060257806323b872dd146105c5578063313ce567146105aa5780633a98ef391461056f57806340c10f191461045c57806342966c681461043e57806370a0823114610407578063715018a6146103aa57806379cc6790146103745780638da5cb5b1461034b57806395d89b4114610229578063a9059cbb146101f8578063dd62ed3e146101af578063ee7a3b8e146101705763f2fde38b146100de57600080fd5b3461016c57602036600319011261016c576100f761080a565b906101006109ec565b6001600160a01b03918216928315610156575050600554826bffffffffffffffffffffffff60a01b821617600555167f8be0079c531659141344cd1fd0a4f28419497f9722a3daafe3b4186f6b6457e08380a380f35b51631e4fbdf760e01b8152908101849052602490fd5b8280fd5b5050346101ab57816003193601126101ab57602090517f00000000000000000000000000000000000000000000000000000000000000008152f35b5080fd5b5050346101ab57806003193601126101ab57806020926101cd61080a565b6101d5610825565b6001600160a01b0391821683526001865283832091168252845220549051908152f35b5050346101ab57806003193601126101ab5760209061022261021861080a565b602435903361090e565b5160018152f35b509190346101ab57816003193601126101ab5780519082845460018160011c9060018316928315610341575b602093848410811461032e5783885290811561031257506001146102bd575b505050829003601f01601f191682019267ffffffffffffffff8411838510176102aa57508291826102a69252826107c1565b0390f35b634e487b7160e01b815260418552602490fd5b8787529192508591837f8a35acfbc15ff81a39ae7d344fd709f28e8600b4aa8c65c6b64bfe7fe36bd19b5b8385106102fe5750505050830101388080610274565b8054888601830152930192849082016102e8565b60ff1916878501525050151560051b8401019050388080610274565b634e487b7160e01b895260228a52602489fd5b91607f1691610255565b5050346101ab57816003193601126101ab5760055490516001600160a01b039091168152602090f35b5050346101ab573660031901126103a7576103a461039061080a565b6024359061039f82338361083b565b610a18565b80f35b80fd5b83346103a757806003193601126103a7576103c36109ec565b600580546001600160a01b0319811690915581906001600160a01b03167f8be0079c531659141344cd1fd0a4f28419497f9722a3daafe3b4186f6b6457e08280a380f35b5050346101ab5760203660031901126101ab5760209181906001600160a01b0361042f61080a565b16815280845220549051908152f35b8382346101ab5760203660031901126101ab576103a4903533610a18565b50903461016c578060031936011261016c5761047661080a565b90602435916104836109ec565b600254907f000000000000000000000000000000000000000000000000000000000000000082810390811161055c5780851161054057506001600160a01b031693841561052957838201809211610516575084927fddf252ad1be2c89b69c2b068fc378daa952ba7f163c4a11628f55a4df523b3ef9260209260025585855284835280852082815401905551908152a380f35b634e487b7160e01b865260119052602485fd5b825163ec442f0560e01b8152908101869052602490fd5b856044918686519263adc3cee560e01b84528301526024820152fd5b634e487b7160e01b875260118652602487fd5b5050346101ab57816003193601126101ab57602090517f00000000000000000000000000000000000000000000000000000000000000008152f35b5050346101ab57816003193601126101ab5751908152602090f35b5050346101ab5760603660031901126101ab576020906102226105e661080a565b6105ee610825565b604435916105fd83338361083b565b61090e565b5050346101ab57816003193601126101ab576020906002549051908152f35b503461016c578160031936011261016c5761063a61080a565b6024359033156106b3576001600160a01b031691821561069c57508083602095338152600187528181208582528752205582519081527f8c5be1e5ebec7d5bd14f71427d1e84f3dd0314c0f7b2291e5b200ac8c7c3b925843392a35160018152f35b8351634a1406b160e11b8152908101859052602490fd5b835163e602df0560e01b8152808401869052602490fd5b849150833461016c578260031936011261016c578260035460018160011c90600183169283156107b7575b602093848410811461032e5783885290811561079b575060011461074557505050829003601f01601f191682019267ffffffffffffffff8411838510176102aa57508291826102a69252826107c1565b600387529192508591837fc2575a0e9e593c00f959f8c92f12db2869c3395a3b0502d05e2516446f71f85b5b8385106107875750505050830101858080610274565b805488860183015293019284908201610771565b60ff1916878501525050151560051b8401019050858080610274565b91607f16916106f5565b6020808252825181830181905290939260005b8281106107f657505060409293506000838284010152601f8019910116010190565b8181018601518482016040015285016107d4565b600435906001600160a01b038216820361082057565b600080fd5b602435906001600160a01b038216820361082057565b9160018060a01b03809316916000938385526001602052604093848620918316918287526020528486205492600019841061087a575b50505050505050565b8484106108de575080156108c65781156108ae57855260016020528385209085526020520391205538808080808080610871565b8451634a1406b160e11b815260048101879052602490fd5b845163e602df0560e01b815260048101879052602490fd5b8551637dc7a0d960e11b81526001600160a01b039190911660048201526024810184905260448101859052606490fd5b916001600160a01b038084169283156109d357169283156109ba5760009083825281602052604082205490838210610988575091604082827fddf252ad1be2c89b69c2b068fc378daa952ba7f163c4a11628f55a4df523b3ef958760209652828652038282205586815220818154019055604051908152a3565b60405163391434e360e21b81526001600160a01b03919091166004820152602481019190915260448101839052606490fd5b60405163ec442f0560e01b815260006004820152602490fd5b604051634b637e8f60e11b815260006004820152602490fd5b6005546001600160a01b03163303610a0057565b60405163118cdaa760e01b8152336004820152602490fd5b906001600160a01b0382169081156109d35760009282845283602052604084205490828210610a855750817fddf252ad1be2c89b69c2b068fc378daa952ba7f163c4a11628f55a4df523b3ef926020928587528684520360408620558060025403600255604051908152a3565b60405163391434e360e21b81526001600160a01b03919091166004820152602481019190915260448101829052606490fdfea26469706673582212207ea5e93fd57b106fcd0cf991dc3fb8bc6ef69d4e41eed0382f5109c498c0526664736f6c63430008180033a26469706673582212204fcd32a62aa024e415c05f65b2d2d343319c83fd17476b694faf5a3324ed9e1064736f6c63430008180033",
  "linkReferences": {},
  "deployedLinkReferences": {}
}